:020000040800F2
:10000000180F002089010008BB2900086F24000890
:10001000B9290008E70200081931000800000000B3
:10002000000000000000000000000000A72B0008F6
:10003000AF03000800000000A52B0008A92B000852
:10004000A3010008A3010008A3010008A301000800
:10005000A3010008A3010008A3010008A3010008F0
:10006000A3010008A3010008A3010008A3010008E0
:10007000A301000879030008A3010008A3010008F8
:10008000A3010008A3010008A3010008A3010008C0
:100090000D310008A3010008A3010008A301000816
:1000A000A3010008292C0008A3010008A3010008EF
:1000B000A3010008A3010008A3010008A301000890
:1000C000A3010008A3010008A3010008A301000880
:1000D000A3010008A3010008A3010008A301000870
:1000E000A3010008A3010008A301000800F002F822
:1000F00000F03AF80AA090E8000C82448344AAF188
:100100000107DA4501D100F02FF8AFF2090EBAE885
:100110000F0013F0010F18BFFB1A43F0010318473B
:10012000EC3800000C390000103A24BF78C878C1C0
:10013000FAD8520724BF30C830C144BF04680C60ED
:10014000704700000023002400250026103A28BF35
:1001500078C1FBD8520728BF30C148BF0B60704739
:100160001FB51FBD10B510BD00F058F81146FFF7C0
:10017000F7FF03F02FF800F076F803B4FFF7F2FF73
:1001800003BC00F07DF8000009488047094800479B
:10019000FEE7FEE7FEE7FEE7FEE7FEE7FEE7FEE737
:1001A000FEE7FEE704480549054A064B7047000094
:1001B000252C0008ED00000818090020180F002069
:1001C000180B0020180B00204FF0000200B513465A
:1001D00094469646203922BFA0E80C50A0E80C5067
:1001E000B1F12001BFF4F7AF090728BFA0E80C5018
:1001F00048BF0CC05DF804EB890028BF40F8042B11
:1002000008BF704748BF20F8022B11F0804F18BF7D
:1002100000F8012B7047704770477047754600F033
:100220002BF8AE4605006946534620F00700854688
:1002300018B020B5FFF7B6FFBDE820404FF000062C
:100240004FF000074FF000084FF0000B21F00701BE
:10025000AC46ACE8C009ACE8C009ACE8C009ACE801
:10026000C0098D46704710B50446AFF300802046A4
:10027000BDE81040FFF781BF00487047B408002078
:1002800001491820ABBEFEE72600020070470000BF
:1002900070B5044600688168C943C90717D18168F1
:1002A00021F00101816000F0A7FF05460AE000BFD0
:1002B00000F0A2FF401B022804D920688068C043D8
:1002C000C00706D020688068C043C007F0D0002077
:1002D00070BDA06A40F01000A062E06A40F001002A
:1002E000E062012070BDFEE738B50E4C4FF400759A
:1002F00025600025A560E560082525610A4C050AF2
:1003000025706070080AA070E170100A2071627197
:10031000180AA071E3716B4622460249034800F0B7
:10032000A3F938BD400300202D00002070000020FC
:1003300038B50E4C40F2FF1525600025A560E5603C
:10034000082525610A4C050A25706070080AA0700E
:10035000E170100A20716271180AA071E3716B4696
:1003600022460249034800F07FF938BD40030020CF
:100370002D00002070000020014800F021BD000089
:100380009C02002030B590F840500124AC40C56B71
:100390006C60046863604368102B036803D0996045
:1003A0000068C26030BD9A600068C16030BD7047AF
:1003B00072B6FEE7F8B50024009490F82420254694
:1003C000012A12D0012280F824204A681F23072A1C
:1003D0000DD20668776B521E02EB820293409F4358
:1003E0000B6893401F43776319E00220F8BD06684D
:1003F0000D2A0AD2376BD21F02EB820293409F4331
:100400000B6893401F43376309E0F76A0D3A02EB2C
:10041000820293409F430B6893401F43F7620A6830
:10042000072306680A2A0AD3F7680A3A02EB42024F
:1004300093409F438B6893401F43F76008E0376900
:1004400002EB420293409F438B6893401F43376106
:100450000A68102A01D0112A20D1124B02689A4250
:1004600017D193681B0219D4936843F40003936077
:100470000968102912D10C490C4A0968B1FBF2F144
:1004800001EB8101490000E0491E00910029FBD1E8
:1004900004E0816A41F020018162012480F8245047
:1004A0002046F8BD002401402800002040420F00F3
:1004B0002DE9F0414FF0000704003D467ED0A06AD0
:1004C000002628B9E66284F82460204600F07EF811
:1004D0002046FFF7DDFEA16AC90600D420B1A06A5C
:1004E00040F01000A06269E0A16A21F4885141F057
:1004F0000201A1626268E169237B0A4347EA430182
:100500000A43A1684FF48077B94209D0012907D086
:100510005FF0000194F814C0BCF1010F02D00AE0B2
:100520003946F7E7F3B1A36A43F02003A362E36A15
:1005300043F00103E3622368D3F804C02CF4694C50
:100540004CEA010CC3F804C021688B68DFF870C066
:1005500003EA0C0313438B60A168B9420BD0012955
:1005600009D00CE0DFF85CC0A3690CEB43330B430C
:1005700043F40061DFE7218A0D05A5F580152168A8
:10058000CB6A23F470032B43CB62216889680E4B3E
:100590001940914208D1E662A16A21F0020141F0BE
:1005A0000101A162BDE8F081A06A20F0020040F0E4
:1005B0001000A062E06A40F00100E0620120F1E773
:1005C000FDF7E1FF00E0FFFFFE0E1FFF10B586B054
:1005D0000021009101910291039100681549884220
:1005E00026D11548816941F400718161816901F466
:1005F00000710491816941F004018161816901F018
:1006000004010491816941F008018161806903243A
:1006100000F008000490FF20CDE900046946074877
:1006200000F0F0FC009469460548019400F0EAFCF3
:1006300006B010BD00240140001002400008014037
:10064000000C014090F82020012A07D0022A05D092
:10065000416A41F48021416201207047006842698B
:100660000A43426100207047F0B590F820500468BA
:10067000A468012D05D0022D03D0416A41F48021E8
:1006800057E014F0406F01D1E5004FD5C4F3016489
:100690000125A5401D608D684FF4C0739DB1CE68E3
:1006A00035434E6845EAC605066803EB0417F55165
:1006B0004FF4C275076805EB04150E697E51097D7C
:1006C000012905D009E00E88CD6845EA4655EBE7DB
:1006D00001684E5946F480764E511179D579567994
:1006E00041EA056195792D0445EA062529434FF431
:1006F000C676056806EB0416A9511178D57841EA4B
:100700000561957852782D0445EA022211434FF491
:10071000C475026805EB04155151006803EB041120
:10072000425842F0010242500020F0BD416A41F4BB
:10073000001141620120F0BD10B590F82030026830
:10074000012B07D0022B05D0416A41F48021416280
:10075000012010BDD2F8000240F00100C2F80002F2
:10076000087D00F01F0301209840D2F81C3283431B
:10077000C2F81C32CB69B3B9D2F80C328343C2F849
:100780000C328C894B6864F31F434C6902EBC40440
:10079000C4F840320C890B6864F31F434C6902EBC8
:1007A000C404C4F84432CB69012B16D1D2F80C3200
:1007B0000343C2F80C320C884B6864F31F434C6946
:1007C00002EBC404C4F840320C89CB6864F31F43C5
:1007D0004C6902EBC404C4F844328B69002BD2F894
:1007E00004320FD053EA0003C2F804320B69002B25
:1007F000D2F8143208D00343C2F81432096A01292E
:1008000004D008E08343EFE78343F5E7D2F81C12F6
:100810000143C2F81C12D2F8000220F00100C2F815
:100820000002002010BD704770B590F82040012CE8
:1008300005D0022C03D0416A41F4802128E00468ED
:1008400009B32469A40720D04FF4D874056804EBD9
:1008500001142D5915F00405956005682D591AD01D
:10086000ED08556005682C5904F00204D4604FF47B
:10087000DA74056804EB01142E5906F00F06082EF1
:100880000CD308250DE0E468DCE7416A41F400116F
:100890004162012070BD6D0D1560E3E72D5905F033
:1008A0000F05156105682D59C5F307259561056884
:1008B0002C59240C54614FF4DC72046802EB0112D1
:1008C000A4581C700468A458240A5C700468A458D6
:1008D000240C9C700468A258120EDA704FF4DE7279
:1008E000046802EB0112A4581C710468A458240A7D
:1008F0005C710468A458240C9C710468A258120E00
:10090000DA71006829B1016941F02001016100201C
:1009100070BDC16841F02001C160F8E72DE9F05FCA
:100920000546006800244669D0F804908768D0F82E
:100930000CB0D0F810A0D0F81880F10748D0F90713
:1009400014D001218160B80703D5284600F031FAA0
:100950000CE0780702D54FF4006407E0380702D5B1
:100960004FF4805402E0284600F022FAF80516D52C
:1009700029684FF480708860B80503D5284600F0D8
:100980001AFA0CE0780502D544F4005407E0380563
:1009900002D544F4804402E0284600F00BFAF80344
:1009A00016D529684FF480308860B80303D52846EF
:1009B00000F003FA0CE0780302D544F4004407E0A9
:1009C000380302D544F4803402E0284600F0F4F9FC
:1009D000300707D55FEACB6004D52968102044F4BE
:1009E0000074C86070074FF0080707D55FEA0B7006
:1009F00004D52868C760284600F05AF9B00706D524
:100A00002868C068800702D0284600F053F97006B5
:100A100007D55FEACA6004D52968102044F48064D1
:100A20000861B00607D55FEA0A7004D52868076137
:100A3000284600F08DF9F00606D528680069800781
:100A400002D0284600F085F9B00308D55FEAC960F6
:100A500005D5296810204860284600F07BF9F0038E
:100A600007D55FEA097004D528684760284600F07A
:100A7000A5F9300446D55FEA497040D5F00504D5A4
:100A80005FEAC87001D044F00104B00504D55FEA04
:100A9000887001D544F00204700504D55FEA4870FF
:100AA00001D544F00404300529D518F0700F26D084
:100AB00008F07000402815D006DC102809D0202846
:100AC0000AD0302816D10AE050280ED0602811D163
:100AD0000EE044F008040DE044F010040AE044F095
:100AE000200407E044F0400404E044F0800401E006
:100AF00044F480742868816921F07001816129685B
:100B000004204860002C05D0686A204368622846AB
:100B1000FFF789FEBDE8F09F70B5040003D094F89C
:100B2000200010B104E0012070BD204600F082F8E2
:100B30002068016841F00101016000F05DFB05469D
:100B4000052604E000F058FB401B0A2811D8206855
:100B50004068C007F6D02068016821F002010160FA
:100B600000F04AFB05460BE000F046FB401B0A285C
:100B700006D9606A40F40030606284F82060D2E7F1
:100B8000206840688007EFD4207E01282068016833
:100B90003DD021F080010160607E0128206801685D
:100BA00038D021F040010160A07E01282068016852
:100BB00033D021F020010160E07E01282068016827
:100BC0002ED041F010010160207F012820680168CB
:100BD00029D021F008010160607F012820680168A8
:100BE00024D021F004010160D4E902010843D4E9D2
:100BF0000412114308436168491E08432168C86113
:100C000000206062012084F82000002070BD41F0C7
:100C10008001C0E741F04001C5E741F02001CAE78B
:100C200021F01001CFE741F00801D4E741F00401C1
:100C3000D9E7000010B586B0002100910191029122
:100C400003910068174988422AD11748C16941F0C9
:100C50000071C161C16901F000710491816941F0C5
:100C6000040181618069114C00F0040004904FF48C
:100C7000006000906946204600F0C4F9A01400907E
:100C800002200190032003906946204600F0BAF943
:100C900000221146142000F00DFC142000F0FCFB93
:100CA00006B010BD00640040001002400008014082
:100CB0007047000010B5234A016888B091423ED1C8
:100CC000214B6A460021FFF7AFFD0098A0F20120FA
:100CD000072834D81C49C0B2093900EB400308701A
:100CE0001A4901EB830031F823200281164A148847
:100CF00064BA21F82340548864BA4480948864BA62
:100D000084809279827131F82310B0F90820891A11
:100D1000B1F5805F02DD4189491E04E011F5805F75
:100D200002DA4189491C4181B0F90A1047F2305278
:100D300011444EF66122914201D30021418108B055
:100D400010BD00000064004035000020E0020020DB
:100D5000704770477047000070B5044690F8200057
:100D6000012804D0606A40F40020606218E002208C
:100D700084F820002068016821F00101016000F082
:100D80003BFA05460EE000BF00F036FA401B0A2889
:100D900008D9606A40F400306062052084F82000C1
:100DA000012070BD20684068C007EDD1606270BD51
:100DB0007047704770477047704770477047000032
:100DC0002DE9F05FC16B0C6801680B68D0F840C07A
:100DD000042202FA0CF2494DDFF824A1494E4A4F91
:100DE000DFF828B1DFF828E122422CD05A072AD5B3
:100DF0000A68920603D40A6822F004020A600168B5
:100E0000A94201D1042219E0514501D1402215E047
:100E1000B14202D14FF4806210E0B94202D14FF4E6
:100E200080420BE0594502D14FF4802206E0714523
:100E300002D14FF4800201E04FF080622F4908395F
:100E40004A60C16A3BE04FF0020808FA0CF818EA61
:100E5000040F4FF000094FF0010235D05FEA8378AC
:100E600032D50B689B0605D40B6823F00A030B6090
:100E700080F821200168A94201D1022219E05145E0
:100E800001D1202215E0B14202D14FF4007210E0EE
:100E9000B94202D14FF400520BE0594502D14FF450
:100EA000003206E0714502D14FF4001201E04FF02C
:100EB0000072124908394A6080F82090816A00293E
:100EC0001AD0BDE8F05F0847082505FA0CF5254261
:100ED00012D01B0710D50B6823F00E030B6090F89F
:100EE0004010C36B02FA01F15960826380F821203F
:100EF00080F82090016BE2E7BDE8F09F0800024017
:100F00001C000240300002404400024058000240F1
:100F10006C00024030B528B308C8134914221944A4
:100F2000B1FBF2F18900C16310498163022141776D
:100F30001A6843F6F0718A43D0E900142143D0E9DE
:100F400002452C43214304692143446921438469B8
:100F50002143114319600021416301224277017747
:100F6000084630BD012030BDF8FFFDBF0000024043
:100F700070B5044690F82000002501280CD001200F
:100F800084F8200094F821600020012E06D084F817
:100F900020000225284670BD022070BD022684F87C
:100FA0002160A0632068066826F0010606602046DE
:100FB000FFF7E8F9E06A00282068016802D041F0F4
:100FC0000E0106E021F0040101602068016841F093
:100FD0000A0101602068016841F001010160D9E760
:100FE00070B5044600F008F90546601C02D00448BC
:100FF0000078044400F000F9401BA042FAD370BD11
:101000001C0000202DE9F84FDFF8B8910024A9F169
:10101000040B23460F2709F1040AABF1040EC9E0C3
:101020000125A5402A40AA427DD1674ED1F804C0CF
:10103000ACEB0608B44532D014DCBCF1030F3AD057
:1010400009DCBCF1000F2AD0BCF1010F1CD0BCF1AF
:10105000020F31D11DE0BCF1110F17D0BCF1120FFE
:101060002AD119E0B8F5881F19D006DCB8F5803F01
:1010700015D0B8F5801F1FD111E0B8F5001F0ED0B4
:10108000B8F5041F18D10AE0CB6815E0CB681B1D2A
:1010900012E0CB6808330FE0CB680C330CE08B68B0
:1010A0002BB1012B4FF0080303D0456104E004236A
:1010B00002E0056100E00023FF2A01D8064601E0B6
:1010C00000F104064FEA840501D9A5F12005D6F800
:1010D000008007FA05FC28EA0C0803FA05F548EA3F
:1010E0000508C6F800804D68ED0062D5374DAE6941
:1010F00046F00106AE61AD6924F0030605F0010576
:101100000095334D06EB050CDCF80850A607360FAA
:1011100007FA06F825EA0805DFF8B880404503D14C
:101120004FF0000817E044E0DFF8AC80404502D102
:101130004FF001080FE0DFF8A480404502D14FF0E6
:10114000020808E0DFF89880404502D14FF003081C
:1011500001E04FF0040808FA06F848EA0508CCF860
:1011600008804D68D9F80060ED024D4601D5164360
:1011700000E096432E604D68DAF80060AD025546F7
:1011800001D5164300E096432E604D68DBF8006001
:10119000AD035D4601D5164300E096432E604D68D1
:1011A000DEF80060ED03754601D5164300E0964376
:1011B0002E60641C0D682A46E5407FF431AFBDE81F
:1011C000F88F0000080401400000111000100240D8
:1011D0000000014000080140000C014000100140E7
:1011E000001401408068084000D0012070470AB117
:1011F000016170470904FBE70148806870470000FF
:101200001C00002070B5040025D094F83D00002596
:1012100020B984F83C50204600F0B8F8242084F827
:101220003D002068016821F001010160206801682B
:1012300041F4004101602068016821F4004101602F
:1012400000F076FA4D4A6168914201D84C4900E0BD
:101250004C49884201D2012070BD4B492368B0FB44
:10126000F1F15E6826F03F060E435E6063689342CC
:1012700006D94FF4967359434FF47A73B1FBF3F1E7
:101280002368491C1E6A26F03F06314319626168D3
:10129000914210D84900401EB0FBF1F2521CC2F33B
:1012A0000B02042A01D2042022E0B0FBF1F0401C22
:1012B000C0F30B001CE0A268F2B301EBC10303EB27
:1012C0000116431EB3FBF6F35B1C43F480431B057E
:1012D00049D092B301EBC10202EB0111401EB0FBF9
:1012E000F1F0401CC0F30B0040F4804040F400409B
:1012F0002168CA694CF6FF739A431043C861D4E968
:10130000071001432068026822F0C0021143016007
:10131000D4E9030101432068826848F2FF339A430D
:1013200011438160D4E9050108432168CA6822F0AD
:10133000FF021043C86001E00EE016E0206801687B
:1013400041F0010101602564202084F83D002563FF
:1013500084F83E50002070BD01EB4106431EB3FBF4
:10136000F6F35B1CB3E70120C2E701EB4101401E2D
:10137000B0FBF1F0401CC0F30B00B7E7A086010002
:1013800080841E0000093D0040420F0010B586B069
:101390000021009101910291039100680F49884258
:1013A0001AD10F4CA06940F00800A061A0696946FD
:1013B00000F008000490C02000901220019003204B
:1013C00003900848FFF71EFEE06940F40010E0615A
:1013D000E06900F40010049006B010BD0054004015
:1013E00000100240000C014002488168027811445C
:1013F000816070471C000020074810B5016841F06B
:1014000010010160032000F075F80F2000F006F8CD
:1014100000F024F8002010BD0020024070B50D4DF2
:1014200004464FF47A712878B1FBF0F00A49096854
:10143000B1FBF0F000F052FB48B9102C07D20022AB
:101440002146501E00F036F800206C6070BD01206F
:1014500070BD00001C000020280000200C4808B5CA
:10146000816941F001018161816901F0010100910F
:10147000C16941F08051C161C06900F080500090A5
:101480000448416821F0E06141F00071416008BD0D
:101490000010024000000140002809DB00F01F029C
:1014A000012191404009800000F1E020C0F80011C6
:1014B00070470000F0B40E4B1B680C46C3F30223C8
:1014C000C3F10705042D00D90425191D072901D2F0
:1014D000002300E0DB1E012606FA05F1491E21402B
:1014E00099409E40761E16403143F0BC01F015BE77
:1014F0000CED00E0064900F0070208684FF6FF0314
:10150000184040EA0220034A104308607047000078
:101510000CED00E00000FA052DE9F84305460078DF
:10152000354CC00754D0E0690026C00008D4E069FB
:1015300040F08050E061E069012600F080500090AA
:101540002E480168C90512D40168804641F48071B3
:101550000160FFF751FE074605E000BFFFF74CFEB4
:10156000C01B642823D8D8F80000C005F6D5206A2F
:1015700010F4407021D0A98801F4407181421CD040
:10158000206A1F49012220F440700A6000220A608C
:101590002062C00711D0FFF72FFE074641F28838BE
:1015A00008E000BFFFF728FEC11B414502D9032018
:1015B000BDE8F883206A8007F4D5206A696820F4C2
:1015C0004070084320621EB1E06920F08050E06165
:1015D0002878800705D56068A96820F44040084352
:1015E00060602878C00605D56068E96820F480004E
:1015F000084360600020DBE70010024000700040FC
:10160000400442422DE9F0470F46050061D0434EA9
:10161000306800F00700B84209D2306820F00700B7
:1016200038433060306800F00700B84251D1286874
:101630003B4C810712D5400703D5606840F4E06059
:1016400060602878000703D5606840F460506060EF
:101650006068A96820F0F000084360602878C0073F
:1016600028D06868012810D02168022810D0890786
:1016700000292EDA616821F0030101436160FFF760
:10168000BBFD804641F288390DE021688903EFE710
:101690008901EDE7FFF7B0FDA0EB0801494502D94C
:1016A0000320BDE8F0876068696800F00C00B0EBCB
:1016B000810FEFD1306800F00700B8420BD93068D5
:1016C00020F0070038433060306800F00700B8426F
:1016D00001D00120E5E72878400705D56068E96872
:1016E00020F4E060084360602878000706D5606851
:1016F000296920F4605040EAC100606000F038F8C9
:101700006168084AC1F30311515CC840064908608A
:1017100006480068FFF782FE0020C2E70020024072
:1017200000100240F43900082800002020000020AA
:101730000448054900684968044AC1F30221515C24
:10174000C84070472800002000100240043A0008FA
:101750000448054900684968044AC1F3C221515C44
:10176000C84070472800002000100240043A0008DA
:101770000E4A51680E4801F00C03042B11D0082BBF
:101780000FD10C48C1F38343C903C05C0AD551682B
:10179000084AC1F34041921E515C054A5043B0FBD8
:1017A000F1F07047044948437047000000100240C0
:1017B00000127A00E439000800093D002DE9F84FD5
:1017C000040070D02078C04DC00749D06868C0F3CD
:1017D0008100012807D06868C0F38100022809D180
:1017E0006868C00306D52868800339D5606800287A
:1017F000E7D035E06068B0F5803F0BD010B1B0F5B0
:10180000A02F11D0286820F480302860286820F4A8
:10181000802002E0286840F480302860606890B141
:10182000FFF7EAFC06460AE0286840F480202860BA
:10183000F0E700BFFFF7E0FC801B642873D828683E
:101840008003F7D50CE0FFF7D7FC064605E000BFA4
:10185000FFF7D2FC801B6428F0D828688003F7D4F7
:1018600020789A4E80074FF001094FF0000839D5D3
:10187000686810F00C0F07D06868C0F38100022878
:1018800009D16868C00306D42868800714D5206988
:10189000012808D110E02069B0B1C6F80090FFF728
:1018A000ABFC074605E00AE1FFF7A6FCC01B0228D7
:1018B000C4D828688007F7D52868616920F0F80047
:1018C00040EAC10028600DE0C6F80080FFF794FCF4
:1018D000074604E0FFF790FCC01B022823D82868C5
:1018E0008007F7D4207800072CD57948A169D9B1B1
:1018F000C0F80090FFF780FC074604E0FFF77CFC8F
:10190000C01B02280FD8686A8007F7D571484FF4CA
:10191000FA510068B0FBF1F0009000BF0098411E42
:101920000091FAD20EE080E0C0F80080FFF764FC7E
:10193000074604E0FFF760FCC01B022875D8686A00
:101940008007F7D42078400760D5E8690027C000F9
:1019500008D4E86940F08050E861E869012700F0A8
:10196000805000905C480168C90513D40168834623
:1019700041F480710160FFF73FFC824606E000BF42
:10198000FFF73AFCA0EB0A0064284ED8DBF8000011
:10199000C005F5D5E06801280AD008B1052813D0A4
:1019A000286A20F001002862286A20F0040002E082
:1019B000286A40F001002862E06841F2883B98B153
:1019C000FFF71AFC82460BE0286A40F00400286208
:1019D000EEE700BFFFF710FCA0EB0A0159455AD80B
:1019E000286A8007F6D50CE0FFF706FC824605E082
:1019F000FFF702FCA0EB0A0159454CD8286A800782
:101A0000F6D41FB1E86920F08050E861E06988B33E
:101A10006968C1F38101022944D00228C6F86080B8
:101A200004D0FFF7E9FB044638E034E0FFF7E4FBBD
:101A3000074604E0FFF7E0FBC01B02282BD828680C
:101A40008001F7D4206AB0F5803F05D16868A168AD
:101A500020F4003008436860D4E90801084369684D
:101A600021F4741108436860C6F86090FFF7C4FB66
:101A7000044606E025E000BFFFF7BEFB001B02287E
:101A800009D828688001F7D51BE000BFFFF7B4FB39
:101A9000001B022802D90320BDE8F88F28688001C6
:101AA000F4D40EE00128F7D06868226A00F480318F
:101AB000914204D1616A00F47010884201D0012083
:101AC000EAE70020E8E70000001002400000424280
:101AD00080044242280000200070004010B5401EE3
:101AE000B0F1807F01D3012010BD4FF0E024606190
:101AF0000F21601701F011FB0020A0610720206179
:101B0000002010BD7047704770B590F83C20012A46
:101B100026D0012480F83C40022280F83D20036852
:101B20005A689D6822F070060A6832435A600D4B6D
:101B300002689A4208D0B2F1804F05D00A4B9A420F
:101B400002D00A4B9A4204D1496825F08003194318
:101B5000916080F83D40002180F83C10084670BD3F
:101B6000022070BD002C014000040040000800402D
:101B700010B5040003D094F83D0010B107E0012037
:101B800010BD002084F83C00204600F01FF8022021
:101B900084F83D00211D206801F04CF8012084F8F4
:101BA000460084F83E0084F83F0084F8400084F842
:101BB000410084F8420084F8430084F8440084F82B
:101BC000450084F83D00002010BD000008B51C4A07
:101BD00001681C48914211D1816941F40061816121
:101BE0008069002200F40060009011461920FFF780
:101BF00061FCBDE808401920FFF74EBCB1F1804FF1
:101C00000BD0114A914210D1C16941F00201C1616A
:101C1000C06900F00200009008BDC16941F00101F7
:101C2000C161C06900F00100F5E7084A9142F3D1B3
:101C3000C16941F00401C161C06900F00400EAE734
:101C4000002C014000100240000400400008004049
:101C500090F83D10012901D001207047022180F841
:101C60003D1000680B49884208D0B0F1804F05D084
:101C70000949884202D00949884204D1816801F0AB
:101C80000701062903D0016841F00101016000202D
:101C900070470000002C0140000400400008004094
:101CA00090F83D10012901D001207047022180F8F1
:101CB0003D100168CA6842F00102CA6000680B4921
:101CC000884208D0B0F1804F05D00949884202D03F
:101CD0000849884204D1816801F00701062903D030
:101CE000016841F00101016000207047002C0140B3
:101CF000000400400008004070B5044690F83C0025
:101D00000025012817D0012684F83C60022084F8C1
:101D10003D002068826822F0770222F47F428260D0
:101D20000868502838D00DDC20284FD005DC90B34F
:101D3000102811D14AE0022070BD302846D040283A
:101D40000AD13BE060282FD070280DD0B0F5805F1D
:101D500003D0B0F5005F12D0012584F83D6000206B
:101D600084F83C00284670BDCB68D1E90121206889
:101D700000F0A3FF2068816841F0770109E0CB689B
:101D8000D1E90121206800F098FF2068816841F4C2
:101D900080418160E1E719E0CA684968206801F084
:101DA00041F85021206806E0CA684968206801F0BF
:101DB0004AF86021206800F08AFFCEE7CA684968C7
:101DC000206801F02FF840212068F4E722680146DE
:101DD0001046F0E7704770B50446006801694FF09F
:101DE0000005C943890715D4C168C943890711D4BF
:101DF000E91E016101202077206880698007204664
:101E000002D0FFF7E7FF04E000F00EF9204600F0F3
:101E1000A0F9257720680169C943490717D4C1682B
:101E2000C943490713D46FF00401016102202077F0
:101E30002068806910F4407F204602D0FFF7CAFF77
:101E400004E000F0F1F8204600F083F925772068DF
:101E50000169C943090716D4C168C943090712D4E7
:101E60006FF008010161042020772068C0698007B5
:101E7000204602D0FFF7AEFF04E000F0D5F8204680
:101E800000F067F9257720680169C943C90617D4AE
:101E9000C168C943C90613D46FF01001016108205D
:101EA00020772068C06910F4407F204602D0FFF7F9
:101EB00091FF04E000F0B8F8204600F04AF92577D9
:101EC00020680169C943C90708D1C168C943C90766
:101ED00004D1891E0161204600F08AF92068016959
:101EE000C943090609D4C168C943090605D46FF07E
:101EF000800101612046FFF705FE20680169C943A2
:101F0000490609D4C168C943490605D46FF04001A8
:101F10000161204600F0A8F920680169C9438906DB
:101F20000BD4C168C943890607D46FF02001016151
:101F30002046BDE87040FFF7E6BD70BD70B586B0C5
:101F4000002100910191029103910068304902241F
:101F5000304E314DB0F1804F1CD0304A904242D1CA
:101F6000886940F0080088618869694600F00800C7
:101F700004903020CDE9000430460394FFF742F886
:101F8000686820F4406040F0E06040F40060686001
:101F900006B070BD886940F004008861886900F06F
:101FA00004000490886940F00800886188696946E7
:101FB00000F0080004904FF40040CDE900041848F8
:101FC0000394FFF71FF80820CDE900046946304666
:101FD0000394FFF717F8686820F4407040F0E06061
:101FE00040F48070D3E70F4A9042D1D1886940F025
:101FF000080088618869694600F0080004904FF481
:102000004070CDE9000430460394FEF7FBFFBFE7C4
:1020100000100240000C014000000140000400409C
:102020000008014000080040704770B5044690F871
:102030003C0000260D4601280FD0012084F83C000A
:102040006AB1042A1DD0082A2FD00C2A3FD00126BD
:10205000002084F83C00304670BD022070BD20682E
:1020600000F03EFE2068816941F00801816120682E
:10207000816921F004018161206881692A69114325
:1020800011E0206800F054FE2068816941F400618D
:1020900081612068816921F48061816120688169A2
:1020A0002A6941EA02218161D2E7206800F06CFED2
:1020B0002068C16941F00801C1612068C16921F04F
:1020C0000401C1612068C1692A69114311E02068D7
:1020D00000F086FE2068C16941F40061C16120689A
:1020E000C16921F48061C1612068C1692A6941EA3E
:1020F0000221C161ACE710B5040003D094F83D00A3
:1021000010B107E0012010BD002084F83C002046FB
:1021100000F01EF8022084F83D00211D206800F028
:1021200089FD012084F8460084F83E0084F83F00D1
:1021300084F8400084F8410084F8420084F84300A9
:1021400084F8440084F8450084F83D00002010BD68
:102150007047704710B50446022249B104290ED0D9
:10216000082913D094F84100012816D0012010BD91
:1021700094F83E000128F9D184F83E200FE094F84D
:102180003F000128F2D184F83F2008E094F8400095
:102190000128EBD184F8402001E084F8412001229D
:1021A000206800F07DFD0F492068884203D1426C11
:1021B00042F4004242642068884208D0B0F1804F67
:1021C00005D00949884202D00849884204D1816873
:1021D00001F00701062903D0016841F00101016007
:1021E000002010BD002C0140000400400008004009
:1021F00010B50068184988422DD1184C002122469C
:10220000174800F093FC164822460021A43000F045
:102210008DFC22460021134800F088FC114822461C
:102220000021A43000F082FC0D4CB4F9FC31B4F96B
:102230005821B4F9B410B4F91000FEF755F8B4F908
:102240008C34B4F9E823B4F94413B4F9A002BDE81E
:102250001040FEF76DB810BD002C014058BEB237DB
:1022600058030020A004002070477047704770B5E5
:10227000040004D094F84100002510B106E00120CC
:1022800070BD84F84050204600F024F8242084F8E3
:1022900041002068C16821F40051C160204600F06F
:1022A00091FE2068016921F4904101612068416933
:1022B00021F02A0141612068C16841F40051C160E8
:1022C0006564202084F8410084F8420065630020A2
:1022D00070BD0000F0B585B0002500950195029510
:1022E000039506460368314F022031490322440218
:1022F000BB4221D18B6943F480438B618B6903F42A
:10230000804304938B6943F004038B618969294EF0
:1023100001F0040104910102CDE900100392694625
:102320003046FEF76FFECDE900456946304602951E
:10233000FEF768FE05B0F0BD1F4FBB42FAD1CB6976
:1023400043F48023CB61CB6903F4802304938B692E
:1023500043F008038B61896901F00801CDE903218D
:10236000CDE90040154C69462046FEF74BFEE014CF
:10237000CDE90005694620460295FEF743FE114C63
:102380000F48C4E900058020C4E9025020202561DF
:10239000C4E905504FF44050E0612046FEF7BAFD15
:1023A00008B1FEF705F8F4636662C3E70038014040
:1023B000001002400008014000480040000C0140AD
:1023C000300002409C02002090F84230202B01D0C7
:1023D0000220704721B11AB10023036300F04EBE02
:1023E00001207047F0B520494B788C78DB0843EA30
:1023F0004413CD78A40944EA85040D794E7944EA62
:10240000852408886D08C0F30A0245EAC615A1F1C3
:102410001600C6F301178772B609C672CE88868188
:102420000E89C6814E8906820E7B86744E7BC674E9
:10243000CE898682098AC3F30A03A2F58062C4F3B7
:102440000A040280A3F58063C5F30A054380A4F55E
:102450008064C1F30A018480A5F58065C580A1F57B
:1024600080610181F0BD00008E0800207047FEE70A
:10247000FEB500243E48009401943C49029401605A
:1024800089158160047304750A2505614FF4602184
:102490004460C161FEF70CF808B1FDF789FF012621
:1024A000CDE90046694632480294FDF783FF08B142
:1024B000FDF77EFF0224CDE9006469462C48FDF754
:1024C00079FF08B1FDF774FF00940324694628489A
:1024D0000194FDF76FFF08B1FDF76AFF0094042433
:1024E000694623480194FDF765FF08B1FDF760FFD9
:1024F0000094052469461E480194FDF75BFF08B16E
:10250000FDF756FF00940624694619480194FDF72B
:1025100051FF08B1FDF74CFF0094072469461448A9
:102520000194FDF747FF08B1FDF742FF009408242E
:1025300069460F480194FDF73DFF08B1FDF738FFEC
:102540000094092469460A480194FDF733FF08B155
:10255000FDF72EFF69460648CDE90045FDF72AFF45
:10256000002801D0FDF724FFFEBD0000002401403B
:10257000400000200E4810B50C4901600421416064
:1025800000214FF4C0228160C0E90312416101764D
:1025900041768176C17601774177FEF7BDFA002852
:1025A00003D0BDE81040FDF703BF10BD006400403C
:1025B00070000020094808B5416941F001014161FE
:1025C0004069002200F00100009011460D20FEF746
:1025D00071FFBDE808400D20FEF75EBF001002400D
:1025E0002DE9F04385B00024294800940194029419
:1025F0000394816941F010018161816901F010014A
:102600000491816941F020018161816901F020011B
:102610000491816941F004018161816901F0040143
:102620000491816941F0080181618069DFF864806B
:1026300000F008004FF46046049000223146404606
:10264000FEF7D5FDDFF850904FF480770022394631
:102650004846FEF7CCFD0125009669460F48CDE9B6
:102660000145FEF7CFFCCDE900650226CDE9024623
:1026700069464046FEF7C6FC00970396CDE9015433
:1026800069464846FEF7BEFC05B0BDE8F083000091
:1026900000100240000C0140000801400010014001
:1026A0000D4810B50B4901600C49416000214FF401
:1026B00080428160C0E9031241618161C1610162B0
:1026C000FEF7A0FD002803D0BDE81040FDF770BE66
:1026D00010BD00000054004098000020801A060041
:1026E00010B586B000241748009401940294039416
:1026F00004941349059401604721C0E9011442F292
:102700000F71C0E9031444618461FFF731FA08B125
:10271000FDF74EFE4FF48050009069460948FFF7E0
:10272000EBFA08B1FDF744FE049404A905480594AA
:10273000FFF7EAF9002801D0FDF73AFE06B010BD18
:10274000002C0140EC00002010B58EB0002407944E
:10275000089409940A940B941C2168460C94FDF784
:1027600033FD22484FF0804101604721C0E9011448
:1027700044F61F61C0E903148461FFF7F9F908B159
:10278000FDF716FE4FF48050079007A91748FFF792
:10279000B3FA08B1FDF70CFE1448FFF7ACFC08B122
:1027A000FDF706FE0B940BA910480C94FFF7ACF94B
:1027B00008B1FDF7FDFD6020CDE900040294002280
:1027C00069460A480494FFF730FC08B1FDF7F0FDB4
:1027D000042269460548FFF728FC08B1FDF7E8FD2B
:1027E0000248FFF7ABFB0EB010BD00003401002023
:1027F00010B58EB000240794089409940A940B94A1
:102800001C2168460C94FDF7DFFC2248204901603A
:102810004721C0E9011444F61F61C0E90314846133
:10282000FFF7A6F908B1FDF7C3FD4FF480500790FC
:1028300007A91848FFF760FA08B1FDF7B9FD154878
:10284000FFF759FC08B1FDF7B3FD0B940BA9114834
:102850000C94FFF759F908B1FDF7AAFD6020CDE906
:1028600000040294002269460A480494FFF7DDFB45
:1028700008B1FDF79DFD042269460648FFF7D5FB28
:1028800008B1FDF795FD0348FFF758FB0EB010BDEA
:10289000000400407C01002010B58EB00024079495
:1028A000089409940A940B941C2168460C94FDF733
:1028B0008BFC2248204901604721C0E9011444F6FD
:1028C0001F61C0E903148461FFF752F908B1FDF7F5
:1028D0006FFD4FF48050079007A91848FFF70CFAD6
:1028E00008B1FDF765FD1548FFF705FC08B1FDF7D8
:1028F0005FFD0B940BA911480C94FFF705F908B183
:10290000FDF756FD6020CDE90004029408226946D7
:102910000A480494FFF789FB08B1FDF749FD0C2232
:1029200069460648FFF781FB08B1FDF741FD034802
:10293000FFF704FB0EB010BD00080040C4010020EA
:102940000C4810B50A4901604FF4E13141600021A3
:1029500081600C22C160C0E904128161C161FFF78E
:1029600086FC002803D0BDE81040FDF721BD10BD56
:10297000003801400C0200200D4810B50B490160E1
:102980000C49416000214FF480628160C0E903126C
:102990000C22C0E90521C161FFF769FC002803D0C2
:1029A000BDE81040FDF704BD10BD00000048004028
:1029B00054020020A0860100FEE7FEE72DE9F04763
:1029C000040011D0206C60648146E06B2064C4E98F
:1029D00006218046104600F01FFF0546E063207880
:1029E00028B101283BD038E00020BDE8F087294617
:1029F000606800F009FE60622946A06800F004FEED
:102A0000A16A00F025FD0646A062606BA063206B02
:102A100060634146284600F0FFFE01462063E068FF
:102A200000F0F2FDE0623046616900F0B9FE6069D5
:102A300008D380F00040A16A00F0B2FE03D26069C2
:102A400080F00040A062D4E9090100F001FDE16AD4
:102A500031E0206980F000402062206AC5E74146ED
:102A6000284600F0D9FE616800F0CEFD074660629E
:102A70002946A06800F0C8FD0646A062606BA0630E
:102A8000206B60630121404600F06DFF294600F095
:102A9000B8FE494600F0DCFC01462063E06800F027
:102AA000B3FD0546E0623146384600F0D1FC2946C8
:102AB00000F0CEFC216A00F0CBFC2062216900F01E
:102AC0006FFE2069C8D380F00040216A00F068FEE4
:102AD000C3D2BEE700280CD0002141640164C16369
:102AE000816341630163C16281624162016281610C
:102AF000C161704710B50028029C16D0002A14D07E
:102B00000170116841605168816000F10C0C91689E
:102B10008CE81A0000218163416301630162C16294
:102B20008162416241640164C16310BD2DE9F041DD
:102B300006681746044600F1140501B3B6F90A0009
:102B40003188C0EB4030084400F012FD394600F0F7
:102B50005BFDE060014604F15C00A268FFF72EFF18
:102B600000F0EAFC00B2A08000F002FD06462068FA
:102B7000B0F9020000F0FCFC014632460AE0B4F96C
:102B8000040000F0F5FC0746B6F9020000F0F0FC86
:102B90003A4601462846FFF711FF00F0CDFC20829F
:102BA000BDE8F08170477047FEF71EBC30B593B0AA
:102BB00028216846FDF708FB14210AA8FDF704FB4D
:102BC000002501200F9510951195010412958DE8AF
:102BD000230004904FF4E010CDE90810022407947C
:102BE0006846FEF7EBFD08B172B6FEE70AA90F20B2
:102BF00081E831004FF48060CDE90D0502210AA87B
:102C0000FEF700FD08B172B6FEE74FF400401190E8
:102C10000F940FA8FEF780FC002801D072B6FEE7E3
:102C200013B030BD704700000148FFF7D4B8000072
:102C3000EC000020F0B50268164B174C174D4FF012
:102C40008047984205D0B84203D0A04201D0A842A4
:102C500003D122F070064A683243984205D0B84248
:102C600003D0A04201D0A84203D122F44074CA6824
:102C700022434C6922F08002224302608A68C262C9
:102C80000A688262984201D10969016301214161A8
:102C9000F0BD0000002C014000040040000800408E
:102CA00010B501F01F030121046A99408C430462AE
:102CB000016A9A401143016210BD10B5846842EA6E
:102CC000032224F47F440A432243826010BD8268B9
:102CD00022F070020A4342F0070181607047000051
:102CE00030B5036A026A22F0010202624268846916
:102CF00024F073050C682C4323F002058B682B43EA
:102D00000A4DA8420BD123F00805CB6822F440728B
:102D10002B434D6923F0040315438A692A4342601B
:102D2000846149684163036230BD0000002C0140AA
:102D300030B5026A036A23F01003036243688469B2
:102D40000D6824F4E64444EA05248D6822F020024C
:102D500042EA05120B4DA8420ED1CD6822F0800246
:102D600042EA05124D6923F4406343EA85038D6905
:102D700022F0400243EA850343608461496881632D
:102D8000026230BD002C014030B5036A026A22F4B1
:102D9000807202624268C46923F4007324F07305F0
:102DA0000C682C438D6843EA05230C4DA8420ED1D4
:102DB000CD6823F4006343EA05234D6922F44052B1
:102DC00042EA05128D6923F4806342EA05124260EB
:102DD000C4614968C163036230BD0000002C01403A
:102DE00030B5046A026A22F4805202624268C36902
:102DF0000D6823F4E64343EA05238D6824F4005468
:102E000044EA0534064DA84204D14D6922F48042BB
:102E100042EA85124260C36149680164046230BDC0
:102E2000002C014010B5036A046A24F00104046216
:102E3000846924F0F00444EA021423F00A020A43ED
:102E40008461026210BD10B5036A046A24F01004A4
:102E50000462846923F0A00324F4704444EA02323B
:102E600043EA01118261016210BD70B5446A2068B5
:102E7000406994F84110C0F3C0100025212904D105
:102E800018B1E584204600F08EF82068406994F877
:102E90004210C0F38010222904D118B1E5852046E4
:102EA00000F05AF8606C40F0100060642046FFF7B4
:102EB000DDF970BD10B50146406A096809684FF038
:102EC000000289062ED4C28501680C3151E8003F0A
:102ED00023F4807341E80034002CF5D101681431EB
:102EE00051E8003F23F0010341E80034002CF5D104
:102EF0000168143151E8003F23F0400341E80034F9
:102F0000002CF5D1202180F84210016B012909D154
:102F100001680C3151E8003F23F0100341E8003410
:102F2000002CF5D14263016B012902D0FFF75AFA58
:102F300010BD818DFFF799F910BD10B5406A0121D0
:102F40004163016B012902D0FFF790FA10BD818D1A
:102F50004908FFF78AF910BD01680C3151E8002FCC
:102F600022F4907241E80023002BF5D1016814315E
:102F700051E8002F22F0010241E80023002BF5D197
:102F8000016B012909D101680C3151E8002F22F0B1
:102F9000100241E80023002BF5D1202180F84210D7
:102FA00000210163704701680C3151E8002F22F0C5
:102FB000C00241E80023002BF5D1202180F8411008
:102FC0007047000070B5044600680169E26821F4AA
:102FD0004051114301612169A068084361690843B8
:102FE0002168CA6841F20C639A430243CA602068B0
:102FF0004169A26921F44071114341611E49206871
:10300000884202D1FEF7A4FB01E0FEF791FB00EB42
:10301000C00101EB0012606864218000B2FBF0F394
:10302000B3FBF1F36FF018067343B2FBF0F5B2FB9C
:10303000F0F605EB8305322303EB0515B5FBF1F53F
:10304000B6FBF1F605F0F00505EB0615B2FBF0F660
:10305000B2FBF0F0B0FBF1F06FF01802504306EB5A
:10306000800003EB0010B0FBF1F0216800F00F00CE
:103070002844886070BD00000038014038B5816286
:1030800004468285002013466064222284F8422090
:10309000E56B1B4AAA62E56B1A4AEA62E56B1A4ABB
:1030A0002A63E26B50630A462168E06B091DFDF755
:1030B0005FFF2068016840680090206948B120687F
:1030C0000C3050E8001F41F4807140E80012002AE3
:1030D000F5D12068143050E8001F41F0010140E8AC
:1030E0000012002AF5D12068143050E8001F41F08A
:1030F000400140E80012002AF5D1002038BD000050
:10310000B52E00083B2F00086B2E00080148FDF784
:1031100005BC000070000020FEE70907090E00282A
:1031200004DB00F1E02080F80014704700F00F008D
:1031300000F1E02080F8141D7047000000B58BB04E
:1031400000200121CDE90601089100900190029034
:1031500003900590049069460548FDF7EDFA044890
:10316000FDF7FAFD02210248FDF76CFA0BB000BD35
:10317000700000202DE9F8430446DDE90A50DDE93E
:10318000087690460A4600F019F8206004F1140011
:10319000009700210746FFF7ADFC04F15C003346C1
:1031A0004246002104460095FFF7A4FC3846FFF78D
:1031B00091FC2046BDE8F843FFF78CBC082805D2F7
:1031C000034900EB400001EB80007047002070478E
:1031D000E00200201FB5FEF70FF9FFF7E7FCFFF74D
:1031E000FFF9FFF7E7F9FFF743F9FFF7C3F9FFF737
:1031F00057FAFFF7A9FAFFF7FBFAFFF74DFBFFF7C6
:103200009FFBFFF7B9FBFFF76BFAFFF797FF12225F
:103210007D497E48FFF7D8F87E4E00247C4D7E4FD6
:10322000DFF8F8817E4ACDE90254CDE900764346C5
:10323000A2F10C017B48FFF79DFF0120CDE9025070
:10324000774A7848CDE900764346A2F10C01A430D4
:10325000FFF790FF0220CDE90250714ACDE90076D8
:103260004346A2F10C017048FFF784FF0320CDE92B
:1032700002506B4A6C48CDE900764346A2F10C013E
:10328000A430FFF777FF0420CDE90250644ACDE96E
:1032900000764346A2F10C016448FFF76BFF614DD5
:1032A0006348AC80A5F8A840A5F84C41A5F8F041CA
:1032B000A5F89442FEF7F4FC5E48FEF7C9FC002135
:1032C0005C48FEF747FF04215A48FEF743FF5A487F
:1032D000FEF7BEFC00215848FEF73CFF042156488B
:1032E000FEF738FF5548FEF7B3FC08215348FEF7B8
:1032F00031FF0C215148FEF72DFF4FF4FA70FDF716
:103300006FFEDFF83CA14FF40046DFF83891DFF89C
:1033100038B17710A846314655465046FDF762FF52
:10332000A0B9012251034846FDF761FF00224FF486
:1033300080714648FDF75BFF002231464846FDF7A5
:1033400056FF002239464846FDF751FF39462846C8
:10335000FDF748FF28B900224FF400514846FDF719
:1033600046FF4FF400512846FDF73CFF78B9012293
:1033700011023648FDF73BFF012231464D464846D3
:10338000FDF735FF012239462846FDF730FF9BF84F
:103390000A00022804D022481038418849B110E0C0
:1033A000A8F80440A8F8A840A8F84C41A8F8F041B3
:1033B00025E0018840F6C412914202D20A31018010
:1033C00008E0012141800188B1F5FA7F02D90A396C
:1033D000018000E0448088B216490A685063096899
:1033E000886315490A6850630968886313490A6845
:1033F000D063096808644FF47A71A8F804100A20B1
:10340000FDF7EEFD87E700008E0800205402002043
:103410000000C84300803B450000FA4400401C46C1
:103420001000002058030020A0040020E805002020
:10343000EC000020340100207C010020C4010020A9
:1034400000100140000C01407808002000080140F5
:1034500090EA010F48BF81F0004100F1E481421A77
:103460003CBF801A89184FEAD0524FF07F4C1CEABB
:10347000410FA2EBD15318BF9CEA026F00F03B80D2
:103480004FF0004C4CEA00204CEA012121FA03FCE9
:1034900010EB0C0C1ED202F1FF325FEA1C2040EB55
:1034A000C25038BF70471CF07F0F4FEA400C18BF66
:1034B000BCF17F4F38BF7047C3F12003994008BF6C
:1034C00020F00100BCF17F4F38BF7047A0F1C04031
:1034D00000F061B94FEA3C00000A40EBC25028BF3F
:1034E0001CF0FF0F4FEA400CE6D018BFBCF17F4F35
:1034F00038BF7047EAE79CEA026F05D010EA5C0F1C
:1035000008BF00F00040704710B500F0FEF800BFA3
:1035100064FBBE3E014800F0F4B900BF0000C07F6C
:10352000401058BFC0F14040491058BFC1F1404160
:103530008142EFF30080704741000B0ED3F19E02F1
:1035400008D950F400034FEA032323FA02F048BFDE
:103550004042704710B500F0D8F800BF499224806F
:10356000002070476FF0004282EA200070470000A0
:1035700010F0004148BF4042B0FA80F310FA03F265
:10358000C3F19D030BD051EAC35101EB1220530646
:1035900038BF704700F1010008BF20F001007047FC
:1035A00050EA010C00F113801CF5000F58BFBCF568
:1035B000000F01D48842704707D710F5000F58BF9D
:1035C00011F5000F15D488427047894270471CF5E9
:1035D000000F04D5BCF5000FF7D5814270474FF0BE
:1035E000807C1CEB400F38BF1CEB410F01D28142A5
:1035F000704710B500F089F8922449004FF0005050
:103600004FF08051FFF78CBF4FF47F0C1CEAD012B3
:103610001EBF1CEAD11392EA0C0F93EA0C0F00F0C4
:10362000478090EA010F48BF42F480724FF0004C8F
:103630004CEA00204CEA012102EB0302A0FB01133B
:10364000A2F50002002918BF43F001035B0028BF68
:103650004FEA330342EB22425FEA132C4CEBC25099
:103660002EBFBCEB436FB2F57C0F70474FEA036C83
:10367000BCF1004F08BF20F00100B2F57C0F38BF4D
:1036800070470BD582F0FF0212F5803FC8BF70472C
:1036900000F1C040D8BF00F00040704700F5000CBA
:1036A0005FEA4C0C48BF7047B0F1C04000F073B8FF
:1036B00090EA010F0CEAD11348BF42F480726245D0
:1036C00038BF634504D280EA010000F00040704733
:1036D00010B500F01AF800BF8900013E00F007B8ED
:1036E00000F009B85FEA410C5FEA1C6C08D080EA80
:1036F000010000F050B85FEA400C5FEA1C6CF6D1A4
:103700004FF00040A0F5800070470EF1020E2EF041
:10371000030E5EF8044B244204D44FEA4102B2F196
:103720007F4F11D84FEA4003B3F17F4F0CD80ED131
:103730004FEAD07CB2F17F4F0CEB4C0C0CF1020C39
:1037400008BF4CEBD17C04E04FF0080C01E04FEADD
:10375000D17C0CEB4C0324FA03F404F00704B4F11D
:10376000040C06D20EEB840CBDE810404CF0010CAA
:103770006047DFE80CF0070802024FF00040A0F5B8
:10378000800010BD0846420018BFD2F1807288BF89
:1037900000F0004010BDFF2141EAD050C005704745
:1037A00051EA000C00F113801CF5000F58BFBCF566
:1037B000000F01D48142704707D711F5000F58BFA1
:1037C00010F5000F15D481427047894270471CF5EF
:1037D000000F04D5BCF5000FF7D5884270474FF0B5
:1037E000807C1CEB410F38BF1CEB400F01D288429C
:1037F000704780EA010081EA000180EA0100FFF7DA
:10380000F8BE80F0004090EA010F7FF528AE81F00D
:10381000004100F008B8000090EA010F48BF81F0B5
:1038200000413FF51CAE421A04D882F00042A0EBE2
:10383000020011444FEAD0524FF07F4C1CEA410F76
:10384000A2EBD15318BF9CEA026F4AD04FF0004C54
:103850004CEA00204CEA012121FA03FCB0EB0C0CED
:103860000FD412F0FE0F36D05FEA4C001DD50012C7
:1038700040EBC25038BF70471CF03F0F18BF704775
:103880000BE0A2F101025FEA1C2040EBC25038BFFE
:1038900070471CF07F0F18BF7047C3F12003994099
:1038A00014BF401E20F00100704780084FEA122329
:1038B00008BF7047B0FA80FCA2EB0C02CCF1280CD8
:1038C00060FA0CF093EA122F04BF00EBC25070476D
:1038D0004FEAC3707047130A5FEADC1008BF7047F5
:1038E000F6E79CEA026F04D010EA5C0F08BF0020E4
:1038F000704710B5FFF709FF40DFF63E81F000404A
:1039000070470CF00F03092B08BF082000F051800E
:103910000A2B0BD0082B18BF704708BF1CF0400FB4
:103920000AD04FF000004FF0000170471CF0400F2C
:1039300018BF4FF0004070471CF0100F08D020F067
:10394000704300F07F4242EAD3014FEA4370704770
:1039500000F0604021F07F4242EA000201F07F4027
:1039600040EA727070474FF0FF0212EAD0521CBF5B
:1039700092F0FF038B42C2BFD14200EBC1507047AF
:10398000002A0AD0002B0BD0002900F00040A4BF71
:1039900040F0FE4040F40000704700F000407047E7
:1039A00043024FF00B0C18BF4CF0806C7FF4B2ADAB
:1039B00070471CF4801F11D01CF4E02F03D06FEA75
:1039C000CC31490070474FF04050EFF3008222F0B5
:1039D000704242EA000282F3008870474FF0000014
:1039E0007047010202030405060708090A0B0C0DC3
:1039F0000E0F101000000000000000000102030480
:103A00000607080900000000010203042C3A000820
:103A10000000002040000000280100086C3A000867
:103A200040000020D80E000044010008F40100000E
:103A30000000A040CDCCCC3D0000803F0080BB44C6
:103A4000CDCC4C3E00000000010000001000000042
:103A5000000000000024F40000000000000000004E
:0C3A60000000000000000000000000005A
:04000005080000ED02
:00000001FF
