:020000040800F2
:100000000861002085020008455400080D3D0008E5
:10001000A55200083D0500084D67000800000000DB
:10002000000000000000000000000000C501000802
:10003000E71100080000000021020008455C0008EC
:100040009F0200089F0200089F0200089F0200080C
:100050009F0200089F0200089F0200089F020008FC
:100060009F0200089F0200089F02000891100008EC
:100070009F0200089F0200089F0200089F020008DC
:100080009F020008AD1000089F0200089F020008B0
:10009000410500089F0200089F0200089F02000817
:1000A0009F0200089F0200089F0200089F020008AC
:1000B0009F0200089F0200089F0200089F0200089C
:1000C0009F020008113D00089F0200089F020008DF
:1000D0009F020008056700089F0200089F020008B1
:1000E0009F0200089F0200089F0200089F0200086C
:1000F0009F0200089F0200089F0200089F0200085C
:100100009F0200089F0200089F0200089F0200084B
:100110009F0200089F020008515D00089F0200082E
:100120009F0200089F020008BD1000089F020008FF
:100130009F0200089F0200089F0200089F0200081B
:10014000510500089F0200089F0200089F02000856
:10015000CD1000089F0200089F0200089F020008BF
:100160009F0200089F0200089F0200089F020008EB
:100170009F0200089F0200089F0200080000000084
:100180009F0200089F020008ED5F0008FD5F000865
:100190009F0200089F0200089F0200089F020008BB
:1001A00000000000000000009F020008DFF810D0EF
:1001B00000F04EF9004800476D750008AFF300806D
:1001C000086100202C4B19680868B0E8F04F80F3F4
:1001D0000988BFF36F8F4FF0000080F311887047DC
:1001E0000000000008480068006880F308884FF0AD
:1001F000000080F3148862B661B6BFF34F8FBFF37F
:100200006F8F00DF00BF00BF08ED00E0DFF80C00DB
:10021000016841F470010160704700BF88ED00E0A3
:10022000EFF30980BFF36F8F134B1A681EF0100FA6
:1002300008BF20ED108A20E9F04F106009B44FF09C
:10024000500080F31188BFF34F8FBFF36F8F08F01A
:100250007FFC4FF0000080F3118809BC1968086822
:10026000B0E8F04F1EF0100F08BFB0EC108A80F31A
:100270000988BFF36F8F704734000020EFF30580CB
:10028000704700000648804706480047FEE7FEE743
:10029000FEE7FEE7FEE7FEE7FEE7FEE7FEE7FEE736
:1002A000355D0008AD0100082DE9F05F054600202E
:1002B00092469B4688460646814640241BE02846D7
:1002C00041464746224600F053F853465A46C01A64
:1002D000914110D311461846224600F03AF82D1AE3
:1002E00067EB01084F4622460120002100F031F85B
:1002F00017EB00094E41201EA4F10104DFDC484643
:1003000031462A464346BDE8F09F40EA01039B0779
:1003100003D009E008C9121F08C0042AFAD203E07A
:1003200011F8013B00F8013B521EF9D27047D2B2DE
:1003300001E000F8012B491EFBD270470022F6E7CE
:1003400010B513460A4604461946FFF7F0FF20464B
:1003500010BD202A04DB203A00FA02F10020704789
:100360009140C2F1200320FA03F3194390407047F3
:10037000202A04DB203A21FA02F00021704721FAFA
:1003800002F3D040C2F12002914008431946704761
:100390000029A8BF7047401C490008BF20F0010099
:1003A000704710B4B0FA80FC00FA0CF050EA010477
:1003B00004BF10BC704749B1CCF1200421FA04F409
:1003C00011FA0CF118BF012121430843A3EB0C01E2
:1003D000CB1D4FEA00614FEA102042BF002010BC45
:1003E000704700EBC35010440029A4BF10BC7047F5
:1003F000401C490008BF20F0010010BC7047F0B459
:1004000000F0004221F0004120F00040CE0DC30D6D
:10041000C1F3160141F40001C0F316004C42154629
:1004200040F40000761E09E010EB440002D582F093
:10043000004240428842F7D840005B1EB342F9DADE
:1004400018B1F0BC0021FFF7ACBF2846F0BC7047E4
:10045000064C074D06E0E06840F0010394E8070011
:1004600098471034AC42F6D3FFF7A4FE049B000873
:10047000249B000870B58C1810F8015B15F0070379
:1004800001D110F8013B2A1106D110F8012B03E02D
:1004900010F8016B01F8016B5B1EF9D12B0705D435
:1004A0000023521E0DD401F8013BFAE710F8013B7E
:1004B000CB1A921C03E013F8015B01F8015B521E9A
:1004C000F9D5A142D8D3002070BD000009E005484D
:1004D000007810B1044806F07FFD0A21034808F0B7
:1004E0006FF9F4E730050020105A002024010020A5
:1004F000FEB504460D461646A52002905A200190EE
:100500000020009000BF06E0295C9DF80020114407
:10051000C9B20091401CB042F6D3012102A8226862
:100520009047314628462268904701216846226854
:100530009047012101A822689047FEBD00BFFEE759
:1005400010B5024801F027F910BD00003805002061
:1005500010B5024801F01FF910BD00006005002031
:1005600010B588B0044601F081FF00EE100AB8EE25
:10057000400ADFEDFE0A80EE201AFD4880ED001AE9
:10058000012C6FD0042C04D0052C6CD0062C6BD120
:10059000FCE0F8480078012867D1F74890ED010A9F
:1005A000F648D0ED000A30EE600AF34880ED010A0B
:1005B00090ED090AF148D0ED000A30EE600AEE48ED
:1005C00080ED090A90ED110AEC48D0ED000A30EEFA
:1005D000200AE94880ED110A90ED190AE748D0EDAC
:1005E000000A30EE200AE44880ED190A90ED010A75
:1005F000F3EE000AB4EEE00AF1EE10FA04DDB3EE19
:10060000000A80ED010A0FE0DB4890ED010AFBEEE5
:10061000000AB4EEE00AF1EE10FA04D2BBEE000AD2
:1006200080ED010A00E000BFD34890ED090AF3EE27
:10063000000AB4EEE00AF1EE10FA04DDB3EE000AAF
:1006400080ED090A13E0CC4890ED090AFBEE000AA0
:10065000B4EEE00AF1EE10FA08D2BBEE000A80ED2B
:10066000090A04E069E090E061E13EE000BFC248B1
:1006700090ED110AF3EE000AB4EEE00AF1EE10FA82
:1006800004DDB3EE000A80ED110A0FE0BA4890EDE8
:10069000110AFBEE000AB4EEE00AF1EE10FA04D201
:1006A000BBEE000A80ED110A00E000BFB24890EDF9
:1006B000190AF3EE000AB4EEE00AF1EE10FA04DDD6
:1006C000B3EE000A80ED190A0FE0AB4890ED190A6D
:1006D000FBEE000AB4EEE00AF1EE10FA04D2BBEE33
:1006E000000A80ED190A00E000BF6946DFEDA40AA8
:1006F000A1489F4A92ED000A00F0DCFB02A9DFED61
:10070000A10A9D4820309A4A92ED000A00F0D2FBDF
:1007100004A9DFED9D0A98484030954A92ED000A01
:1007200000F0C8FB06A9DFED990A93486030904AB3
:1007300092ED000A00F0BEFBFAE06946DFED900A98
:100740008D488B4A92ED000A00F0B4FB02A9DFED60
:100750008E0A89482030864A92ED000A00F0AAFBF2
:1007600004A9DFED890A84484030814A92ED000AED
:1007700000F0A0FB06A9DFED820A7F4860307C4ACA
:1007800092ED000A00F096FBD2E000BF79480078B5
:10079000012874D1784890ED010A7848D0ED000A1C
:1007A00030EE600A744880ED010A90ED090A734842
:1007B000D0ED000A30EE600A6F4880ED090A90ED36
:1007C000110A6E48D0ED000A30EE200A6A4880ED2A
:1007D000110A90ED190A6948D0ED000A30EE200A9E
:1007E000654880ED190A90ED010AF3EE000AB4EEB7
:1007F000E00AF1EE10FA04DDB3EE000A80ED010A22
:100800000FE05D4890ED010AFBEE000AB4EEE00A4D
:10081000F1EE10FA04D2BBEE000A80ED010A00E00E
:1008200000BF554890ED090AF3EE000AB4EEE00A65
:10083000F1EE10FA04DDB3EE000A80ED090A0FE0D4
:100840004D4890ED090AFBEE000AB4EEE00AF1EE25
:1008500010FA04D2BBEE000A80ED090A00E000BFE6
:10086000454890ED110AF3EE000AB4EEE00AF1EE0D
:1008700010FA05DDB3EE000A80ED110A10E02EE05B
:100880003D4890ED110AFBEE000AB4EEE00AF1EEED
:1008900010FA04D2BBEE000A80ED110A00E000BF9E
:1008A000354890ED190AF3EE000AB4EEE00AF1EED5
:1008B00010FA04DDB3EE000A80ED190A0FE02E48AD
:1008C00090ED190AFBEE000AB4EEE00AF1EE10FA20
:1008D00004D2BBEE000A80ED190A00E000BF6946B1
:1008E000DFED270A2448224A92ED000A00F0E2FADE
:1008F00002A9DFED250A204820301D4A92ED000AAA
:1009000000F0D8FA04A9DFED200A1B484030184A4D
:1009100092ED000A00F0CEFA06A9DFED190A16489A
:100920006030134A92ED000A00F0C4FA00E000BF04
:1009300000BF002015E0694601EBC00191ED000AFF
:10094000134901EB800181ED000A694601EBC0010A
:1009500091ED010A0F4901EB800181ED000A411C74
:10096000C8B20428E7DB08B010BD000000007A44DC
:100970001C050020C4000020EC5A0020F0000020DC
:100980000AD7233C3D0A573E5C8F023F8FC2353F5A
:10099000AC5B0020BC5B002010B504460948007821
:1009A00068B109480078A0420AD007F0BDFD0648AA
:1009B000047001200549087007F0E0FD00E010BD5B
:1009C00000BFFCE7300500200805002010050020CE
:1009D00070B52DED048B04460D461646B5F90000A2
:1009E000A0F5806000EE100AB8EEC00ADFEDC00A84
:1009F00080EE201AB0EE418AB5F90200A0F58060C1
:100A000000EE100AB8EEC00ADFEDB90A80EE201A37
:100A1000F0EE418AB5F90400A0F5806000EE100AFE
:100A2000B8EEC00ADFEDB20A80EE201AB0EE419AAD
:100A3000B5F90600A0F5806000EE100AB8EEC00A15
:100A4000DFEDAB0A80EE201AF0EE419A052E05D0BC
:100A5000042E03D0012E01D0062E71D1B5F900006D
:100A6000B0F5806F6DD1B5F90200B0F5806F68D137
:100A700039EE890AF2EE040A20EE200A84ED010A1A
:100A800039EE890AF2EE040A20EE200A84ED090A02
:100A900039EEC90AF2EE040A20EE200A84ED110AAA
:100AA00039EEC90AF2EE040A20EE200A84ED190A92
:100AB00094ED010AF2EE040AB4EEE00AF1EE10FA47
:100AC00004DDB2EE040A84ED010A0EE094ED010AA1
:100AD000FAEE040AB4EEE00AF1EE10FA04D2BAEE2D
:100AE000040A84ED010A00E000BF94ED090AF2EE69
:100AF000040AB4EEE00AF1EE10FA04DDB2EE040AE4
:100B000084ED090A0EE094ED090AFAEE040AB4EE47
:100B1000E00AF1EE10FA04D2BAEE040A84ED090AF2
:100B200000E000BF94ED110AF2EE040AB4EEE00A10
:100B3000F1EE10FA06DDB2EE040A84ED110A10E0BF
:100B4000D0E02BE094ED110AFAEE040AB4EEE00ACC
:100B5000F1EE10FA04D2BAEE040A84ED110A00E0B4
:100B600000BF94ED190AF2EE040AB4EEE00AF1EEC9
:100B700010FA04DDB2EE040A84ED190AB2E094ED35
:100B8000190AFAEE040AB4EEE00AF1EE10FA04D201
:100B9000BAEE040A84ED190AA4E0A3E0B6EE000A56
:100BA00084ED050AB6EE000A84ED0D0AB6EE000AE1
:100BB00084ED150AB6EE000A84ED1D0A38EE880AA7
:100BC000F1EE000A20EE200A84ED010A38EE880AD0
:100BD000F1EE000A20EE200A84ED090A38EEC80A78
:100BE000F1EE000A20EE200A84ED110A38EEC80A60
:100BF000F1EE000A20EE200A84ED190A94ED010AB4
:100C0000F1EE000AB4EEE00AF1EE10FA04DDB1EE06
:100C1000000A84ED010A0EE094ED010AF9EE000AE3
:100C2000B4EEE00AF1EE10FA04D2B9EE000A84ED57
:100C3000010A00E000BF94ED090AF1EE000AB4EEEB
:100C4000E00AF1EE10FA04DDB1EE000A84ED090AC3
:100C50000EE094ED090AF9EE000AB4EEE00AF1EEB6
:100C600010FA04D2B9EE000A84ED090A00E000BFD0
:100C700094ED110AF1EE000AB4EEE00AF1EE10FA7A
:100C800004DDB1EE000A84ED110A0EE094ED110AC4
:100C9000F9EE000AB4EEE00AF1EE10FA04D2B9EE71
:100CA000000A84ED110A00E000BF94ED190AF1EE8C
:100CB000000AB4EEE00AF1EE10FA04DDB1EE000A2B
:100CC00084ED190A0EE094ED190AF9EE000AB4EE6B
:100CD000E00AF1EE10FA04D2B9EE000A84ED190A26
:100CE00000E000BF3046FFF757FEBDEC048B70BD3F
:100CF0000000254470B505460C4669480078112867
:100D00000AD1684908700720FFF746FE06F002FA8C
:100D100000206549087070BD61480078122803D032
:100D20005F480078132809D15D4800785D49087054
:100D300006F006FB0720FFF72FFEECE706F000FBAE
:100D4000B4F90000B0F5806F29D1B4F90200B0F514
:100D5000806F24D1B4F90400B0F5806F1FD1B4F9CD
:100D60000600B0F5806F1AD1052006F023FCB4F917
:100D70000000B0F5806F11D1B4F90200B0F5806FBA
:100D80000CD1B4F90400B0F5806F07D1B4F90600B6
:100D9000B0F5806F02D10720FFF7FEFDBBE74148A9
:100DA00000783F490978884214D03D4806784FF4CE
:100DB000FA7006F0FFFB3B48007839490978884211
:100DC00007D037480078B04203D13548007835491C
:100DD000087000BFB4F90800B0F5C86F09DD3348EA
:100DE00090ED020A324880ED000A01202E49087079
:100DF00007E0B4F90800B0F5C87F02DA00202A49FC
:100E0000087007F091FB2748007831280CD006DCE9
:100E1000212831D022283BD023283AD132E0322871
:100E20000ED0332835D105E0042221462846FFF7AD
:100E3000CFFD2FE0052221462846FFF7C9FD29E016
:100E4000B4F90200B0F5C86F08DDB4F90600B0F5DA
:100E5000C86F03DD0A20FFF79FFD0CE0B4F9020024
:100E6000B0F5C87F07DAB4F90600B0F5C87F02DA3A
:100E70000920FFF791FD0DE0012221462846FFF7EA
:100E8000A7FD07E0062221462846FFF7A1FD01E065
:100E900000E000BF00BF07F071FB00BF3BE70000B0
:100EA00031050020D4000020C4000020105A00208A
:100EB0002001002070B52DED048BF0EE408A044631
:100EC000B0EE609A0D4694ED010AB5EEC00AF1EE5F
:100ED00010FA04D294ED010AB1EE400A01E094ED5B
:100EE000010AB0EE408A5548007801280BD05348DB
:100EF0000078022807D051480078032803D04F48D3
:100F00000078042807D184ED079A4C480078401CEB
:100F10004A49087002E0002048490870C4ED068A7A
:100F200094ED070AD4ED050A94ED061A38EEC11ABD
:100F300000EE810A84ED070AD4ED070AB0EE600ADC
:100F4000F7EE000A05F020FE84ED070A94ED070A8B
:100F5000D4ED040AB4EEE00AF1EE10FA28D8F0EE6F
:100F6000000A88EE200A94ED071AD4ED041AC1EEA7
:100F7000210A10EE880A85ED000A94ED070ADFEDDC
:100F8000300A20EE200AD4ED040A80EE201AF0EE9A
:100F9000419AB0EE690A05F04FFED4ED000A94EDD7
:100FA000021AB1EE411A41EE000AC5ED010A2EE027
:100FB00094ED070AD4ED040A30EE600AD4ED040A79
:100FC000B7EE001A71EE600A80EE201AF0EE419A38
:100FD000F0EE000A88EE200AF1EE690A00EE880AB7
:100FE00085ED000ADFED160A69EEA00AB0EE600A90
:100FF00005F022FED4ED000A94ED031A41EE000A3A
:10100000B7EE000A80EE801A85ED011A00BF94ED5C
:10101000010AB5EEC00AF1EE10FA09D295ED000A08
:10102000B1EE400A85ED000A01200649087002E091
:10103000002004490870BDEC048B70BD1005002031
:10104000DB0F4940090500200FB438B50E9C0E484F
:10105000046000200C498860C86008200861FF20F7
:101060000A49087048708870C870087148718871A2
:10107000FD20C8716B460A46034904A800F075F9C3
:1010800038BC5DF814FB0000A0520020B600002020
:1010900010B5044800F0E8FE2020034981F839002B
:1010A00010BD00003C0700205C06002010B502487F
:1010B00000F0DAFE10BD00009C07002010B50248C9
:1010C00000F0D2FE10BD0000DC06002010B5024882
:1010D00000F0CAFE10BD0000DC06002001460878C2
:1010E00010381823B0FBF3F20848805CC865032A67
:1010F00005D908686FF30900001D886503E00868DA
:101100006FF309008865886D70470000409A0008F9
:10111000014600208A6A8B69CBB932B1012A0DD011
:10112000022A03D0032A10D10EE000BFCB6A03F0DD
:101130008073B3F1807F00D1012007E0CB6AB3F167
:10114000C07F00D1012001E000E000BF34E08B69E6
:10115000B3F5005F1AD132B1012A07D0022A03D0B9
:10116000032A11D10AE000BF01200EE0CB6A03F090
:101170008073B3F1807F00D1012006E0CB6AB3F128
:10118000C07F00D1012000E000BF15E032B1012A8C
:1011900005D0022A04D0032A0CD103E000BF00BF0F
:1011A000012008E0CB6A03F08073B3F1807F00D1A7
:1011B000012000E000BF00BF704730B5046824681C
:1011C00024F4802405682C60046863608468402CE3
:1011D00004D10468A2600468E16003E00468A160CF
:1011E0000468E26030BD70477047000038B50546BE
:1011F0000C460A490094CA882B460868802107F0EB
:10120000D5F80649C9880819C11700EB5161C91101
:10121000A0EBC111014AD18038BD00003C0800207C
:101220000FB438B50E9C0E48046000200C4988604D
:10123000C86008200861FF200A490870487088705B
:10124000C870087148718871FC20C8716B460A46E5
:10125000034904A800F089F838BC5DF814FB0000CD
:10126000A0520020B600002072B600BFFEE70000CA
:1012700010B503460C46A078617840EA01202B495E
:1012800001EB43114860E0780001217940EA211028
:10129000264901EB431188606079217901F00F0143
:1012A00040EA0120214901EB4311C86020781F4921
:1012B00001EB431108701D4901EB431148681021EF
:1012C000F0EE090AB8EE090A07F0B2F8174800EB89
:1012D000431080ED050A154901EB431188680C2184
:1012E000DFED130A9FED130A07F0A2F80F4800EB99
:1012F000431080ED060A0D4901EB4311C8680C212B
:10130000DFED0D0A9FED0D0A07F092F8074800EB9C
:10131000431080ED070AA079044901EB43110874DA
:10132000E079024901EB4311487410BD045C0020D0
:1013300000003442000034C200005842000058C28D
:1013400010B5024692F82030012B01D0022B06D1B5
:1013500010684069084314686061002010BD506A3D
:1013600040F4802050620120F8E7F0B504460D46B5
:101370001E4694F8207020688368A86800B900E0D1
:1013800000BF012F01D0022F7CD103F0806030B963
:1013900003F0006018B903F08050002873D0C3F345
:1013A0000161022905D9606A40F4000060620120F1
:1013B000F0BD012088403060A86860B9B5F800C071
:1013C000E86840EA4C5C206800F5C07000EB011052
:1013D000C0F800C00FE0D5E901C040EACC00D5F864
:1013E0000CC040EA0C00D4F800C00CF5C07C0CEB3B
:1013F000011CCCF80000D5F810C0206800F5C070C2
:1014000000EB0110C0F804C0287D01280ED120682F
:1014100000F5C07000EB0110406840F4807C20684B
:1014200000F5C07000EB0110C0F804C0D0790006D0
:1014300092F806C040EA0C4092F805C040EA0C2C35
:1014400010794CEA000C206800F5C07000EB011028
:10145000C0F80CC0D078000692F802C040EA0C40F8
:1014600092F801C040EA0C2092F800C040EA0C005B
:10147000D4F800C00CF5C07C0CEB011CCCF80800C3
:10148000206801E016E00FE000F5C07000EB0110ED
:10149000006840F0010C206800F5C07000EB0110FE
:1014A000C0F800C0002083E7606A40F4001060626A
:1014B00001207DE7606A40F480206062012077E7C8
:1014C000F0B504460A46216894F82050012D01D059
:1014D000022D7ED1424901F50071086840F00100FB
:1014E0000860086820F47C5008600868566A40EA82
:1014F00006200860107D00F01F06012000FA06F3A8
:10150000C8699843C861A1F50071D069C8B9D1F81C
:101510000C029843C1F80C02908880B2968940EA88
:10152000064601F51070576940F83760108880B2A0
:10153000168940EA064601F51070576900EBC700AE
:101540004660D069012819D1D1F80C021843C1F8BE
:101550000C02908880B2168840EA064601F51070A9
:10156000576940F83760908980B2168940EA06468C
:1015700001F51070576900EBC7004660906928B903
:10158000D1F804029843C1F8040204E0D1F804023F
:101590001843C1F80402106928B9D1F8140298431D
:1015A000C1F8140204E0D1F814021843C1F814027F
:1015B000106A012804D1D1F81C021843C1F81C029A
:1015C000D1F8000220F00100C1F800020020F0BDB7
:1015D000FFE7606A40F4802060620120F7E70000C6
:1015E00000640040704770B5044694F82050012D07
:1015F00001D0022D7DD151B92068C06800F00300F0
:1016000080B9606A40F400106062012070BD2068FB
:10161000006900F0030028B9606A40F400106062BD
:101620000120F3E7206800F5D87000EB0110006896
:1016300000F004009060906840B9206800F5D87010
:1016400000EB01100068400D106007E0206800F515
:10165000D87000EB01100068C0085060206800F5E9
:10166000D87000EB0110006800F00200D060206824
:1016700000F5D87000EB0110406800F00F00106119
:10168000206800F5D87000EB0110406800F47F403E
:10169000000A9061206800F5D87000EB01104068E6
:1016A000000C5061206800F5D87000EB01108068D4
:1016B0001870206800F5D87000EB0110806800F405
:1016C0007F40000A5870206800F5D87000EB0110C8
:1016D000806800F47F00000C9870206800F5D870D6
:1016E00000EB01108068000ED870206800F5D870FB
:1016F00000E02FE000EB0110C0681871206800F5D1
:10170000D87000EB0110C06800F47F40000A5871E7
:10171000206800F5D87000EB0110C06800F47F006D
:10172000000C9871206800F5D87000EB0110C068BB
:10173000000ED87131B92068C06840F020002668DA
:10174000F06005E02068006940F020002668306104
:1017500000205BE7606A40F480206062012055E76A
:101760000146002091F82020012A01D0022A11D13F
:101770000B689B6803F0806303B1401C0B689B6897
:1017800003F0006303B1401C0B689B6803F08053B7
:1017900003B1401C70472DE9F05F04460025206826
:1017A00046692068D0F80490206887682068D0F8DF
:1017B0000CA02068D0F810B02068D0F8188006F08F
:1017C0000100002855D007F00100C0B101202168B8
:1017D000886007F0020018B1204600F0D2FA0EE04F
:1017E00007F0040010B145F4006508E007F00800B8
:1017F00010B145F4805502E0204600F0C1FA07F42C
:101800008070C8B14FF480702168886007F4007060
:1018100018B1204600F0B7FA0EE007F4806010B16E
:1018200045F4005508E007F4006010B145F4804528
:1018300002E0204600F0A6FA07F48030C8B14FF469
:1018400080302168886007F4003018B1204600F02D
:101850009CFA0EE007F4802010B145F4004508E042
:1018600007F4002010B145F4803502E0204600F076
:101870008BFA06F0080038B10AF0100020B145F4E8
:10188000007510202168C86006F0040040B10AF01D
:10189000080028B108202168C860204600F00EFA30
:1018A00006F0020038B12068C06800F0030010B1F3
:1018B000204600F005FA06F0400038B10BF01000A9
:1018C00020B145F4806510202168086106F02000F1
:1018D00040B10BF0080028B10820216808612046BB
:1018E00000F01CFA06F0100038B12068006900F022
:1018F000030010B1204600F012FA06F4003040B1A7
:1019000009F0100028B1102021684860204600F03E
:1019100007FA06F4803040B109F0080028B1082029
:1019200021684860204600F031FA06F4004088B390
:1019300009F0040078B306F4807020B108F00100CB
:1019400008B145F0010506F4007020B108F002006E
:1019500008B145F0020506F4806020B108F00400EB
:1019600008B145F0040506F40060A0B108F070006D
:1019700088B108F07000402817D006DC10280BD082
:1019800020280CD0302819D10CE0502810D0602825
:1019900014D110E01DE019E045F008050FE045F016
:1019A00010050CE045F0200509E045F0400506E093
:1019B00045F0800503E045F4807500E000BF00BFFE
:1019C0002068806920F07000216888610420216807
:1019D00048602DB1606A284360622046FFF702FE2E
:1019E000BDE8F09F70B504460CB9012070BD94F8B5
:1019F000200010B9204600F0AFF82068006820F001
:101A000002002168086000F031FD05460DE000F09D
:101A10002DFD401B0A2808D9606A40F4003060623E
:101A2000052084F820000120E0E72068406800F0ED
:101A300002000028EBD12068006840F00100216816
:101A4000086000F013FD05460DE000F00FFD401B9F
:101A50000A2808D9606A40F400306062052084F8E2
:101A600020000120C2E72068406800F00100002843
:101A7000EBD0207E012806D12068006840F080006D
:101A80002168086005E02068006820F08000216877
:101A90000860607E012806D12068006840F04000A0
:101AA0002168086005E02068006820F04000216897
:101AB0000860A07E012806D12068006840F0200060
:101AC0002168086005E02068006820F02000216897
:101AD0000860E07E012806D12068006820F0100030
:101AE0002168086005E02068006840F01000216867
:101AF0000860207F012806D12068006840F00800B7
:101B00002168086005E02068006820F0080021686E
:101B10000860607F012806D12068006840F004005A
:101B20002168086005E02068006820F00400216852
:101B30000860D4E902010843216908436169084348
:101B40006168491E08432168C86100206062012065
:101B500084F82000002049E710B586B0044614211F
:101B600001A8FEF7EBFB4F492068884241D14E485F
:101B70000068401C4C4908600846006801280FD1E5
:101B800000BF002000904948006840F000704749BD
:101B900008600846006800F00070009000BF00BFB9
:101BA00000BF0020009041481038006840F0080055
:101BB0003E49103908600846006800F008000090AF
:101BC00000BF00BF0320019002200290002003907C
:101BD000032004900920059001A9354800F038FB46
:101BE00000220521142000F069FF142000F056FFA8
:101BF00055E030492068884251D100BF0020009054
:101C00002A48006840F0806028490860084600685B
:101C100000F08060009000BF00BF23480068401CB7
:101C2000214908600846006801280FD100BF002044
:101C300000901E48006840F000701C49086008468B
:101C4000006800F00070009000BF00BF00BF0020DF
:101C5000009016481038006840F00200134910390F
:101C600008600846006800F00200009000BF00BF56
:101C70004FF4405001900220029000200390032076
:101C800004900920059001A90B4800F0E1FA002218
:101C90000521402000F012FF402000F0FFFE06B0BA
:101CA00010BD0000006400402000002040380240C9
:101CB000000C024000680040000402407047000031
:101CC00010B58AB004461349206888420DD101AB93
:101CD00003AA00212046FFF786FC0398072804D8B2
:101CE000039988B201A9FFF7C3FA0B49206888421B
:101CF0000DD101AB03AA00212046FFF774FC039825
:101D0000052804D8039988B201A9FFF7B1FA0AB0EF
:101D100010BD00000064004000680040704770473C
:101D2000704770B5044694F82000012822D10220A3
:101D300084F820002068006820F001002168086015
:101D400000F094FB05460DE000F090FB401B0A28D4
:101D500008D9606A40F400306062052084F82000F1
:101D6000012070BD2068406800F001000028EBD120
:101D70006062F6E7606A40F4002060620120F0E7EC
:101D8000704770477047704770477047704770B52D
:101D90000446A56D00F06AFB064694F8350002285B
:101DA00008D08020606500BF002084F8340000BFA8
:101DB000012070BD2068006820F0160021680860CE
:101DC0002068406920F0800021684861206C08B9D3
:101DD000A06C28B12068006820F008002168086025
:101DE0002068006820F00100216808600FE000F022
:101DF0003DFB801B05280AD92020606500BF00201C
:101E000084F8340000BF032084F83500D1E720684F
:101E1000006800F001000028E9D194F85C103F2030
:101E20008840A86000BF002084F8340000BF012073
:101E300084F835000020BCE7014691F835000228FF
:101E400003D08020486501207047052081F83500C7
:101E50000868006820F001000A6810600020F3E7BD
:101E6000014691F835007047F8B50446002000900F
:101E70008C4800684FF41651B0FBF1F7A56D2E6841
:101E800094F85C1008208840304098B120680068C1
:101E900000F0040070B12068006820F004002168A0
:101EA000086094F85C1008208840A860606D40F0DD
:101EB0000100606594F85C1001208840304068B1F2
:101EC0002068406900F0800040B194F85C10012067
:101ED0008840A860606D40F00200606594F85C1076
:101EE00004208840304068B12068006800F002009B
:101EF00040B194F85C1004208840A860606D40F008
:101F00000400606594F85C1010208840304078B37D
:101F10002068006800F0080050B394F85C101020AE
:101F20008840A8602068006800F4802080B12068A4
:101F3000006800F4002028B9206CC8B12046216C4C
:101F4000884715E0A06C98B12046A16C88470FE047
:101F50002068006800F4807028B92068006820F0CC
:101F6000080021680860206C10B12046216C884769
:101F700094F85C10202088403040002865D020680C
:101F8000006800F0100000285FD094F85C1020205A
:101F90008840A86094F83500052828D1206800689A
:101FA00020F01600216808602068406920F0800059
:101FB00021684861206C08B9A06C28B120680068CD
:101FC00020F008002168086094F85C103F208840E9
:101FD000A86000BF002084F8340000BF012084F80E
:101FE0003500206D10B12046216D8847F8BD20686E
:101FF000006800F4802080B12068006800F40020B0
:1020000028B9606C10B12046616C88471DE0E06B18
:10201000D8B12046E16B884717E02068006800F4DB
:10202000807068B92068006820F01000216808609E
:1020300000BF002084F8340000BF012084F8350080
:10204000E06B10B12046E16B8847606D38B3606D7E
:1020500000F00100F0B1052084F835002068006828
:1020600020F001002168086000BF0098401C00902B
:10207000B84200D905E02068006800F0010000289F
:10208000F3D100BF00BF002084F8340000BF01205E
:1020900084F83500E06C10B12046E16C884700BF41
:1020A000A4E70000300000202DE9F041044600259F
:1020B00000F0DCF9074614B90120BDE8F081606A40
:1020C00000B100BF00BF002084F8340000BF022030
:1020D00084F835002068006820F00100216808605D
:1020E0000AE000F0C3F9C01B052805D9202060656F
:1020F000032084F83500E0E72068006800F0010064
:102100000028EED12068056821480540D4E9010186
:102110000843E16808432169084361690843A169EC
:102120000843E1690843216A08430543606A0428BB
:1021300003D1D4E90B0108430543206805602068FA
:10214000456925F00705606A0543606A04280DD1DA
:10215000A06A0543E06A48B12046FEF7D9FF28B1DE
:1021600040206065012084F83500A6E720684561BD
:102170002046FEF7B3FF064694F85C103F208840E7
:10218000B06000206065012084F83500002094E7ED
:102190003F8010F02DE9F04704460D4616461F46D5
:1021A0004FF00008D4F8589000BF94F8340001288C
:1021B00002D10220BDE8F087012084F8340000BF7E
:1021C00094F83500012825D1022084F8350000203C
:1021D00060653B46324629462046FEF7EEFF94F8FE
:1021E0005C103F208840C9F808002068006840F073
:1021F000160021680860206C28B12068006840F053
:102200000800216808602068006840F0010021682B
:10221000086006E000BF002084F8340000BF4FF0E3
:1022200002084046C6E7000070B5044600F01EF9FB
:1022300006462546681C10B104480078054400BFD6
:1022400000F014F9801BA842FAD370BD2C000020C6
:10225000F8B502460B460025002400200021E6E0E8
:10226000012606FA01F51E6806EA0504AC4273D1A0
:102270005E68012E08D05E68022E05D05E68112EC1
:1022800002D05E68122E13D190684F000326BE4024
:10229000B0434F00DE68BE40304390605068012676
:1022A0008E40B0431E79C6F300168E403043506016
:1022B000D0684F000326BE40B0434F009E68BE402A
:1022C0003043D0605E68022E02D05E68122E13D1B9
:1022D000CF0802F1200656F827004E07F70E0F260A
:1022E000BE40B0434F07FF0E1E69BE403043CF08CB
:1022F00002F1200646F8270010684F000326BE4072
:10230000B0431E7906F003064F00BE403043106014
:102310005E6806F08056B6F1805FA8D100BF002647
:102320000096454E366846F48046434F3E603E4632
:10233000366806F48046009600BF00BF3F4E8F0807
:1023400056F827008E07370F0F26BE40B0433C4E8D
:10235000B24202D100262EE068E03A4EB24201D1EC
:10236000012628E0384EB24201D1022623E0374E42
:10237000B24201D103261EE0354EB24201D10426FD
:1023800019E0344EB24201D1052614E0324EB24279
:1023900001D106260FE0314EB24201D107260AE0F4
:1023A0002F4EB24201D1082605E02E4EB24201D195
:1023B000092600E00A268F073F0FBE4030431F4E1C
:1023C0008F0846F82700284E3068A0435E6806F460
:1023D0008036B6F5803F00D12043234E3060361D55
:1023E0003068A0435E6806F40036B6F5003F00D1C1
:1023F00020431D4E361D3060361D3068A0435E6898
:1024000006F48016B6F5801F00D12043164E08361C
:102410003060361D3068A0435E6806F40016B6F5DD
:10242000001F00D12043104E0C363060491C10298B
:10243000FFF416AFF8BD00004438024008380140F0
:10244000000002400004024000080240000C02406C
:10245000001002400014024000180240001C02401C
:102460000020024000240240003C01400148006876
:102470007047000024000020024692F83D0020280A
:102480001ED1242082F83D001068006820F0010071
:10249000136818601068406A20F0100013685862D2
:1024A0001068406A0843136858621068006840F07A
:1024B000010013681860202082F83D00002070475A
:1024C0000220FCE710B502460B46002192F83D00C1
:1024D00020281DD1242082F83D001068006820F0DB
:1024E0000100146820601068406A81B221F00F0179
:1024F00041EA030081B2106841621068006840F050
:10250000010014682060202082F83D00002010BDEA
:102510000220FCE7704770472DE9F04705464FF071
:10252000000828684668D5F82C9095F83E7095F814
:102530003DA0102F01D0402F7FD12868D0F81880FF
:102540002868446904F0010060B9B9F52A0F02D087
:10255000B9F12A4F01D1012000E00020012801D16A
:10256000BDE8F08704F0010048B1C6F3402030B167
:10257000284601F0D5FB284602F030F8B4E0C4F359
:10258000C00030B1C6F3402018B1284601F0DDFE8E
:10259000AAE0C4F3400030B1C6F3402018B1284689
:1025A00001F0E8FEA0E0C8F3800028B32868406886
:1025B00000F40060B0F5006FE0D0C4F3C01048B183
:1025C000C6F3802030B1C4F3800018B9284601F06A
:1025D00050FE89E0C4F380000028CFD0C6F340202D
:1025E0000028CBD0102F03D1284601F0FDFD7BE061
:1025F000284602F042F877E02868406800F400605E
:10260000B0F5006F70D0C4F3801050B1C6F38020D5
:1026100038B1C4F3800020B9284601F074FD63E0AE
:102620000BE0C4F3800000285ED0C6F340200028F1
:102630005AD0284601F0D4FC56E0286C10B1286826
:10264000446904E02868D0F8188028684469C4F315
:10265000400060B1C6F3402048B1286C10B1286832
:10266000D0F818804146284602F0C3F83CE0C4F395
:10267000001030B1C6F3402018B1284602F0ECF843
:1026800032E0BAF1210F02D0BAF1290F16D1C4F30A
:10269000C01048B1C6F3802030B1C4F3800018B92F
:1026A000284602F083F81FE0C4F38000E0B1C6F3CF
:1026B0004020C8B1284602F06CF815E0C4F3801041
:1026C00048B1C6F3802030B1C4F3800018B9284661
:1026D00002F03CF808E0C4F3800028B1C6F34020C3
:1026E00010B1284602F025F800BF39E77047000016
:1026F00070B504460CB9012070BD94F83D0028B9AE
:10270000002084F83C00204600F0E0F8242084F803
:102710003D002068006820F0010021680860206802
:10272000006840F40040216808602068006820F4D8
:1027300000402168086000F043FB05465C49606882
:10274000884206D85B48854201D2012007E000207C
:1027500005E05948854201D2012000E0002001280F
:1027600000D1C9E75548B5FBF0F62068406820F075
:102770003F003043216848604D496068884201D875
:10278000701C07E04FF4967070434FF47A71B0FB01
:10279000F1F0401C2168096A21F03F0108432168DB
:1027A000086243496068884214D8681E616849001D
:1027B000B0FBF1F0401CC0F30B00042801D2042050
:1027C0003DE0681E61684900B0FBF1F0401CC0F3B9
:1027D0000B0034E0A06838B9681E616801EB410164
:1027E000B0FBF1F0401C0AE0681E616801EBC10219
:1027F00002EB0111B0FBF1F0401C40F48040C0F34B
:102800000B0008B901201AE0A06848B9681E616889
:1028100001EB4101B0FBF1F0401CC0F30B000CE0F8
:10282000681E616801EBC10202EB0111B0FBF1F01F
:10283000401CC0F30B0040F4804040F4004021688D
:10284000C9694CF6FF72914308432168C861D4E915
:10285000070108432168096821F0C0010843216885
:102860000860D4E9031008432168896848F2FF3200
:102870009143084321688860D4E905010843216831
:10288000C96821F0FF0108432168C860206800681A
:1028900040F001002168086000202064202084F8B6
:1028A0003D000020206384F83E0000BF24E70000C4
:1028B000A086010080841E0000093D0040420F00F8
:1028C00070477047704770477047000010B586B07A
:1028D0000446142101A8FDF731FD1F4920688842F4
:1028E00037D100BF002000901C48006840F0200055
:1028F0001A4908600846006800F02000009000BFF8
:1029000000BF0320019012200290012003900320B9
:1029100004900420059001A91148FFF799FC00BF1D
:10292000002000900D481030006840F480000B49F2
:10293000103108600846006800F48000009000BF75
:1029400000BF00220521212000F0B8F8212000F06E
:10295000A5F806B010BD0000005800403038024015
:102960000014024070477047034800680349097823
:102970000844014908607047240000202C00002012
:1029800010B50D48006840F400700B490860084617
:10299000006840F4806008600846006840F4807079
:1029A0000860032000F0C8F8002000F007F800F0ED
:1029B0004BF8002010BD0000003C024070B588B00C
:1029C00004460025002600222146362000F076F835
:1029D000362000F063F800BF002001901648006820
:1029E00040F01000144908600846006800F010002C
:1029F000019000BF00BF02A903A800F0B9F900F0E0
:102A0000DFF945000D48B5FBF0F0461E0C480D49B6
:102A1000086040F2E7310B48C16046600021016167
:102A2000816000F08BFC20B9064800F0A2FC08B0E1
:102A300070BD0120FBE700004038024040420F001B
:102A400000100040FC07002008B500BF00200090E7
:102A50001148006840F480400F490860084600684B
:102A600000F48040009000BF00BF00BF0020009035
:102A7000081F006840F08050091F08600846006881
:102A800000F08050009000BF00BF00220F21901E78
:102A900000F014F808BD0000443802400146084622
:102AA000002809DB00F01F0301229A4043099B0024
:102AB00003F1E023C3F8002100BF70472DE9F05F68
:102AC00080460D461646002703F06EFE074639463F
:102AD0002A46334601F00700C0F1070ABAF1040F95
:102AE00002D94FF0040A01E0C0F1070AD14600F113
:102AF000040ABAF1070F02D24FF0000A01E0A0F178
:102B0000030AD4464FF0010A0AFA09FAAAF1010AA7
:102B10000AEA020A0AFA0CFA4FF0010B0BFA0CFB54
:102B2000ABF1010B0BEA030B4AEA0B0421464046CA
:102B300003F042FEBDE8F09F00BF00F00702064B25
:102B400019684FF6FF031940044B0B4343EA022177
:102B5000014B196000BF70470CED00E00000FA0562
:102B600038B5002400BF002000901D48006840F0E8
:102B700080501B4908600846006800F080500090B3
:102B800000BF00BF012017490864FFF76FFC04462F
:102B900007E0FFF76BFC001BB0F57A7F01D903203B
:102BA00038BD1148406800F48030B0F5803FF0D166
:102BB00001200C494864FFF759FC044607E0FFF781
:102BC00055FC001BB0F57A7F01D90320E8E70648E1
:102BD000406800F40030B0F5003FF0D10020DFE79E
:102BE0004038024000000E420070004070B50446BC
:102BF0000D460CB9012070BD5848006800F00F0068
:102C0000A84209D255490D700846006800F00F002F
:102C1000A84201D00120EEE7207800F0020002284F
:102C20001DD1207800F00400042805D14C4800682C
:102C300040F4E0504A490860207800F00800082875
:102C400005D14748006840F4604045490860444861
:102C5000006820F0F000A16808434149086020782E
:102C600000F00100A8B36068012807D13C4808388B
:102C70000068C0F34040B8B90120BCE76068022892
:102C800002D06068032807D1354808380068C0F3CF
:102C9000406048B90120AEE7314808380068C0F309
:102CA000400008B90120A6E72D48006820F0030085
:102CB000616808432A490860FFF7D8FB064609E027
:102CC000FFF7D4FB801B41F28831884202D90320F0
:102CD00091E707E02248006800F00C006168B0EB63
:102CE000810FEDD11D48006800F00F00A84209D9FE
:102CF0001A490D700846006800F00F00A84201D084
:102D0000012078E7207800F00400042807D1144857
:102D1000006820F4E050E168084311490860207819
:102D200000F00800082808D10D48006820F4604031
:102D3000216940EAC1000A49086000F061F80849C9
:102D40000968C1F30311074A515CC840064908608D
:102D500006480068FFF732FE00204CE7003C0240C6
:102D600008380240489A000830000020280000205F
:102D70000F2202600D4A126802F0030242600B4A01
:102D8000126802F0F0028260084A126802F4E0520F
:102D9000C260064A126802F46042D2080261044A24
:102DA000126802F00F020A60704700000838024003
:102DB000003C0240014800687047000030000020DD
:102DC00000B5FFF7F7FF04490968C1F38221034A00
:102DD000515CC84000BD000008380240589A000805
:102DE00000B5FFF7E7FF04490968C1F34231034A20
:102DF000515CC84000BD000008380240589A0008E5
:102E00002DE9F047002400250026A146254800684A
:102E100000F00C0020B1042805D008283AD105E0C4
:102E2000DFF8849039E0DFF8849036E01D48001F19
:102E3000006800F03F041B48001F006800F4800099
:102E400078B11A481749091F0968C1F38811A0FB16
:102E500001700146224600233846FDF725FA054653
:102E60000EE011480F49091F0968C1F38811A0FB42
:102E700001700146224600233846FDF715FA054643
:102E80000848001F0068C0F30140401C4600B5FB25
:102E9000F6F902E0DFF8109000BF00BF4846BDE839
:102EA000F0870000083802400024F400001BB7003F
:102EB000F8B504460CB90120F8BD207800F00100F7
:102EC000002874D0F948006800F00C0004280DD0E8
:102ED000F648006800F00C00082813D1F348001FE2
:102EE000006800F48000B0F5800F0BD1EF4808387F
:102EF0000068C0F34040002859D06068002856D1CF
:102F00000120D9E700BF6068B0F5803F08D1E748ED
:102F10000838006840F48030E449083908601EE051
:102F20006068B0F5A02F0DD1E0480838006840F483
:102F30008020DE49083908600846006840F4803087
:102F400008600CE0D9480838006820F48030D74980
:102F5000083908600846006820F48020086000BF37
:102F6000606890B1FFF782FA054606E0FFF77EFA47
:102F7000401B642801D903209EE7CC48083800682C
:102F8000C0F340400028F1D011E0FFF76FFA05468A
:102F900006E0FFF76BFA401B642801D903208BE79A
:102FA000C24808380068C0F340400028F1D12078BA
:102FB00000F0020002285FD1BC48006800F00C005D
:102FC00058B1BA48006800F00C0008281CD1B74876
:102FD000001F006800F48000B0B9B44808380068E9
:102FE000C0F3400020B1E068012801D0012063E770
:102FF000AE480838006820F0F800216940EAC100B6
:10300000AA490839086037E0E06800B30120A84900
:103010000860FFF72BFA054606E0FFF727FA401B8A
:10302000022801D9032047E7A04808380068C0F308
:1030300040000028F1D09D480838006820F0F800D2
:10304000216940EAC10099490839086014E000206C
:1030500097490860FFF70AFA054606E0FFF706FA07
:10306000401B022801D9032026E790480838006851
:10307000C0F340000028F1D1207800F008000828B3
:103080002CD16069A8B101208A490860FFF7EEF9E8
:10309000054606E0FFF7EAF9401B022801D90320A4
:1030A0000AE782486C300068C0F340000028F1D085
:1030B00014E000207F490860FFF7D8F9054606E0D4
:1030C000FFF7D4F9401B022801D90320F4E6774822
:1030D0006C300068C0F340000028F1D1207800F087
:1030E0000400042870D1002770483830006800F0D0
:1030F000805090B900BF002000906C4838300068C4
:1031000040F080506949383108600846006800F096
:103110008050009000BF00BF01276748006800F49E
:103120008070B0B96448006840F4807062490860FB
:10313000FFF79CF9054606E0FFF798F9401B0228C7
:1031400001D90320B8E65C48006800F480700028CC
:10315000F2D000BFA068012808D154486830006848
:1031600040F001005149683108601DE0A068052861
:103170000DD14E486830006840F004004B4968317A
:1031800008600846006840F0010008600CE047480D
:103190006830006820F00100444968310860084642
:1031A000006820F00400086000BFA068A8B1FFF725
:1031B0005DF9054609E0FFF759F9401B41F28831F6
:1031C000884202D9032077E626E038486830006854
:1031D000C0F340000028EED013E0FFF747F90546A2
:1031E00008E0FFF743F9401B41F28831884201D9DA
:1031F000032061E62D4868300068C0F340000028D5
:10320000EFD1012F07D129483830006820F08050D5
:1032100026493831086000BFA069002845D02348FE
:10322000006800F00C0008285DD0A069022845D194
:1032300000201F490866FFF719F9054606E0FFF769
:1032400015F9401B022801D9032035E61748083834
:103250000068C0F340600028F1D1D4E907010843B9
:10326000616A40EA81110122A06AC2EB500041EA82
:1032700000412C20005D41EA00600C49091F0860F4
:1032800001200B490866FFF7F1F8054606E0FFF755
:10329000EDF8401B022801D903200DE60348083849
:1032A0000068C0F340600028F1D03FE008380240D9
:1032B00000004742800E47420070004000201C4939
:1032C0000866FFF7D3F8054606E0FFF7CFF8401B86
:1032D000022801D90320EFE516480068C0F34060DA
:1032E0000028F2D122E0A069012800D1E4E51148CC
:1032F000001D066806F48001E069814214D106F0E1
:103300003F01206A81420FD147F6C0703040616AA8
:10331000884209D106F44031A06A814204D106F006
:103320007061E06A814201D00120C5E50020C3E55B
:1033300000004742003802407047704710B504460D
:103340000CB9012010BD94F83D0028B9002084F884
:103350003C00204600F00CF8022084F83D00211DBE
:10336000206802F0FDFC012084F83D000020E9E720
:10337000704701460868C06840F001000B68D860DB
:103380000868806800F00702062A05D0086800680F
:1033900040F001000B68186000207047704710B5BE
:1033A000044620680069C0F34000D8B12068C068B6
:1033B000C0F34000B0B16FF0020021680861012045
:1033C00020772068806900F0030018B12046FFF7DD
:1033D000E5FF05E0204600F0ADF8204600F0ABF830
:1033E0000020207720680069C0F38000D8B12068F1
:1033F000C068C0F38000B0B16FF0040021680861BC
:10340000022020772068806900F4407018B12046BF
:10341000FFF7C4FF05E0204600F08CF8204600F0DE
:103420008AF80020207720680069C0F3C000D8B176
:103430002068C068C0F3C000B0B16FF00800216818
:103440000861042020772068C06900F0030018B1EB
:103450002046FFF7A3FF05E0204600F06BF820466A
:1034600000F069F80020207720680069C0F30010A0
:10347000D8B12068C068C0F30010B0B16FF0100080
:1034800021680861082020772068C06900F4407036
:1034900018B12046FFF782FF05E0204600F04AF809
:1034A000204600F048F8002020772068006900F0EE
:1034B000010058B12068C06800F0010030B16FF021
:1034C000010021680861204600F036F82068006994
:1034D000C0F3C01058B12068C068C0F3C01030B14C
:1034E0006FF08000216808612046FFF725FF206803
:1034F0000069C0F3801058B12068C068C0F3801024
:1035000030B16FF0400021680861204600F020F8DB
:1035100020680069C0F3401058B12068C068C0F34B
:10352000401030B16FF02000216808612046FFF79D
:1035300004FF10BD7047704710B50446034920686A
:10354000884201D1FFF710FA10BD000000100040C2
:10355000704770B50446002520684069C0F3C01567
:1035600094F8390021280ED16DB12068406920F00F
:10357000800021684861206B10B1206BFEF707FCCA
:10358000204602F0BFFD20684069C0F3801594F822
:103590003A0022280ED16DB12068406920F0400029
:1035A00021684861606B10B1606BFEF7F0FB20464C
:1035B00002F088FD002070BD704700002DE9F04743
:1035C0000446206805682068C668206847694FF08F
:1035D0000008C14605F00F08B8F1000F0AD105F048
:1035E000200038B106F0200020B1204602F094FD02
:1035F000BDE8F087B8F1000F72D007F0010018B9EC
:1036000006F4907000286BD005F0010030B106F48C
:10361000807018B1E06B40F00100E06305F0040039
:1036200030B107F0010018B1E06B40F00200E06338
:1036300005F0020030B107F0010018B1E06B40F076
:103640000400E06305F0080048B106F0200010B95E
:1036500007F0010018B1E06B40F00800E063E06B98
:1036600070B305F0200028B106F0200010B120460C
:1036700002F052FD20684069C0F38019E06B00F051
:10368000080010B9B9F1000F23D0204602F01AFD4E
:103690002068406900F04000402816D12068406949
:1036A00020F0400021684861606B50B11748616BA1
:1036B0000865606BFEF7C0FB10B1606B016D884759
:1036C0000CE02046FFF778FF08E02046FFF774FF84
:1036D00004E02046FFF770FF0020E06388E7FFE783
:1036E00005F0800030B106F0800018B1204602F0ED
:1036F0005BFF7DE705F0400030B106F0400018B1F7
:10370000204602F0EFFC73E700BF71E70D60000890
:1037100010B504460CB9012010BDA06900B100E04D
:1037200000BF94F8390028B9002084F838002046FA
:1037300000F028F8242084F839002068C06820F4BC
:1037400000502168C860204602F03AFD20680069F8
:1037500020F49040216808612068406920F02A0028
:10376000216848612068C06840F400502168C86042
:103770000020E063202084F8390084F83A0000201B
:10378000CAE7000010B586B00446142101A8FCF772
:10379000D5FD80492068884239D100BF00200090C3
:1037A0007D48006840F080407B490860084600681A
:1037B00000F08040009000BF00BF00BF00200090DC
:1037C00075481038006840F01000734910390860DF
:1037D0000846006800F01000009000BF00BF4FF4E2
:1037E000C0700190022002900120039003200490F9
:1037F0000820059001A96948FEF72AFD002205214D
:103800005220FFF75BF95220FFF748F9C0E0644906
:103810002068884250D100BF002000905E48001D03
:10382000006840F010005C49091D08600846006807
:1038300000F01000009000BF00BF00BF002000900B
:1038400055481038006840F00200534910390860AC
:103850000846006800F00200009000BF00BF00BFF3
:10386000002000900846006840F00100086008460B
:10387000006800F00100009000BF00BF80200190B0
:10388000022002900020039003200490072005905E
:1038900001A94448FEF7DCFC4FF4007001900220BF
:1038A000029000200390032004900720059001A9B6
:1038B0003D48FEF7CDFC6BE03C492068884233D19F
:1038C00000BF002000903448001D006840F0200038
:1038D0003149091D08600846006800F0200000908A
:1038E00000BF00BF00BF002000902B4810380068C8
:1038F00040F040002849103908600846006800F090
:103900004000009000BF00BF4FF4844001900220AF
:10391000029000200390032004900820059001A944
:103920002348FEF795FC33E02249206888422FD1D6
:1039300000BF002000901848006840F00040164981
:1039400008600846006800F00040009000BF00BF1B
:1039500000BF0020009010481038006840F01000B0
:103960000D49103908600846006800F0100000900A
:1039700000BF00BF032001900220029000200390AE
:10398000032004900820059001A90448FEF760FC7C
:1039900006B010BD007800404038024000100240E0
:1039A00000100140000402400000024000140140E9
:1039B00000180240007C00402DE9F84304460D4603
:1039C00016461F464FF0000994F83A00202861D1AE
:1039D00005B116B90120BDE8F88300BF94F838009E
:1039E000012801D10220F6E7012084F8380000BF49
:1039F0000020E063222084F83A00FEF737FD81467C
:103A0000A685E68500BF002084F8380000BF39E0B5
:103A1000E08D401EE085A068B0F5805F1BD14B466D
:103A2000002220212046009702F0F2FD08B1032079
:103A3000D1E7A846206938B920684068C0F308007B
:103A4000A8F80000AD1C1DE020684068C0B2A8F8CE
:103A500000006D1C16E04B460022202120460097F6
:103A600002F0D6FD08B10320B5E7206920B920682F
:103A7000406805F8010B05E02068406800F07F0011
:103A800005F8010BE08D0028C2D1202084F83A000F
:103A90000020A0E702209EE777B581B004461546D6
:103AA00094F83A00202850D1029800B115B90120AD
:103AB00004B070BD00BF94F83800012801D1022085
:103AC000F6E7012084F8380000BF0298A062A585BF
:103AD0000020E063222084F83A001D48616BC8632F
:103AE0001C48616B08641C48616BC8640020616BF2
:103AF000086502AE32682368191D2B46606BFEF71D
:103B000049FB00BF002000902068006800902068FA
:103B10004068009000BF00BF00BF002084F838005C
:103B200000BF2068C06840F480702168C8602068C9
:103B3000406940F00100216848612068406940F018
:103B40004000216848610020B2E70220B0E7000091
:103B500071600008B76000082160000810B50346D6
:103B600093F83A0020282FD101B10AB9012010BDE5
:103B700000BF93F83800012801D10220F7E70120A7
:103B800083F8380000BF99629A85DA850020D863EF
:103B9000222083F83A0000BF002083F8380000BFDD
:103BA0001868C06840F480701C68E060186840695C
:103BB00040F001001C6860611868C06840F0200097
:103BC0001C68E0600020D2E70220D0E710B5044670
:103BD0001148844207D1FFF7BCFC12220F490E485E
:103BE000FFF75AFF16E00E48844209D101210D4823
:103BF000FDF7FCFA01220B492046FFF7AFFF09E071
:103C00000948844206D1FFF7A4FC0B220749064865
:103C1000FFF742FF10BD00001C060020D75B00200C
:103C2000DC050020320500205C060020CC5B002073
:103C300070472DE9F84304460D4616461F464FF0DF
:103C4000000994F8390020285DD105B116B901208A
:103C5000BDE8F88300BF94F83800012801D10220A4
:103C6000F6E7012084F8380000BF0020E06321203F
:103C700084F83900FEF7FAFB8146A684E68400BF8B
:103C8000002084F8380000BF2BE0E08C401EE08468
:103C9000A068B0F5805F16D14B46002280212046F7
:103CA000009702F0B5FC08B10320D1E7A846B8F8A8
:103CB0000000C0F3080021684860206908B9AD1C05
:103CC0000FE06D1C0DE04B4600228021204600973E
:103CD00002F09EFC08B10320BAE715F8010B216839
:103CE0004860E08C0028D0D14B460022402120467D
:103CF000009702F08DFC08B10320A9E7202084F88A
:103D000039000020A4E70220A2E7704700BFFEE7C9
:103D100010B50248FEF700FC10BD00008805002029
:103D2000C16AB1F52A0F02D10121C16205E0C16A61
:103D3000B1F12A4F01D10821C1627047F8B505469B
:103D400000200090AC6B94F83D6039480068192160
:103D5000B0FBF1F04FF47A71B0FBF1F0C0EBC000B2
:103D600000EB8000009000BF009820B9206C40F06C
:103D70002000206409E00098401E00902068006840
:103D800000F40070B0F5007FEED000BF606B10B1A2
:103D90000020616BC863A06B10B10020A16BC863E9
:103DA0002068006820F48060216808600020608539
:103DB000606B10B10020616B0865A06B10B1002032
:103DC000A16B08652068006820F001002168086088
:103DD00094F83D0060280AD1202084F83D0000209E
:103DE00084F83E0020642046FEF794FB1EE006F0B7
:103DF0002800282811D12068006840F001002168BF
:103E000008602068006840F4806021680860002035
:103E10002063282084F83D0005E0202084F83D0040
:103E2000002084F83E002046FEF760FCF8BD00004C
:103E3000300000202DE9F041044694F83D6094F8EC
:103E40003E70102F01D0402F07D1222E05D12068BF
:103E5000006820F400602168086006F02800282827
:103E600005D100202063282084F83D0010E0206860
:103E7000406800F40060B0F5006F07D0602E05D0F8
:103E8000202084F83D00002084F83E0000202063BC
:103E90002068406800F40060B0F5006F40D12068F1
:103EA000406820F4006021684860606B90F835003D
:103EB000012814D04848616B0865606BFDF7BCFFB2
:103EC00000285BD02068006820F0010021680860AD
:103ED000202084F83D00606B016D88474EE03E482D
:103EE000A16B0865A06BFDF7A7FF002846D02068EE
:103EF0004069C0F3801030B120680069616A0870C1
:103F0000606A401C60622068006820F0010021683F
:103F10000860202084F83D00A06B016D88472DE0EB
:103F200094F83D0060281AD1202084F83D0000203C
:103F3000206420684069C0F3801030B120680069B7
:103F4000616A0870606A401C60622068006820F046
:103F50000100216808602046FEF7DCFA0EE02068C8
:103F60004069C0F3801030B120680069616A087050
:103F7000606A401C60622046FEF7B8FB256C05F0C5
:103F8000010058B905F00200022807D005F004002E
:103F9000042803D005F00800082805D120684068EF
:103FA00020F4E0602168486094F83D60206C00F0E7
:103FB000040004280ED1282E0CD10848E06200200D
:103FC0002063202084F83D00002084F83E00204635
:103FD000FEF776FCBDE8F0813D3D00080000FFFFE4
:103FE00070B50446E56A608D042810D120684068E9
:103FF00020F480602168486020680069616A087068
:10400000606A401C6062608D401E60857AE0608D51
:1040100003281AD12068406820F480602168486035
:10402000042D07D0022D05D02068006820F48060A0
:104030002168086020680069616A0870606A401C35
:104040006062608D401E60855CE0608D02284FD10B
:10405000012D01D0102D06D12068006820F4806069
:104060002168086012E0042D01D0022D06D12068DD
:10407000006840F480602168086007E0102D05D0DA
:104080002068006840F400702168086020680069BA
:10409000616A0870606A401C6062608D401E6085C5
:1040A00020680069616A0870606A401C6062608D07
:1040B000401E60852068406820F440702168486098
:1040C000202084F83D0094F83E00402807D10020CD
:1040D00084F83E0020632046FEF7F5FB12E0002046
:1040E00084F83E00122020632046FEF7EAFB09E038
:1040F00020680069616A0870606A401C6062608DB7
:10410000401E608570BD70B5044694F83D002228BD
:1041100069D1658D032D13D920680069616A087023
:10412000606A401C6062608D401E6085608D03285F
:1041300058D12068406820F480602168486051E0D0
:10414000E06A02284ED0012D01D0002D4AD1204630
:1041500000F048FC68BB2068006820F4806021689B
:1041600008602068406820F4E060216848602068AA
:104170000069616A0870606A401C6062608D401E60
:104180006085202084F83D0094F83E00402807D147
:10419000002084F83E0020632046FEF794FB21E0D7
:1041A000002084F83E00122020632046FEF789FBA1
:1041B00018E02068406820F4E060216848602068CA
:1041C0000069616A0870606A401C6062608D401E10
:1041D0006085202084F83D00002084F83E002046C1
:1041E000FEF784FA00BF70BD70B50446E56A94F826
:1041F0003D0021283CD1608D50B1606A0078216873
:104200000861606A401C6062608D401E60852FE01E
:10421000082D16D0202D14D015F5803F11D0206820
:10422000406820F4E060216848601120206300208D
:1042300084F83E00202084F83D002046FEF742FB33
:1042400016E02068406820F4E0602168486020683B
:10425000006840F40070216808600020206320207E
:1042600084F83D00002084F83E002046FEF72AFB3B
:1042700070BD2DE9F041044694F83D5094F83E702D
:10428000E66A208DB0BB212D3CD1082E16D0202E01
:1042900014D016F5803F11D02068406820F4E0600B
:1042A0002168486011202063002084F83E0020200F
:1042B00084F83D002046FEF705FB44E02068406896
:1042C00020F4E060216848602068006840F40070D5
:1042D0002168086000202063202084F83D0094F8C5
:1042E0003E00402807D1002084F83E002046FEF71B
:1042F000EBFA28E006E0002084F83E002046FEF7B6
:10430000E1FA20E0212D03D0402F1CD1222D1AD11B
:10431000608D30B92068406820F480602168486072
:1043200011E094F83E00402803D1204600F0A5F9A2
:1043300009E0606A007821680861606A401C606278
:10434000608D401E6085BDE8F081416CC9B2026895
:104350001161416B09B9816B59B1416BC96B11B9DD
:10436000816BC96B29B10168496841F40061026839
:104370005160704738B590F83E20C16A036B90F8E1
:104380003D40222C73D1046D64B9402A0AD100BF8C
:10439000002400940468646900940468A46900948B
:1043A00000BF1AE1046DC4B90469B4F5404F14D1DB
:1043B00000BF002400940468646900940468A46940
:1043C000009400BF00BF0468246844F4807405684A
:1043D0002C60046D641C0465FFE0448D8CB900BF43
:1043E000002400940468646900940468A46900943B
:1043F00000BF00BF0468246844F4007405682C60A2
:10440000DDE0448D012C72D111F5803F30D104687C
:10441000246824F4806405682C600468646804F4EB
:104420000064B4F5006F10D10468246824F480643B
:1044300005682C6000BF002400940468646900943F
:104440000468A469009400BFB9E000BF0024009490
:104450000468646900940468A469009400BF00BF04
:104460000468246844F4007405682C60A7E0A9E09F
:10447000082923D0202921D0122B01D101291DD1B7
:1044800004290AD0022908D0102906D0046824681B
:1044900024F4806405682C6005E00468246844F412
:1044A000806405682C6000BF00240094046864697F
:1044B00000940468A469009400BF80E00468246844
:1044C00024F4806405682C6000BF00240094046814
:1044D000646900940468A469009400BF00BF046884
:1044E000246844F4007405682C6068E0FFE7448D9C
:1044F000022C3BD1042910D002290ED010290CD057
:104500000468246824F4806405682C6004682468C6
:1045100044F4006405682C6005E00468246844F4F1
:10452000806405682C600468646804F40064B4F571
:10453000006F10D111F5803F07D0012905D008295F
:1045400003D0102901D0202905D10468646844F4FF
:10455000805405686C6000BF00240094046864699E
:1045600000940468A469009400BF28E004682468EB
:1045700044F4806405682C600468646804F4006492
:10458000B4F5006F10D111F5803F07D0012905D097
:10459000082903D0102901D0202905D104686468B6
:1045A00044F4805405686C6000BF002400940468E3
:1045B000646900940468A469009400BF00BF0024EB
:1045C00004650AE000BF0024009404686469009454
:1045D0000468A469009400BF00BF38BD90F83E1085
:1045E00040290ED1016D29B9416C01F0FE0102682C
:1045F000116141E0416CC9B241F0010102681161F1
:104600003AE00169B1F5804F20D190F83D102129A1
:1046100005D1416C01F0FE010268116105E0416CB9
:10462000C9B241F0010102681161416B11B1416BE6
:10463000C96B21B9816BF9B1816BC96BE1B10168BB
:10464000496841F400610268516015E0016D41B9AB
:10465000416C01F44071F02242EAE11102681161FB
:104660000AE0016D012907D1416C01F44071F1228A
:1046700042EAE11102681161704770B5044694F88E
:104680003D50206D98B9E06C012807D1A06CC0B2F4
:1046900021680861206D801C206549E0A06CC0F392
:1046A000072021680861206D401C206540E0206DD6
:1046B000012807D1A06CC0B221680861206D401CA0
:1046C000206535E0206D022832D1222D06D12068E8
:1046D000006840F480702168086029E0608D60B156
:1046E000212D0AD1606A007821680861606A401C47
:1046F0006062608D401E60851AE0608DC0B9212D1A
:1047000016D12068406820F4E06021684860206885
:10471000006840F4007021680860002020632020B9
:1047200084F83D00002084F83E002046FEF7CCF8D7
:1047300070BD418D49B101680969426A1170416AD1
:10474000491C4162418D491E4185704770B5044640
:1047500094F83D50608DD8B120680069616A087096
:10476000606A401C6062608D401E6085608D78B913
:104770002A2D0DD12068406820F4806021684860AF
:1047800022202063282084F83D002046FEF7EAF826
:1047900070BD418D49B1416A097802681161416A71
:1047A000491C4162418D491E4185704770B50446E0
:1047B00094F83D50608DD8B1606A00782168086136
:1047C000606A401C6062608D401E6085608D78B9B3
:1047D000292D0DD12068406820F480602168486050
:1047E00021202063282084F83D002046FEF7BBF8F6
:1047F00070BD2DE9F04104460D46002794F83D00B8
:1048000000F0280028281CD12068406820F480602F
:1048100021684860C5F3800000B90127C5F3C010C6
:1048200010B9A08986B201E0208B86B200BF0020BB
:1048300084F83C0000BF324639462046FDF76BFE47
:1048400008E06FF002002168486100BF002084F892
:104850003C0000BFBDE8F08138B5044694F83D50F7
:104860002068406820F4E0602168486000BF0020B4
:1048700000902068406900902068006840F00100C6
:104880002168086000BF00BF2068006820F48060D5
:10489000216808602068406800F40060B0F5006F8F
:1048A00042D1222D01D02A2D1FD1A06B0068406873
:1048B0006085608D18B1206C40F004002064206891
:1048C000406820F4006021684860A06BFDF7C8FADA
:1048D000012829D04148A16B0865A06BFDF7ACFA0F
:1048E00010B3A06B016D88471EE0606B00684068E4
:1048F0006085608D18B1206C40F004002064206851
:10490000406820F4006021684860606BFDF7A8FAF9
:10491000012809D03148616B0865606BFDF78CFA9E
:1049200010B1606B016D8847608D18B320684069D5
:10493000C0F3800048B120680069616A0870606A4D
:10494000401C6062608D401E608520684069C0F335
:10495000801048B120680069616A0870606A401C74
:104960006062608D401E6085608D18B1206C40F0E3
:1049700004002064206C18B12046FFF75BFA2BE09E
:104980002A2D07D100202063282084F83D002046EE
:10499000FDF7E8FF94F83D0028280DD11048E062AB
:1049A00000202063202084F83D00002084F83E0091
:1049B0002046FDF785FF0FE0206B222801D0222D35
:1049C0000AD100202063202084F83D00002084F8D4
:1049D0003E002046FDF7C6FF38BD00003D3D000803
:1049E0000000FFFF08B50146002000901048006855
:1049F0001922B0FBF2F04FF47A72B0FBF2F000EB48
:104A00008000009000BF0098401E0090009828B9D8
:104A1000086C40F020000864012008BD08680068A8
:104A200000F40070B0F5007FEDD00020F5E7000045
:104A30003000002000B52DED068B89B09FEDF70A00
:104A4000F0EE408A9FEDF60AB0EE409A9FEDF30A31
:104A5000F0EE409A9FEDF30AB0EE40AA9FEDF20A05
:104A6000B0EE408AF148007809286FD1FCE020229E
:104A7000EF4901A8FBF749FCFDF7F8FC00EE100A2E
:104A8000F8EE400A9FEDEB1A80EE810AEA48D0ED7D
:104A9000000A9FEDE81AC0EE811A30EE610AB0EE0E
:104AA000408A9FEDDE0AB4EEC08AF1EE10FA15D20C
:104AB0009FEDDD1ADFEDE10AB1EE040AE04800F0F7
:104AC000D1FD9FEDD91ADFEDDF0AB2EE000ADE4814
:104AD00000F0C8FD01A800F0CDFDC4E09FEDCF0AB5
:104AE000B4EEC08AF1EE10FA31DBB7EE000AB4EE94
:104AF000C08AF1EE10FA2AD200200FE0B3EE0C0AC1
:104B000001A901EBC00181ED000ABBEE040A01A975
:104B100001EBC00181ED010A411CC8B20428EDDBA4
:104B20009FEDC11ADFEDC50AB3EE060AC44800F0D6
:104B300099FD9FEDBD1ADFEDC30AB3EE000AC2482E
:104B400000F090FD01A800F095FD8CE095E0B7EE37
:104B5000000AB4EEC08AF1EE10FA30DB9FEDBB0A1A
:104B6000B4EEC08AF1EE10FA29D200200FE0B3EEC5
:104B7000010A01A901EBC00181ED000AB1EE0C0AA6
:104B800001A901EBC00181ED010A411CC8B2042852
:104B9000EDDB9FEDA51ADFEDA90AB2EE0E0AA848DB
:104BA00000F060FD9FEDA01ADFEDA60A9FEDA70AB9
:104BB000A54800F057FD01A800F05CFD53E09FED13
:104BC000A30AB4EEC08AF1EE10FA30DD9FEDA00A20
:104BD000B4EEC08AF1EE10FA29D200200FE0B3EE55
:104BE000020A01A901EBC00181ED000AB1EE000A41
:104BF00001A901EBC00181ED010A411CC8B20428E2
:104C0000EDDB9FED891ADFED8D0AB2EE0E0A8C48BE
:104C100000F028FD9FED841ADFED8A0A9FED8B0AD4
:104C2000894800F01FFD01A800F024FD1BE09FED66
:104C3000880AB4EEC08AF1EE10FA14DD0720FBF703
:104C4000ABFE9FED791ADFED7D0AB2EE000A7C48DB
:104C500000F008FD9FED741ADFED7A0AB2EE0F0A3C
:104C6000794800F0FFFC00BF9FED790AB4EEC08ADE
:104C7000F1EE10FA7FF6FBAE4FE16C4800780A289F
:104C8000FAD142E120226A49203101A8FBF73DFB1D
:104C9000FDF7ECFB00EE100AF8EE400A9FED651AF6
:104CA00080EE810A6448D0ED000A9FED621AC0EEE2
:104CB000811A30EE610AB0EE408A9FED580AB4EED8
:104CC000C08AF1EE10FA15D29FED571ADFED5B0A9C
:104CD000B1EE040A5A4800F0C5FC9FED531ADFED0F
:104CE000590AB2EE000A584800F0BCFC01A800F0D6
:104CF000C1FC09E19FED490AB4EEC08AF1EE10FA59
:104D000030DBB7EE000AB4EEC08AF1EE10FA29D219
:104D100000200FE09FED4F0A01A901EBC00181EDDA
:104D2000000ABBEE020A01A901EBC00181ED010AF4
:104D3000411CC8B20428EDDB9FED3B1ADFED3F0AB2
:104D4000B3EE0C0A3E4800F08DFC9FED371ADFED04
:104D50003D0AB3EE000A3C4800F084FC01A800F0D4
:104D600089FCD1E0B7EE000AB4EEC08AF1EE10FA89
:104D700043DB9FED360AB4EEC08AF1EE10FA3CD266
:104D800000200FE0B3EE000A01A901EBC00181EDA4
:104D9000000A9FED250A01A901EBC00181ED010A7E
:104DA000411CC8B20428EDDB9FED1F1ADFED230A7A
:104DB000B1EE040A224800F055FC41F66410224985
:104DC000486501462048C0F8B810C0F81C11C0F86A
:104DD0008011C0F8E411C0F84812C0F8AC12C0F855
:104DE00010139FED111ADFED170A9FED180A00F05E
:104DF00039FC01A800F03EFC86E09FED140AB4EEF9
:104E0000C08AF1EE10FA4FDD9FED110AB4EEC08AB0
:104E1000F1EE10FA48D200202EE00000CDCC4C3F3D
:104E2000CDCC4C3E9A99193F0000000008050020A7
:104E3000609A000800007A441405002017B7513A20
:104E4000D852002017B7D138F85500206666E63FE3
:104E50009A991940CDCCDC41B3EE000A01A901EBCF
:104E6000C00181ED000A1FED100A01A901EBC0018C
:104E700081ED010A411CC8B20428EDDB1FED161AB2
:104E80005FED120AB2EE000A264800F0EBFB1FEDC0
:104E90001A1A5FED140A1FED130A234800F0E2FB13
:104EA00001A800F0E7FB2FE01FED170AB4EEC08A5F
:104EB000F1EE10FA28DD42F210701B4948650146F8
:104EC0001948C0F8B810C0F81C11C0F88011C0F81B
:104ED000E411C0F84812C0F8AC12C0F81013072053
:104EE000FBF75AFD1FED301A5FED2C0AB2EE000AF7
:104EF0000C4800F0B7FB1FED341A5FED2E0AB2EE3E
:104F00000F0A094800F0AEFB00BF1FED2F0AB4EEF8
:104F1000C08AF1EE10FA7FF6B5AE09B0BDEC068B93
:104F200000BD0000D8520020F855002017E00C48C2
:104F3000007828B90A480078401C094908700AE03E
:104F4000FDF794FA00EE100AB8EE400A054880ED2D
:104F5000000AFFF76FFD0448006802F015FCE6E761
:104F600018050020140500201400002010B50E487C
:104F70000E4908600520486000210C488160C1602E
:104F80004FF40031016149014161002101760121A5
:104F9000417600218176C17601774177FCF722FDC9
:104FA00008B1FCF761F910BD00640040380500202D
:104FB00010B50E480E4908600520486000210C48D5
:104FC0008160C1604FF400310161490141610021FC
:104FD00001760121417600218176C1760177417702
:104FE000FCF700FD08B1FCF73FF910BD0068004078
:104FF0006005002008B500BF002000900A48006846
:1050000040F48000084908600846006800F4800009
:10501000009000BF00BF002205213A20FDF74EFDA1
:105020003A20FDF73BFD08BD3038024010B51C4A60
:1050300000211C4802F01EFB1B4908601B4A00218E
:105040001B4802F017FB1B4908601B4A00211B4844
:1050500002F010FB1A4908601A4A00211A4802F0AF
:1050600009FB1A4908601A4A00211A4802F002FB9B
:1050700019490860194A0021194802F0FBFA194938
:105080000860194A0021194802F0F4FA184908602A
:10509000184A0021184802F0EDFA1849086010BDBE
:1050A00020990008E9110008000000204499000838
:1050B000CD04000804000020689900082D5A00085B
:1050C000080000208C990008A95200080C0000205C
:1050D000F8990008B557000818000020B09900089A
:1050E000CD5A000810000020D49900082D4F000868
:1050F000140000201C9A0008215900081C00002000
:1051000008B500BF002000903348006840F0400020
:10511000314908600846006800F04000009000BF78
:1051200000BF00BF002000900846006840F001006A
:1051300008600846006800F00100009000BF00BF52
:1051400000BF002000900846006840F002000860A0
:105150000846006800F00200009000BF00BF00BFDA
:10516000002000900846006840F0080008600846EB
:10517000006800F00800009000BF00BF00BF0020E2
:1051800000900846006840F020000860084600686B
:1051900000F02000009000BF00BF00BF0020009082
:1051A0000846006840F0800008600846006800F08B
:1051B0008000009000BF00BF00BF002000900846A4
:1051C000006840F0100008600846006800F0100019
:1051D000009000BF00BF08BD3038024010B5124833
:1051E0001249086012484860002110488160C1607F
:1051F0004FF480410161002141618161C16101621F
:10520000FDF776FA08B1FCF72FF800210748FDF703
:1052100033F908B1FCF728F800210448FDF752F9EA
:1052200008B1FCF721F810BD0058004088050020A7
:10523000801A060010B50B480B4908604FF4E130A6
:105240004860002108488160C16001610C21416112
:1052500000218161C161FEF75BFA08B1FCF704F837
:1052600010BD000000780040DC05002010B50B48A0
:105270000B4908604FF4E130486000210848816024
:10528000C16001610C21416100218161C161FEF7B2
:105290003FFA08B1FBF7E8FF10BD00000014014021
:1052A0009C06002000BFFEE7BBE05E4800780128B6
:1052B0006AD1002063E008B1012814D15A4901EBFA
:1052C000800191ED000A5949D1ED000A30EE200A23
:1052D0005749D1ED000A30EE600A564901EB8001D2
:1052E00081ED000A49E0022801D0032814D14E497B
:1052F00001EB800191ED000A4C49D1ED000A30EE3E
:10530000200A4B49D1ED000A30EE600A494901EB11
:10531000800181ED000A30E0042801D0052814D175
:10532000414901EB800191ED000A4349D1ED000AAA
:1053300030EE200A3E49D1ED000A30EE200A3D4908
:1053400001EB800181ED000A17E0062801D0072853
:1053500013D1354901EB800191ED000A3649D1EDB9
:10536000000A30EE200A3249D1ED000A30EE200A60
:10537000304901EB800181ED000A411CC8B20828C8
:1053800099DB0020274908702A4890ED000ABDEEFD
:10539000C00A10EE100A00B228490880254890ED96
:1053A000010ABDEEC00A10EE100A00B24880214882
:1053B00090ED020ABDEEC00A10EE100A00B288801D
:1053C0001C4890ED030ABDEEC00A10EE100A00B2B0
:1053D000C880184890ED040ABDEEC00A10EE100A0D
:1053E00000B20881134890ED050ABDEEC00A10EE28
:1053F000100A00B248810F4890ED060ABDEEC00ABF
:1054000010EE100A00B288810A4890ED070ABDEE3E
:10541000C00A10EE100A00B2C8810321084803F048
:10542000CFF942E70A0500206C5B00202805002028
:105430001C010020E05900202C050020005A00200B
:10544000E000002000BFFEE700B50146F0EE401A84
:10545000B0EE602AC1ED081A81ED052A32EE610A2C
:1054600081ED0B0A91ED170AB5EEC00AF1EE10FAC4
:1054700017D091ED0B0AB5EEC00AF1EE10FA02DD7D
:1054800091ED0B0A03E091ED0B0AB1EE400AD1ED6C
:10549000170AB4EEE00AF1EE10FA02DD9FED700A91
:1054A00000BD91ED180AB5EEC00AF1EE10FA17D062
:1054B00091ED0B0AB5EEC00AF1EE10FA02DD91EDA6
:1054C0000B0A03E091ED0B0AB1EE400AD1ED180A88
:1054D000B4EEE00AF1EE10FA02D29FED610ADFE7C6
:1054E00091F85000F0BB91ED000AD1ED0B0A20EECF
:1054F000200A81ED0C0A91ED0D0AD1ED010A91ED22
:105500000B1A00EE810A81ED0D0A91ED0B0AD1ED27
:105510000A0A30EE600AD1ED020A20EE200A81ED7F
:105520000E0AD1ED160AF8EE600AB0EE600A01F13B
:10553000340001F039FD91ED0C0AD1ED0D0A30EE89
:10554000200AD1ED0E0A30EE200A81ED0F0AD1EDCE
:10555000150AF8EE600AB0EE600A01F13C0001F0B5
:1055600023FD00E004E091ED0F0A81ED100A55E003
:1055700091F85000012851D191ED0B0AD1ED0A0AA2
:1055800030EE600AD1ED000A20EE200A81ED0C0A0F
:1055900091ED010AD1ED0B0A20EE200A81ED0D0AF2
:1055A00091ED0B0AD1ED0A0AB0EE001A01EE600A85
:1055B000D1ED090A30EE200AD1ED020A20EE200AD0
:1055C00081ED0E0AD1ED160AF8EE600AB0EE600A1F
:1055D00001F1340001F0E8FC91ED0C0AD1ED0D0A67
:1055E00030EE200AD1ED0E0A30EE200A81ED110ACC
:1055F00091ED130AD1ED110A30EE200A81ED120A65
:10560000D1ED150AF8EE600AB0EE600A01F148002B
:1056100001F0CAFC91ED120A81ED130A91ED0A0A1C
:1056200081ED090A91ED0B0A81ED0A0A91ED070A55
:1056300081ED060A91ED080A81ED070A91ED040A51
:1056400081ED030A91ED050A81ED040A91F85000FD
:1056500010B991ED0F0A23E791ED120A20E700003F
:105660000000000080ED000AC0ED010A80ED021A82
:105670007047000070B50546002453E02C4A02EB49
:10568000C40105EBC40000F05DF8294901EBC40139
:1056900091ED011AF0EE410A254901EBC40191EDAB
:1056A000001AB0EE410A04EB4401224A02EBC100A9
:1056B00000F0C3FA04EB44011E4A02EBC10000F003
:1056C00073FA04EB44001B4901EBC00090ED030AA0
:1056D000DFED190A30EEC00AB1EE400AF7EE000A1B
:1056E00080EE201A154901EBC40080ED001A04EB8E
:1056F0004400104901EBC00090ED020ADFED0E0AF4
:1057000030EE200AB1EE400AF7EE000A80EE201AD1
:10571000012000EB4400094901EB800080ED001AF4
:10572000601CC4B2042CA9DB01200549087070BDBF
:105730008C5B00208C5A0020DB0FC93F6C5B002083
:105740000A05002070B52DED028B04460D4694ED40
:10575000010ADFED160A20EE200ADFED150A80EEC1
:10576000201AB0EE418AB0EE480A01F065F9D4ED96
:10577000000A20EE200A85ED010A94ED010ADFED12
:105780000B0A20EE200ADFED0A0A80EE201AB0EEA6
:10579000418AB0EE480A01F04FFAD4ED000A20EE3B
:1057A000200A85ED000ABDEC028B70BDD00F494088
:1057B0000000344394E04B48007800EB40004A4A34
:1057C00002EBC00118224948FAF79FFD45480078CE
:1057D00000EB4000464A02EB401160224548FAF7D0
:1057E00094FD45480078D0B1FCF740FE00EE100A69
:1057F000B8EE400ADFED410A80EE201A404880ED05
:10580000001A002009E03E4991ED000A3D4901EBF4
:10581000401181ED060A411CC8B20428F3DB0024C4
:1058200008E0384901EB441018223049FAF76DFDC1
:10583000601CC4B2042CF4DB33493248FBF75AFA3B
:10584000284800780B2840D2DFE800F03F1D3F3F9A
:1058500023292F0640353A0000200FE09FED2B0A48
:105860002B4901EB800181ED000AB3EE020A2949C0
:1058700001EB800181ED000A411CC8B20428EDDB78
:1058800000F0DAFA27E00120FAF76AFE00F0D4FA15
:1058900021E00420FAF764FE00F0CEFA1BE00520B8
:1058A000FAF75EFE00F0C8FA15E00520FAF758FE98
:1058B00000F0C2FA00BF1848006801F045FF0AE096
:1058C0001548006801F040FF05E000BF4FF4FA7092
:1058D00001F070FE00BF00BF0A21104802F070FF07
:1058E00069E7000008050020F0010020D801002031
:1058F00028030020A80400201005002000007A449E
:105900000C050020EC5A0020E95B0020000000009C
:10591000AC5B0020BC5B00201400002024050020AC
:1059200006E00448007818B10348006801F02CFF35
:10593000F7E70000300500201C00002010B51222FF
:1059400004490548FEF7A8F8012204490448FEF777
:1059500005F910BDD75B00201C0600203205002091
:10596000DC05002010B503460C4603B104B910BD98
:105970001878597840EA0120C0F30A00208058784E
:10598000C010997840EA4110C0F30A00608098780E
:105990008011D97840EA8100197940EA8120C0F36A
:1059A0000A00A08018794010597940EAC110C0F36C
:1059B0000A00E080587900118008A0725879C0F37D
:1059C0000111E1729879D97940EA012000B2A081F1
:1059D000187A597A090209B2084304F10C01E081EE
:1059E000987AD97A090209B2084304F10C0120829D
:1059F000197BA174597BE174987BD97B40EA012023
:105A0000A082187C597C090209B2084320812046F3
:105A100000F002F800BFAAE7C17A827A41EA0211D7
:105A2000014A117070470000310500203FE002F08C
:105A30007BFD1F491F48FFF795FF1F4890ED040AA3
:105A40001E4880ED000A1C4890ED050A1B4880EDB9
:105A5000010A194890ED020A184880ED020A16481A
:105A600090ED030A154880ED030A154890ED030AEE
:105A7000124880ED040A134890ED0F0A0F4880ED9C
:105A8000050A0F4890ED1C0A0C4880ED060A0D48E7
:105A900090ED280A094880ED070A02F06FFD2022E8
:105AA00006490948FAF724FD0A2001F083FDBEE704
:105AB000E95B0020D75B00208C5A0020B852002000
:105AC000D8520020F8550020CC00002059E00024D6
:105AD00000BF0BE042F2283004EBC40101EB0411DB
