:020000040800F2
:10000000F05D002085020008116B0008A551000872
:1000100059690008A1080008917F0008000000004D
:10002000000000000000000000000000C501000802
:10003000AB25000800000000210200083173000811
:100040009F0200089F0200089F0200089F0200080C
:100050009F0200089F0200089F0200089F020008FC
:100060009F0200089F0200089F0200085524000814
:100070009F0200089F0200089F0200089F020008DC
:100080009F020008712400089F0200089F020008D8
:10009000A50800089F0200089F0200089F020008B0
:1000A0009F0200089F0200089F0200089F020008AC
:1000B0009F0200089F0200089F0200089F0200089C
:1000C0009F020008A95100089F0200089F02000833
:1000D0009F020008497F00089F0200089F02000855
:1000E0009F0200089F0200089F0200089F0200086C
:1000F0009F0200089F0200089F0200089F0200085C
:100100009F0200089F0200089F0200089F0200084B
:100110009F0200089F0200083D7400089F0200082B
:100120009F0200089F020008812400089F02000827
:100130009F0200089F0200089F0200089F0200081B
:10014000B50800089F0200089F0200089F020008EF
:10015000912400089F0200089F0200089F020008E7
:100160009F0200089F0200089F0200089F020008EB
:100170009F0200089F0200089F0200080000000084
:100180009F0200089F020008C9760008B97700089E
:100190009F0200089F0200089F0200089F020008BB
:1001A00000000000000000009F020008DFF810D0EF
:1001B00000F0FCFA00480047878F0008AFF300808A
:1001C000F05D00202C4B19680868B0E8F04F80F310
:1001D0000988BFF36F8F4FF0000080F311887047DC
:1001E0000000000008480068006880F308884FF0AD
:1001F000000080F3148862B661B6BFF34F8FBFF37F
:100200006F8F00DF00BF00BF08ED00E0DFF80C00DB
:10021000016841F470010160704700BF88ED00E0A3
:10022000EFF30980BFF36F8F134B1A681EF0100FA6
:1002300008BF20ED108A20E9F04F106009B44FF09C
:10024000500080F31188BFF34F8FBFF36F8F0AF018
:100250008FF94FF0000080F3118809BC1968086815
:10026000B0E8F04F1EF0100F08BFB0EC108A80F31A
:100270000988BFF36F8F704764050020EFF3058096
:10028000704700000648804706480047FEE7FEE743
:10029000FEE7FEE7FEE7FEE7FEE7FEE7FEE7FEE736
:1002A00021740008AD0100082DE9F05F054600202B
:1002B00092469B4688460646814640241BE02846D7
:1002C00041464746224600F0A4F953465A46C01A12
:1002D000914110D311461846224600F08BF92D1A91
:1002E00067EB01084F4622460120002100F082F909
:1002F00017EB00094E41201EA4F10104DFDC484643
:1003000031462A464346BDE8F09F40EA01039B0779
:1003100003D009E008C9121F08C0042AFAD203E07A
:1003200011F8013B00F8013B521EF9D27047D2B2DE
:1003300001E000F8012B491EFBD270470022F6E7CE
:1003400010B513460A4604461946FFF7F0FF20464B
:1003500010BD2DE9FE4F81EA030404F0004421F0B2
:10036000004100944FF0000B23F0004350EA0104D9
:100370005ED052EA03045BD0C3F30A54C1F30A55BA
:100380002C44A4F2F3340194A0FB0254C1F31301F2
:1003900041F48011C3F3130343F4801301FB0244BF
:1003A00000FB034E840A970A44EA815447EA8357C4
:1003B000A4FB076802958D0A05FB07854FEA932C7D
:1003C00004FB0C542705029D4FEA065847EA1637EE
:1003D000B5EB08056EEB070C870E920E47EA811706
:1003E00042EA8312A7FB0201B6EB0B0164EB0004A7
:1003F0002B0D43EA0C335E1844EB1C50DA46514691
:10040000E7FB0201C5F313044FEA0B3343EA14532D
:100410004FEA0432019C43EA0603A4F10C0402945F
:10042000009CCDE900B400F073F903B0BDE8F08F93
:1004300000200146F9E72DE9F04D81EA030404F0BC
:10044000004B21F0004514464FF0000A23F0004114
:1004500050EA050220D054EA01021DD0C5F30A5724
:100460000246C5F31303C1F31300C1F30A5640F467
:10047000801543F48013A7EB0608101BD64608F23C
:10048000FD3873EB050002D308F1010801E0921872
:100490005B41B8F1000F03DA00200146BDE8F08DA2
:1004A00000204FF48011064684460EE0171B73EBC4
:1004B000050705D3121B63EB050306434CEA010C49
:1004C00049084FEA300092185B4150EA0107EDD12C
:1004D00052EA030012D082EA040083EA05010843CD
:1004E00005D0101BAB4106D20122002306E00022FA
:1004F0004FF0004302E06FF0010253101AEB0600C8
:100500004CEB085110EB0A0041EB0B01BDE8F04D3C
:1005100000F0EFB80EB5C10F80EAE0700844CA07DA
:10052000002140F233438DE80E000A460B4600F0EE
:10053000EFF803B000BD00F0004230F000400AD0F8
:10054000C10D01F56071C0F3160042EA0151C20805
:1005500040071143704700200146704730B5041E24
:1005600071F1000404DB4FF00044404264EB0101F0
:10057000141E73F1000405DB1C464FF00043524289
:1005800063EB04038B4208BF824230BD30B5041ECA
:1005900071F1000404DB4FF00044404264EB0101C0
:1005A000141E73F1000405DB1C464FF00043524259
:1005B00063EB0403994208BF904230BD01F0004351
:1005C00030B421F0004150EA010206D00A0DA2F534
:1005D0006072C1F31301002A02DC30BC00207047B6
:1005E000440F44EAC104C100E01830BC00EBC25023
:1005F00000F01FB8202A04DB203A00FA02F10020A4
:1006000070479140C2F1200320FA03F31943904050
:100610007047202A04DB203A21FA02F000217047BB
:1006200021FA02F3D040C2F120029140084319465A
:1006300070470029A8BF7047401C490008BF20F040
:100640000100704710B4B0FA80FC00FA0CF050EAD8
:10065000010404BF10BC704749B1CCF1200421FA59
:1006600004F411FA0CF118BF012121430843A3EB54
:100670000C01CB1D4FEA00614FEA102042BF002061
:1006800010BC704700EBC35010440029A4BF10BC3D
:100690007047401C490008BF20F0010010BC7047A3
:1006A000F0B400F0004221F0004120F00040CE0DF7
:1006B000C30DC1F3160141F40001C0F316004C4212
:1006C000154640F40000761E09E010EB440002D508
:1006D00082F0004240428842F7D840005B1EB3429D
:1006E000F9DA18B1F0BC0021FFF7ACBF2846F0BC26
:1006F000704710B5141E73F1000408DA401C41F174
:10070000000192185B411A4301D120F0010010BD95
:100710002DE9F04D92469B4611B1B1FA81F202E00B
:10072000B0FA80F220329046FFF764FF04460F468D
:1007300040EA0A0041EA0B0153465A46084313D0E7
:10074000114653EA010019D0C8F140025046FFF7A4
:1007500060FF05460E46504659464246FFF74AFF9F
:10076000084305D0012004E020463946BDE8F08D5D
:100770000020054346EAE0762C4337430A98630598
:10078000E40AA0EB08000022FD0A44EA47540A30BC
:1007900002D500200146E9E7010510196941DDE9AC
:1007A000084500196941BDE8F04DA2E7064C074D28
:1007B00006E0E06840F0010394E807009847103431
:1007C000AC42F6D3FFF7F6FC8CB50008ACB50008D8
:1007D00070B58C1810F8015B15F0070301D110F803
:1007E000013B2A1106D110F8012B03E010F8016B30
:1007F00001F8016B5B1EF9D12B0705D40023521EB3
:100800000DD401F8013BFAE710F8013BCB1A921C1A
:1008100003E013F8015B01F8015B521EF9D5A14218
:10082000D8D3002070BD00000CE0074805F000FCA4
:100830000648007810B1044807F0FAFF0A2104487E
:1008400009F0CEFCF1E70000680E00205005002002
:10085000DC000020FEB504460D461646A520029099
:100860005A2001900020009000BF06E0295C9DF80E
:1008700000201144C9B20091401CB042F6D30121BE
:1008800002A82268904731462846226890470121F5
:10089000684622689047012101A822689047FEBD62
:1008A00000BFFEE710B5024802F07DF910BD000060
:1008B000E005002010B5024802F075F910BD0000F7
:1008C000080600200FB42DED060B2DE9F0432DEDA9
:1008D000068B81B0B0EE40AAB0EE608AF0EE418A9D
:1008E000B0EE619AF0EE429ADDF878901020B0EE0A
:1008F000091AF8EE090AB0EE4A0A08F02BFB84B296
:100900000C209FED2A1ADFED2A0AB0EE480A08F003
:1009100021FB85B20C209FED271ADFED270AB0EEF0
:10092000680A08F017FB86B20C20B1EE041ADFED5E
:10093000220AB0EE490A08F00DFB87B20C209FEDA9
:100940001F1ADFED1F0AB0EE690A08F003FB1FFA59
:1009500080F81C48C0F8009000201A498860C860E0
:10096000082008612012184908704C70C5F3071060
:1009700088702807000E40EA2620C8700E71C7F361
:10098000071048713807000E40EA2820887181F866
:1009900007806B460A460B4914A801F0EEFE01B031
:1009A000BDEC068BBDE8F0035DF82CFB0000344283
:1009B000000034C20000FA4300000000000058426A
:1009C000000058C2680900209400002010B50446B9
:1009D00002F046FF00EE100AB8EE400ADFEDF90A19
:1009E00080EE201AF84880ED001A072C7ED2DFE84E
:1009F00004F07DFED9FD04FCFB00F44800780128DA
:100A000075D1F34890ED010AF248D0ED000A30EEBE
:100A1000600AEF4880ED010A90ED090AED48D0ED3B
:100A2000000A30EE600AEA4880ED090A90ED110AEA
:100A3000E848D0ED000A30EE200AE54880ED110AC2
:100A400090ED190AE348D0ED000A30EE200AE048A4
:100A500080ED190A90ED010AF3EE040AB4EEE00A03
:100A6000F1EE10FA04DDB3EE040A80ED010A0FE0A6
:100A7000D74890ED010AFBEE040AB4EEE00AF1EE6D
:100A800010FA04D2BBEE040A80ED010A00E000BFB8
:100A9000CF4890ED090AF3EE040AB4EEE00AF1EE55
:100AA00010FA04DDB3EE040A80ED090A0FE0C8482D
:100AB00090ED090AFBEE040AB4EEE00AF1EE10FA3A
:100AC00004D2BBEE040A80ED090A00E000BFC04872
:100AD00090ED110AF3EE040AB4EEE00AF1EE10FA1A
:100AE00006DDB3EE040A80ED110A11E0F4E12EE018
:100AF000B74890ED110AFBEE040AB4EEE00AF1EEFD
:100B000010FA04D2BBEE040A80ED110A00E000BF27
:100B1000AF4890ED190AF3EE040AB4EEE00AF1EEE4
:100B200010FA04DDB3EE040A80ED190A0FE0A848BC
:100B300090ED190AFBEE040AB4EEE00AF1EE10FAA9
:100B400004D2BBEE040A80ED190A00E000BFA249FE
:100B5000DFEDA20A9E489C4A92ED000A01F00EFBCE
:100B60009D490831DFED9E0A99482030964A92ED62
:100B7000000A01F003FB98491031DFED980A944810
:100B80004030914A92ED000A01F0F8FA924918318A
:100B9000DFED930A8E4860308B4A92ED000A01F037
:100BA000EDFA9AE18C49DFED8E0A8948864A92ED8A
:100BB000000A01F0E3FA88490831DFED880A844829
:100BC0002030814A92ED000A01F0D8FA82491031B2
:100BD000DFED840A7E4840307B4A92ED000A01F046
:100BE000CDFA7D49183103E04BE161E00AE034E0E1
:100BF000DFED7D0A76486030734A92ED000A01F01D
:100C0000BDFA6AE17449DFED760A71486E4A92EDE9
:100C1000000A01F0B3FA70490831DFED700A6C4840
:100C20002030694A92ED000A01F0A8FA6A491031B1
:100C3000DFED6C0A66484030634A92ED000A01F02D
:100C40009DFA65491831DFED680A614860305E4AF7
:100C500092ED000A01F092FA3FE15F49DFED5F0A91
:100C60005B48594A92ED000A01F088FA5A49083166
:100C7000DFED5B0A56482030534A92ED000A01F03E
:100C80007DFA55491031DFED550A514840304E4A42
:100C900092ED000A01F072FA4F491831DFED500A67
:100CA0004B486030484A92ED000A01F067FA14E1BF
:100CB00046480078012874D1454890ED010A45481E
:100CC000D0ED000A30EE600A414880ED010A90ED57
:100CD000090A4048D0ED000A30EE600A3C4880ED39
:100CE000090A90ED110A3B48D0ED000A30EE200AC7
:100CF000374880ED110A90ED190A3648D0ED000A08
:100D000030EE200A324880ED190A90ED010AF3EE28
:100D1000040AB4EEE00AF1EE10FA04DDB3EE040AC0
:100D200080ED010A0FE02A4890ED010AFBEE040A6B
:100D3000B4EEE00AF1EE10FA04D2BBEE040A80ED44
:100D4000010A00E000BF224890ED090AF3EE040A10
:100D5000B4EEE00AF1EE10FA04DDB3EE040A80ED21
:100D6000090A0FE01A4890ED090AFBEE040AB4EEF6
:100D7000E00AF1EE10FA04D2BBEE040A80ED090A93
:100D800000E000BF124890ED110AF3EE040AB4EE41
:100D9000E00AF1EE10FA05DDB3EE040A80ED110A67
:100DA00025E043E00A4890ED110AFBEE040AB4EE98
:100DB000E00AF1EE10FA19D2BBEE040A80ED110A36
:100DC00015E0000000007A44EC000020FC00002048
:100DD000C40F0020A8000020C40E00205C8F023F3A
:100DE0000AD7233C5C8F423FB81E853E00BF59485E
:100DF00090ED190AF3EE040AB4EEE00AF1EE10FAEF
:100E000004DDB3EE040A80ED190A0FE0514890EDBD
:100E1000190AFBEE040AB4EEE00AF1EE10FA04D26D
:100E2000BBEE040A80ED190A00E000BF4A495FEDFD
:100E3000150A4848494A92ED000A01F09FF94649CF
:100E400008315FED190A43482030444A92ED000A08
:100E500001F094F9404910315FED200A3D484030DF
:100E60003E4A92ED000A01F089F93B4918315FEDE5
:100E7000240A38486030394A92ED000A01F07EF9C0
:100E80002BE035495FED2B0A3248344A92ED000AD7
:100E900001F074F930490831DFED310A2D48203076
:100EA0002E4A92ED000A01F069F92B491031DFED6D
:100EB0002D0A28484030294A92ED000A01F05EF9D7
:100EC000254918315FED3A0A22486030234A92EDF5
:100ED000000A01F053F900E000BF00BF012C1ED151
:100EE000002019E01C4901EBC00191ED000AF0EE71
:100EF000000A30EE600A1C4901EB800181ED000A16
:100F0000154901EBC00191ED010A184901EB80017F
:100F100081ED000A411CC8B20428E3DB19E000207F
:100F200015E00D4901EBC00191ED000A0E4901EBFE
:100F3000800181ED000A084901EBC00191ED010A31
:100F40000A4901EB800181ED000A411CC8B2042866
:100F5000E7DB10BDC40F0020C40E0020EC00002011
:100F60008FC2353F3D0A573EA40E0020B40E00202C
:100F70000749097849B107490978814206D00549EE
:100F800008700121044A117000E0704700BFFCE7BF
:100F900050050020340500203C05002070B52DEDE3
:100FA000068B04460D461646B5F90000A0F5806094
:100FB00000EE100AB8EEC00ADFEDFC0A80EE201A3F
:100FC000FB4880ED001AB5F90200A0F5806000EE44
:100FD000100AB8EEC00ADFEDF50A80EE201AF548D7
:100FE00080ED001AB5F90400A0F5806000EE100A4B
:100FF000B8EEC00ADFEDED0A80EE201AEE4880ED73
:10100000001AB5F90600A0F5806000EE100AB8EEEF
:10101000C00ADFEDE60A80EE201AE84880ED001AEB
:10102000B5F90800A0F5806000EE100AB8EEC00A1D
:10103000DFEDDE0A80EE201AE14880ED001A052E71
:1010400005D0042E03D0012E01D0062E7DD1B5F996
:101050000800B0F5966F04DB9FEDDA0AD64880ED04
:10106000000AB5F9000040F2024188426EDCB5F991
:101070000000091F884269DBB5F90200091D88429A
:10108000F4DCB5F90200091F8842F4DBCA480068A5
:10109000FFF751FA41EC180B9FEDCB0B53EC102BE3
:1010A000FFF774FA6BD20320FFF762FFC34890ED9D
:1010B000000AC148D0ED000A30EE200AF2EE060A1E
:1010C00020EE200A84ED010ABC4890ED000ABA48DF
:1010D000D0ED000A30EE200AF2EE060A20EE200AD9
:1010E00084ED090AB54890ED000AB348D0ED000A36
:1010F00030EE600AF2EE060A20EE200A84ED110AB4
:10110000AE4890ED000AAC48D0ED000A30EE600A1F
:10111000F2EE060A20EE200A84ED190A0068FFF7B5
:101120000AFA41EC1A0BB0EE4A0AF0EE6A0A07F02E
:101130004DF9B0EE409AF0EE609A51EC190BFFF7C2
:101140003DFA08EE100A002016E0FCE389E1DFED2D
:10115000A00A9FEDA00A08EE200A04EB401181EDE1
:10116000020ADFED9D0AB7EE080A08EE600A04EBFA
:10117000401181ED030A401C0428E8DBDDE08E48C5
:101180000068FFF7D8F941EC180B9FED940B53EC76
:10119000102BFFF7E3F969D20220FFF7E9FE874839
:1011A00090ED000A8448D0ED000A30EE200AF2EEFD
:1011B000060A20EE200A84ED010A804890ED000A1C
:1011C0007D48D0ED000A30EE200AF2EE060A20EE4D
:1011D000200A84ED090A794890ED000A7648D0ED9E
:1011E000000A30EE600AF2EE060A20EE200A84EDD4
:1011F000110A724890ED000A6F48D0ED000A30EEF7
:10120000600AF2EE060A20EE200A84ED190A006850
:10121000FFF791F941EC1A0BB0EE4A0AF0EE6A0AB8
:1012200007F0D4F8B0EE409AF0EE609A51EC190B4A
:10123000FFF7C4F908EE100A002014E0DFED640A9D
:101240009FED640A08EE200A04EB401181ED020ACA
:10125000DFED610AB7EE080A08EE600A04EB401100
:1012600081ED030A401C0428E8DB66E0012E0FD163
:10127000B2EE0E0A84ED000AB2EE0E0A84ED080A00
:10128000B2EE0E0A84ED100AB2EE0E0A84ED180AD0
:101290003046FFF76DFE494890ED000AF2EE060A6F
:1012A00020EE200A84ED010A90ED000AF2EE060A13
:1012B00020EE200A84ED090A90ED000AF2EE060AFB
:1012C00020EE200A84ED110A90ED000AF2EE060AE3
:1012D00020EE200A84ED190A0068FFF72CF941EC92
:1012E0001A0BB0EE4A0AF0EE6A0A07F06FF8B0EE99
:1012F000409AF0EE609A51EC190BFFF75FF908EE97
:10130000100A042E18D1002014E0F7EE000AB0EE07
:10131000080A08EE200A04EB401181ED020ADFED15
:10132000310A9FED310A08EE600A04EB401181EDAD
:10133000030A401C0428E8DB00BF94ED010AF2EE2A
:10134000060AB4EEE00AF1EE10FA04DDB2EE060A87
:1013500084ED010A0EE094ED010AFAEE060AB4EEFD
:10136000E00AF1EE10FA04D2BAEE060A84ED010AA0
:1013700000E000BF94ED090AF2EE060AB4EEE00ABE
:10138000F1EE10FA04DDB2EE060A84ED090A2EE051
:1013900094ED090AFAEE060AB4EEE00AF1EE10FA4C
:1013A00024D2BAEE060A84ED090A20E000002544A2
:1013B0000C01002010010020140100201801002061
:1013C0001C010020000000007B14AE47E17A843F3E
:1013D0009A99993F333333403333333F7B14AE47CD
:1013E000E17A84BF9A99993ECDCC4C3F00BF94EDF1
:1013F000110AF2EE060AB4EEE00AF1EE10FA04DD8C
:10140000B2EE060A84ED110A0EE094ED110AFAEE2E
:10141000060AB4EEE00AF1EE10FA04D2BAEE060AB9
:1014200084ED110A00E000BF94ED190AF2EE060AFD
:10143000B4EEE00AF1EE10FA04DDB2EE060A84ED35
:10144000190AEEE394ED190AFAEE060AB4EEE00A80
:10145000F1EE10FA04D2BAEE060A84ED190AE0E3BE
:10146000DFE3062E76D1FE480068FFF764F841EC12
:10147000180B9FEDFC0B53EC102BFFF787F86AD28B
:10148000B2EE0C0A84ED000AB2EE0C0A84ED080AF2
:10149000B3EE020A84ED100AB3EE020A84ED180AD4
:1014A000EF4890ED000AF1EE0C0A20EE200A84EDE0
:1014B000050A90ED000AF1EE0C0A20EE200A84EDF8
:1014C0000D0A90ED000AF1EE0C0A20EE200A84EDE0
:1014D000150A90ED000AF1EE0C0A20EE200A84EDC8
:1014E0001D0A94ED050AF1EE0C0AB4EEE00AF1EEE5
:1014F00010FA04DDB1EE0C0A84ED050A0EE094ED5D
:10150000050AF9EE0C0AB4EEE00AF1EE10FA04D284
:10151000B9EE0C0A84ED050A00E000BF94ED0D0A57
:10152000F1EE0C0AB4EEE00AF1EE10FA04DDB1EED1
:101530000C0A84ED0D0A10E094ED0D0AF9EE0C0A88
:10154000B4EEE00AF1EE10FA06D2B9EE0C0A84ED20
:101550000D0A02E031E15CE000BF94ED150AF1EE06
:101560000C0AB4EEE00AF1EE10FA04DDB1EE0C0A5A
:1015700084ED150A0EE094ED150AF9EE0C0AB4EEAE
:10158000E00AF1EE10FA04D2B9EE0C0A84ED150A65
:1015900000E000BF94ED1D0AF1EE0C0AB4EEE00A83
:1015A000F1EE10FA04DDB1EE0C0A84ED1D0A0EE036
:1015B00094ED1D0AF9EE0C0AB4EEE00AF1EE10FA11
:1015C00004D2B9EE0C0A84ED1D0A00E000BFA74862
:1015D00090ED000AF1EE040A20EE200A84ED010AE3
:1015E00090ED000AF1EE040A20EE200A84ED090ACB
:1015F00090ED000AF1EE040A20EE200A84ED110AB3
:1016000090ED000AF1EE040A20EE200A84ED190A9A
:1016100096E393480068FEF78EFF41EC180B9FEDB0
:10162000940B53EC102BFEF799FFF1D2B3EE020AA4
:1016300084ED000AB3EE020A84ED080AB2EE0C0A49
:1016400084ED100AB2EE0C0A84ED180A844890ED7D
:10165000000AF1EE0C0A20EE200A84ED050A90ED56
:10166000000AF1EE0C0A20EE200A84ED0D0A90ED3E
:10167000000AF1EE0C0A20EE200A84ED150A90ED26
:10168000000AF1EE0C0A20EE200A84ED1D0A94ED0A
:10169000050AF1EE0C0AB4EEE00AF1EE10FA04DDF0
:1016A000B1EE0C0A84ED050A0EE094ED050AF9EEA0
:1016B0000C0AB4EEE00AF1EE10FA04D2B9EE0C0A0C
:1016C00084ED050A00E000BF94ED0D0AF1EE0C0A6E
:1016D000B4EEE00AF1EE10FA04DDB1EE0C0A84ED8E
:1016E0000D0A0EE094ED0D0AF9EE0C0AB4EEE00AD4
:1016F000F1EE10FA04D2B9EE0C0A84ED0D0A00E006
:1017000000BF94ED150AF1EE0C0AB4EEE00AF1EE1A
:1017100010FA04DDB1EE0C0A84ED150A0EE094ED2A
:10172000150AF9EE0C0AB4EEE00AF1EE10FA04D252
:10173000B9EE0C0A84ED150A00E000BF94ED1D0A15
:10174000F1EE0C0AB4EEE00AF1EE10FA04DDB1EEAF
:101750000C0A84ED1D0A0EE094ED1D0AF9EE0C0A48
:10176000B4EEE00AF1EE10FA04D2B9EE0C0A84ED00
:101770001D0A00E000BF3D4890ED000AF1EE040AAA
:1017800020EE200A84ED010A90ED000AF1EE040A31
:1017900020EE200A84ED090A90ED000AF1EE040A19
:1017A00020EE200A84ED110A90ED000AF1EE040A01
:1017B00020EE200A84ED190AC2E2012E0FD1B2EE0A
:1017C0000C0A84ED000AB2EE0C0A84ED080AB3EEAE
:1017D000020A84ED100AB3EE020A84ED180AB5F984
:1017E000080040F24C4188425CDB042E5AD1B3EE33
:1017F000060A84ED000AB3EE060A84ED080AB3EE89
:10180000060A84ED100AB3EE060A84ED180A1A4897
:10181000D0ED000A9FED190AB0EE001A01EE200A81
:1018200084ED020AD0ED000A9FED140AB0EE001A12
:1018300001EE200A84ED0A0AD0ED000A9FED0F0A9E
:10184000B0EE001A01EE200A84ED120AD0ED000A73
:101850009FED0A0AB0EE001A01EE200A10E0000027
:101860000C0100209A9999999999A93F1801002093
:101870009A9999999999A9BF1C0100209A99E940D0
:1018800084ED1A0AB6EE000A84ED040AB6EE000AE8
:1018900084ED0C0AB6EE000A84ED140AB6EE000AD6
:1018A00084ED1C0A3046FFF763FBFB4890ED000A0D
:1018B000FA48D0ED000A30EE200AF2EE060A20EED9
:1018C000200A84ED010AF44890ED000AF348D0EDB7
:1018D000000A30EE200AF2EE060A20EE200A84ED1D
:1018E000090AED4890ED000AEC48D0ED000A30EE10
:1018F000600AF2EE060A20EE200A84ED110AE6489C
:1019000090ED000AE548D0ED000A30EE600AF2EEF4
:10191000060A20EE200A84ED190A052E78D1E04847
:1019200090ED000AF1EE0C0A20EE200A84ED050A83
:1019300090ED000AF1EE0C0A20EE200A84ED0D0A6B
:1019400090ED000A00E0F8E1F1EE0C0A20EE200A2A
:1019500084ED150A90ED000AF1EE0C0A20EE200A43
:1019600084ED1D0A94ED050AF1EE0C0AB4EEE00ACE
:10197000F1EE10FA04DDB1EE0C0A84ED050A0EE07A
:1019800094ED050AF9EE0C0AB4EEE00AF1EE10FA55
:1019900004D2B9EE0C0A84ED050A00E000BF94ED14
:1019A0000D0AF1EE0C0AB4EEE00AF1EE10FA04DDD5
:1019B000B1EE0C0A84ED0D0A0EE094ED0D0AF9EE7D
:1019C0000C0AB4EEE00AF1EE10FA04D2B9EE0C0AF9
:1019D00084ED0D0A00E000BF94ED150AF1EE0C0A4B
:1019E000B4EEE00AF1EE10FA04DDB1EE0C0A84ED7B
:1019F000150A0FE094ED150AF9EE0C0AB4EEE00AB0
:101A0000F1EE10FA05D2B9EE0C0A84ED150A01E0E8
:101A10001DE000BF94ED1D0AF1EE0C0AB4EEE00AE1
:101A2000F1EE10FA04DDB1EE0C0A84ED1D0A48E176
:101A300094ED1D0AF9EE0C0AB4EEE00AF1EE10FA8C
:101A400004D2B9EE0C0A84ED1D0A3AE139E1B5F988
:101A5000080040F24C41884278DB042E76D1904851
:101A600090ED000AF1EE040A20EE200A84ED050A4A
:101A700090ED000AF1EE040A20EE200A84ED0D0A32
:101A800090ED000AF1EE040A20EE200A84ED150A1A
:101A900090ED000AF1EE040A20EE200A84ED1D0A02
:101AA00094ED050AF1EE040AB4EEE00AF1EE10FA44
:101AB00004DDB1EE040A84ED050A0EE094ED050A9A
:101AC000F9EE040AB4EEE00AF1EE10FA04D2B9EE2F
:101AD000040A84ED050A00E000BF94ED0D0AF1EE62
:101AE000040AB4EEE00AF1EE10FA04DDB1EE040AE5
:101AF00084ED0D0A0EE094ED0D0AF9EE040AB4EE41
:101B0000E00AF1EE10FA04D2B9EE040A84ED0D0AEF
:101B100000E000BF94ED150AF1EE040AB4EEE00A0D
:101B2000F1EE10FA04DDB1EE040A84ED150A0FE0BF
:101B300094ED150AF9EE040AB4EEE00AF1EE10FA9B
:101B400005D2B9EE040A84ED150A01E01DE000BFDC
:101B500094ED1D0AF1EE040AB4EEE00AF1EE10FA7B
:101B600004DDB1EE040A84ED1D0AAAE094ED1D0A1D
:101B7000F9EE040AB4EEE00AF1EE10FA04D2B9EE7E
:101B8000040A84ED1D0A9CE09BE0454890ED000AA4
:101B9000F2EE060A20EE200A84ED050A90ED000A16
:101BA000F2EE060A20EE200A84ED0D0A90ED000AFE
:101BB000F2EE060A20EE200A84ED150A90ED000AE6
:101BC000F2EE060A20EE200A84ED1D0A94ED050AC5
:101BD000F2EE060AB4EEE00AF1EE10FA04DDB2EE1F
:101BE000060A84ED050A0EE094ED050AFAEE060AEF
:101BF000B4EEE00AF1EE10FA04D2BAEE060A84ED71
:101C0000050A00E000BF94ED0D0AF2EE060AB4EEFC
:101C1000E00AF1EE10FA05DDB2EE060A84ED0D0AD7
:101C20000FE08DE094ED0D0AFAEE060AB4EEE00A3C
:101C3000F1EE10FA04D2BAEE060A84ED0D0A00E0C5
:101C400000BF94ED150AF2EE060AB4EEE00AF1EEDA
:101C500010FA04DDB2EE060A84ED150A0EE094EDEA
:101C6000150AFAEE060AB4EEE00AF1EE10FA04D212
:101C7000BAEE060A84ED150A00E000BF94ED1D0AD5
:101C8000F2EE060AB4EEE00AF1EE10FA0ADDB2EE68
:101C9000060A84ED1D0A14E018010020140100203A
:101CA0001001002094ED1D0AFAEE060AB4EEE00AD7
:101CB000F1EE10FA04D2BAEE060A84ED1D0A00E035
:101CC00000BF3046FFF754F91F4890ED000A1F4847
:101CD000D0ED000A30EE200AF2EE060A20EE200ACD
:101CE00084ED010A184890ED000A1848D0ED000A6A
:101CF00030EE200AF2EE060A20EE200A84ED090AF0
:101D0000114890ED000A1148D0ED000A30EE600A4B
:101D1000F2EE060A20EE200A84ED110A0A4890ED40
:101D2000000A0A48D0ED000A30EE600AF2EE060A18
:101D300020EE200A84ED190A02E03046FFF718F978
:101D4000BDEC068B70BD00001801002014010020BE
:101D500030B52DED068B89B0054600240020069095
:101D60000790089001E0601CC4B2285D5528FAD1A4
:101D7000C4F10B02291906A8FEF7C7FA6CB10020BE
:101D800000BF07E0295CC4F10B02024406AB995482
:101D9000411CC8B2A042F5DB00BF9DF818005528D1
:101DA00072D19DF81900512804D052286ED05328C2
:101DB00069D1BDE0DDF81A000490DDF81E00059041
:101DC000BDF91000FEF7A6FB41EC1A0B9FED840B4A
:101DD00053EC102BFEF72FFB41EC190B9FED820B00
:101DE00053EC102BFEF7B5FA41EC180B9FED800B6E
:101DF00053EC102BFEF7ADFA41EC100B7E4880ED52
:101E0000000BBDF91200FEF785FB41EC1A0B9FEDAC
:101E1000740B53EC102BFEF70EFB41EC190B9FEDEE
:101E2000720B53EC102BFEF794FA41EC180B9FED5C
:101E3000700B53EC102BFEF78CFA41EC100B6E4834
:101E400080ED020BBDF91400FEF764FB41EC1A0BA8
:101E50009FED630B53EC102BFEF7EDFA41EC190BE1
:101E60009FED610B53EC102BFEF773FA41EC180B4E
:101E70009FED5F0B53EC102BFEF76BFA41EC100B50
:101E80005D4880ED040BA5E0A6E0FFE7DDF81A0051
:101E90000290DDF81E000390BDF90800FEF73AFB42
:101EA00041EC190B9FED550B53EC102BFEF751FA3B
:101EB00041EC180B9FED4A0B53EC102BFEF7BBFACD
:101EC00041EC100B4F4880ED000BBDF90A00FEF706
:101ED00021FB41EC190B9FED490B53EC102BFEF746
:101EE00038FA41EC180B9FED3E0B53EC102BFEF72C
:101EF000A2FA41EC100B434880ED020BBDF90C0037
:101F0000FEF708FB41EC190B9FED3C0B53EC102B3B
:101F1000FEF71FFA41EC180B9FED310B53EC102B21
:101F2000FEF789FA41EC100B364880ED040B51E0C6
:101F3000DDF81A000090DDF81E000190BDF90000E8
:101F4000FEF7E8FA41EC190B9FED2F0B53EC102B29
:101F5000FEF7FFF941EC180B9FED210B53EC102B12
:101F6000FEF769FA41EC100B294880ED000BBDF932
:101F70000200FEF7CFFA41EC190B9FED230B53EC57
:101F8000102BFEF7E6F941EC180B9FED150B53EC07
:101F9000102BFEF750FA41EC100B1D4880ED020BA0
:101FA000BDF90400FEF7B6FA41EC190B9FED160BD4
:101FB00053EC102BFEF7CDF941EC180B9FED080BFD
:101FC00053EC102BFEF737FA41EC100B104880ED64
:101FD000040B00BF00BF00BF09B0BDEC068B30BDD5
:101FE000000000000000E040000000000000304061
:101FF0009A9999999999234020090020000000009E
:1020000000409F403809002000000000008066402A
:102010005009002070B505460C4655480078222826
:102020000AD1544908700720FEF7A2FF06F00AFD06
:1020300000205149087070BD06F01AFEB4F9000086
:10204000B0F5806F29D1B4F90200B0F5806F24D1CA
:10205000B4F90400B0F5806F1FD1B4F90600B0F5F3
:10206000806F1AD1052006F0B5FFB4F90000B0F575
:10207000806F11D1B4F90200B0F5806F0CD1B4F9C2
:102080000400B0F5806F07D1B4F90600B0F5806F99
:1020900002D10720FEF76CFFCDE7364800783449BF
:1020A0000978884214D0324806784FF4FA7006F066
:1020B00091FF304800782E490978884207D02C4893
:1020C0000078B04203D12A4800782A49087000BF3E
:1020D00007F03AFF27480078212833D006DC112882
:1020E00014D0122834D013283CD135E0232807D04F
:1020F000332837D1042221462846FEF74FFF32E02D
:10210000052221462846FEF749FF2CE0B4F90200DB
:10211000B0F5C86F08DDB4F90600B0F5C86F03DD8F
:102120000A20FEF725FF0CE0B4F90200B0F5C87FE5
:1021300007DAB4F90600B0F5C87F02DA0920FEF725
:1021400017FF10E0012221462846FEF727FF0AE08C
:102150000020FEF70DFF00BF062221462846FEF7AD
:102160001DFF00E000BF00BF07F018FF00BF62E7DF
:102170002400002020010020FC00002070B52DED7F
:10218000048BF0EE408A0446B0EE609A0D4694ED62
:10219000010AB5EEC00AF1EE10FA04D294ED010A7C
:1021A000B1EE400A01E094ED010AB0EE408A5548D4
:1021B000007801280BD053480078022807D05148F6
:1021C0000078032803D04F480078042807D184ED15
:1021D000079A4C480078401C4A49087002E00020E9
:1021E0004849087094ED070AD4ED050A94ED061AE3
:1021F00038EEC11A00EE810A84ED070AC4ED068AA2
:10220000D4ED070AB0EE600AF7EE000A06F0E8F82F
:1022100084ED070A94ED070AD4ED040AB4EEE00A4F
:10222000F1EE10FA28D8F0EE000A88EE200A94EDBC
:10223000071AD4ED041AC1EE210A10EE880A85EDC2
:10224000000A94ED070ADFED300A20EE200AD4EDF3
:10225000040A80EE201AF0EE419AB0EE690A06F008
:1022600017F9D4ED000A94ED021AB1EE411A41EECD
:10227000000AC5ED010A2EE094ED070AD4ED040A28
:1022800030EE600AD4ED040AB7EE001A71EE600A6F
:1022900080EE201AF0EE419AF0EE000A88EE200A55
:1022A000F1EE690A00EE880A85ED000ADFED160AF4
:1022B00069EEA00AB0EE600A06F0EAF8D4ED000A72
:1022C00094ED031A41EE000AB7EE000A80EE801A80
:1022D00085ED011A00BF94ED010AB5EEC00AF1EEDA
:1022E00010FA09D295ED000AB1EE400A85ED000A18
:1022F00001200649087002E0002004490870BDEC86
:10230000048B70BD3C050020DB0F494035050020E3
:102310000FB438B50E9C0E48046000200C4988604C
:10232000C86008200861FF200A490870487088705A
:10233000C870087148718871FD20C8716B460A46E3
:10234000034904A800F019FA38BC5DF814FB00003A
:10235000680900209400002010B592B0282234496A
:1023600008A8FDF7D2FF08A9324800F0B1FA0E2004
:102370000D9008A9304800F0ABFA20222C492831F2
:102380006846FDF7C2FF00240BE004EBC40101EB3B
:1023900004112A4A02EB8100694604F0C9FC601C62
:1023A000C4B2082CF1DBB0EE0C0A8DED000A9FEDF3
:1023B000240A8DED010A9FED220A8DED020A69467D
:1023C000204804F0B5FC1020049000200590B7EEE2
:1023D000080A8DED000A9FED1A0A8DED010A9FEDA6
:1023E0001A0A8DED020A6946184804F0A1FC00247F
:1023F0000CE004EB4401164A02EBC100F3EE040AC0
:10240000B2EE080A04F040FF601CC4B2042CF0DBFA
:10241000084800F080FE0221064800F099F90648BD
:1024200000F079FE0221044800F092F912B010BDCC
:1024300060B40008E005002008060020800A0020A3
:1024400000000000A00D00200AD7233C040E00204D
:10245000640F002010B5044800F000FF202003495D
:1024600081F8390010BD0000E407002004070020B7
:1024700010B5024800F0F2FE10BD00004408002034
:1024800010B5024800F0EAFE10BD000084070020ED
:1024900010B5024800F0E2FE10BD000084070020E5
:1024A0000146087810381823B0FBF3F20848805C26
:1024B000C865032A05D908686FF30900001D8865FF
:1024C00003E008686FF309008865886D70470000B5
:1024D00008B50008014600208A6A8B69CBB932B181
:1024E000012A0DD0022A03D0032A10D10EE000BF2A
:1024F000CB6A03F08073B3F1807F00D1012007E045
:10250000CB6AB3F1C07F00D1012001E000E000BF41
:1025100034E08B69B3F5005F1AD132B1012A07D0DC
:10252000022A03D0032A11D10AE000BF01200EE0E5
:10253000CB6A03F08073B3F1807F00D1012006E005
:10254000CB6AB3F1C07F00D1012000E000BF15E0ED
:1025500032B1012A05D0022A04D0032A0CD103E0AB
:1025600000BF00BF012008E0CB6A03F08073B3F125
:10257000807F00D1012000E000BF00BF704730B570
:102580000468246824F4802405682C60046863606F
:102590008468402C04D10468A2600468E16003E010
:1025A0000468A1600468E26030BD704723E012480F
:1025B000007880B94FF4807004F012F84FF4FA708C
:1025C00006F008FD4FF4807003F0F0FF4FF4FA704E
:1025D00006F000FD0FE04FF4007004F001F84FF436
:1025E000FA7006F0F7FC4FF4007003F0DFFF4FF4D1
:1025F000FA7006F0EFFCDAE7E000002038B5054697
:102600000C460A490094CA882B460868802107F0C6
:10261000DDFB0649C9880819C11700EB5161C911D2
:10262000A0EBC111014AD18038BD00008410002008
:102630000FB438B50E9C0E48046000200C49886029
:10264000C86008200861FF200A4908704870887037
:10265000C870087148718871FC20C8716B460A46C1
:10266000034904A800F089F838BC5DF814FB0000A9
:10267000680900209400002072B600BFFEE7000049
:1026800010B503460C46A078617840EA01202B493A
:1026900001EB43114860E0780001217940EA211004
:1026A000264901EB431188606079217901F00F011F
:1026B00040EA0120214901EB4311C86020781F49FD
:1026C00001EB431108701D4901EB431148681021CB
:1026D000F0EE090AB8EE090A07F0BAFB174800EB5A
:1026E000431080ED050A154901EB431188680C2160
:1026F000DFED130A9FED130A07F0AAFB0F4800EB6A
:10270000431080ED060A0D4901EB4311C8680C2106
:10271000DFED0D0A9FED0D0A07F09AFB074800EB6D
:10272000431080ED070AA079044901EB43110874B6
:10273000E079024901EB4311487410BD8009002083
:1027400000003442000034C200005842000058C269
:1027500010B5024692F82030012B01D0022B06D191
:1027600010684069084314686061002010BD506A19
:1027700040F4802050620120F8E7F0B504460D4691
:102780001E4694F8207020688368A86800B900E0AD
:1027900000BF012F01D0022F7CD103F0806030B93F
:1027A00003F0006018B903F08050002873D0C3F321
:1027B0000161022905D9606A40F4000060620120CD
:1027C000F0BD012088403060A86860B9B5F800C04D
:1027D000E86840EA4C5C206800F5C07000EB01102E
:1027E000C0F800C00FE0D5E901C040EACC00D5F840
:1027F0000CC040EA0C00D4F800C00CF5C07C0CEB17
:10280000011CCCF80000D5F810C0206800F5C0709D
:1028100000EB0110C0F804C0287D01280ED120680B
:1028200000F5C07000EB0110406840F4807C206827
:1028300000F5C07000EB0110C0F804C0D0790006AC
:1028400092F806C040EA0C4092F805C040EA0C2C11
:1028500010794CEA000C206800F5C07000EB011004
:10286000C0F80CC0D078000692F802C040EA0C40D4
:1028700092F801C040EA0C2092F800C040EA0C0037
:10288000D4F800C00CF5C07C0CEB011CCCF808009F
:10289000206801E016E00FE000F5C07000EB0110C9
:1028A000006840F0010C206800F5C07000EB0110DA
:1028B000C0F800C0002083E7606A40F40010606246
:1028C00001207DE7606A40F480206062012077E7A4
:1028D000F0B504460A46216894F82050012D01D035
:1028E000022D7ED1424901F50071086840F00100D7
:1028F0000860086820F47C5008600868566A40EA5E
:1029000006200860107D00F01F06012000FA06F383
:10291000C8699843C861A1F50071D069C8B9D1F8F8
:102920000C029843C1F80C02908880B2968940EA64
:10293000064601F51070576940F83760108880B27C
:10294000168940EA064601F51070576900EBC7008A
:102950004660D069012819D1D1F80C021843C1F89A
:102960000C02908880B2168840EA064601F5107085
:10297000576940F83760908980B2168940EA064668
:1029800001F51070576900EBC7004660906928B9DF
:10299000D1F804029843C1F8040204E0D1F804021B
:1029A0001843C1F80402106928B9D1F814029843F9
:1029B000C1F8140204E0D1F814021843C1F814025B
:1029C000106A012804D1D1F81C021843C1F81C0276
:1029D000D1F8000220F00100C1F800020020F0BD93
:1029E000FFE7606A40F4802060620120F7E70000A2
:1029F00000640040704770B5044694F82050012DE3
:102A000001D0022D7DD151B92068C06800F00300CB
:102A100080B9606A40F400106062012070BD2068D7
:102A2000006900F0030028B9606A40F40010606299
:102A30000120F3E7206800F5D87000EB0110006872
:102A400000F004009060906840B9206800F5D870EC
:102A500000EB01100068400D106007E0206800F5F1
:102A6000D87000EB01100068C0085060206800F5C5
:102A7000D87000EB0110006800F00200D060206800
:102A800000F5D87000EB0110406800F00F001061F5
:102A9000206800F5D87000EB0110406800F47F401A
:102AA000000A9061206800F5D87000EB01104068C2
:102AB000000C5061206800F5D87000EB01108068B0
:102AC0001870206800F5D87000EB0110806800F4E1
:102AD0007F40000A5870206800F5D87000EB0110A4
:102AE000806800F47F00000C9870206800F5D870B2
:102AF00000EB01108068000ED870206800F5D870D7
:102B000000E02FE000EB0110C0681871206800F5AC
:102B1000D87000EB0110C06800F47F40000A5871C3
:102B2000206800F5D87000EB0110C06800F47F0049
:102B3000000C9871206800F5D87000EB0110C06897
:102B4000000ED87131B92068C06840F020002668B6
:102B5000F06005E02068006940F0200026683061E0
:102B600000205BE7606A40F480206062012055E746
:102B70000146002091F82020012A01D0022A11D11B
:102B80000B689B6803F0806303B1401C0B689B6873
:102B900003F0006303B1401C0B689B6803F0805393
:102BA00003B1401C70472DE9F05F04460025206802
:102BB00046692068D0F80490206887682068D0F8BB
:102BC0000CA02068D0F810B02068D0F8188006F06B
:102BD0000100002855D007F00100C0B10120216894
:102BE000886007F0020018B1204600F0C4FA0EE039
:102BF00007F0040010B145F4006508E007F0080094
:102C000010B145F4805502E0204600F0B3FA07F415
:102C10008070C8B14FF480702168886007F400703C
:102C200018B1204600F0A9FA0EE007F4806010B158
:102C300045F4005508E007F4006010B145F4804504
:102C400002E0204600F098FA07F48030C8B14FF453
:102C500080302168886007F4003018B1204600F009
:102C60008EFA0EE007F4802010B145F4004508E02C
:102C700007F4002010B145F4803502E0204600F052
:102C80007DFA06F0080038B10AF0100020B145F4D2
:102C9000007510202168C86006F0040040B10AF0F9
:102CA000080028B108202168C860204600F00EFA0C
:102CB00006F0020038B12068C06800F0030010B1CF
:102CC000204600F005FA06F0400038B10BF0100085
:102CD00020B145F4806510202168086106F02000CD
:102CE00040B10BF0080028B1082021680861204697
:102CF00000F00EFA06F0100038B12068006900F00C
:102D0000030010B1204600F004FA06F4003040B190
:102D100009F0100028B1102021684860204600F01A
:102D2000F9F906F4803040B109F0080028B1082014
:102D300021684860204600F023FA06F4004088B37A
:102D400009F0040078B306F4807020B108F00100A7
:102D500008B145F0010506F4007020B108F002004A
:102D600008B145F0020506F4806020B108F00400C7
:102D700008B145F0040506F40060A0B108F0700049
:102D800088B108F07000402817D006DC10280BD05E
:102D900020280CD0302819D10CE0502810D0602801
:102DA00014D110E01DE019E045F008050FE045F0F2
:102DB00010050CE045F0200509E045F0400506E06F
:102DC00045F0800503E045F4807500E000BF00BFDA
:102DD0002068806920F070002168886104202168E3
:102DE00048602DB1606A284360622046FFF702FE0A
:102DF000BDE8F09F70B504460CB9012070BD94F891
:102E0000200010B9204600F0AFF82068006820F0DC
:102E100002002168086000F023FD05460DE000F087
:102E20001FFD401B0A2808D9606A40F40030606228
:102E3000052084F820000120E0E72068406800F0C9
:102E400002000028EBD12068006840F001002168F2
:102E5000086000F005FD05460DE000F001FD401B97
:102E60000A2808D9606A40F400306062052084F8BE
:102E700020000120C2E72068406800F0010000281F
:102E8000EBD0207E012806D12068006840F0800049
:102E90002168086005E02068006820F08000216853
:102EA0000860607E012806D12068006840F040007C
:102EB0002168086005E02068006820F04000216873
:102EC0000860A07E012806D12068006840F020003C
:102ED0002168086005E02068006820F02000216873
:102EE0000860E07E012806D12068006820F010000C
:102EF0002168086005E02068006840F01000216843
:102F00000860207F012806D12068006840F0080092
:102F10002168086005E02068006820F0080021684A
:102F20000860607F012806D12068006840F0040036
:102F30002168086005E02068006820F0040021682E
:102F40000860D4E902010843216908436169084324
:102F50006168491E08432168C86100206062012041
:102F600084F82000002049E710B586B004461421FB
:102F700001A8FDF7E3F94F492068884241D14E4846
:102F80000068401C4C4908600846006801280FD1C1
:102F900000BF002000904948006840F00070474999
:102FA00008600846006800F00070009000BF00BF95
:102FB00000BF0020009041481038006840F0080031
:102FC0003E49103908600846006800F0080000908B
:102FD00000BF00BF03200190022002900020039058
:102FE000032004900920059001A9354800F02AFB30
:102FF00000220521142000F05BFF142000F048FFA0
:1030000055E030492068884251D100BF002000902F
:103010002A48006840F08060284908600846006837
:1030200000F08060009000BF00BF23480068401C93
:10303000214908600846006801280FD100BF002020
:1030400000901E48006840F000701C490860084667
:10305000006800F00070009000BF00BF00BF0020BB
:10306000009016481038006840F0020013491039EB
:1030700008600846006800F00200009000BF00BF32
:103080004FF4405001900220029000200390032052
:1030900004900920059001A90B4800F0D3FA002202
:1030A0000521402000F004FF402000F0F1FE06B0B2
:1030B00010BD0000006400402000002040380240A5
:1030C000000C02400068004000040240704700000D
:1030D00010B58AB004460C492068884203D00B49D9
:1030E000206888420DD101AB03AA00212046FFF7DA
:1030F00082FC0398072804D8039988B201A9FFF736
:10310000BFFA0AB010BD0000006400400068004033
:1031100070477047704770B5044694F82000012846
:1031200022D1022084F820002068006820F00100ED
:103130002168086000F094FB05460DE000F090FB6C
:10314000401B0A2808D9606A40F4003060620520FC
:1031500084F82000012070BD2068406800F0010064
:103160000028EBD16062F6E7606A40F400206062FC
:103170000120F0E77047704770477047704770470D
:10318000704770B50446A56D00F06AFB064694F8DA
:103190003500022808D08020606500BF002084F838
:1031A000340000BF012070BD2068006820F01600C8
:1031B000216808602068406920F08000216848612B
:1031C000206C08B9A06C28B12068006820F00800C5
:1031D000216808602068006820F00100216808600C
:1031E0000FE000F03DFB801B05280AD92020606518
:1031F00000BF002084F8340000BF032084F83500AD
:10320000D1E72068006800F001000028E9D194F8B7
:103210005C103F208840A86000BF002084F8340084
:1032200000BF012084F835000020BCE7014691F87A
:103230003500022803D08020486501207047052012
:1032400081F835000868006820F001000A68106005
:103250000020F3E7014691F835007047F8B50446C1
:10326000002000908C4800684FF41651B0FBF1F735
:10327000A56D2E6894F85C1008208840304098B105
:103280002068006800F0040070B12068006820F039
:1032900004002168086094F85C1008208840A86049
:1032A000606D40F00100606594F85C10012088407A
:1032B000304068B12068406900F0800040B194F867
:1032C0005C1001208840A860606D40F002006065DD
:1032D00094F85C1004208840304068B12068006891
:1032E00000F0020040B194F85C1004208840A8600F
:1032F000606D40F00400606594F85C101020884018
:10330000304078B32068006800F0080050B394F8AB
:103310005C1010208840A8602068006800F48020BD
:1033200080B12068006800F4002028B9206CC8B182
:103330002046216C884715E0A06C98B12046A16C0E
:1033400088470FE02068006800F4807028B9206882
:10335000006820F0080021680860206C10B1204649
:10336000216C884794F85C10202088403040002869
:1033700065D02068006800F0100000285FD094F845
:103380005C1020208840A86094F83500052828D1DA
:103390002068006820F016002168086020684069F5
:1033A00020F0800021684861206C08B9A06C28B129
:1033B0002068006820F008002168086094F85C101C
:1033C0003F208840A86000BF002084F8340000BF80
:1033D000012084F83500206D10B12046216D88470A
:1033E000F8BD2068006800F4802080B12068006883
:1033F00000F4002028B9606C10B12046616C884749
:103400001DE0E06BD8B12046E16B884717E02068EB
:10341000006800F4807068B92068006820F010002F
:103420002168086000BF002084F8340000BF01203C
:1034300084F83500E06B10B12046E16B8847606D81
:1034400038B3606D00F00100F0B1052084F835005C
:103450002068006820F001002168086000BF009823
:10346000401C0090B84200D905E02068006800F0D8
:1034700001000028F3D100BF00BF002084F8340011
:1034800000BF012084F83500E06C10B12046E16CEB
:10349000884700BFA4E70000600500202DE9F04147
:1034A0000446002500F0DCF9074614B90120BDE808
:1034B000F081606A00B100BF00BF002084F83400D2
:1034C00000BF022084F835002068006820F0010069
:1034D000216808600AE000F0C3F9C01B052805D97F
:1034E00020206065032084F83500E0E7206800684C
:1034F00000F001000028EED1206805682148054051
:10350000D4E901010843E16808432169084361697E
:103510000843A1690843E1690843216A0843054358
:10352000606A042803D1D4E90B01084305432068ED
:1035300005602068456925F00705606A0543606AF3
:1035400004280DD1A06A0543E06A48B12046FEF781
:10355000C1FF28B140206065012084F83500A6E74E
:10356000206845612046FEF79BFF064694F85C10F4
:103570003F208840B06000206065012084F835005D
:10358000002094E73F8010F02DE9F04704460D46F7
:1035900016461F464FF00008D4F8589000BF94F824
:1035A0003400012802D10220BDE8F087012084F810
:1035B000340000BF94F83500012825D1022084F89A
:1035C0003500002060653B46324629462046FEF71E
:1035D000D6FF94F85C103F208840C9F808002068A6
:1035E000006840F0160021680860206C28B120684F
:1035F000006840F00800216808602068006840F01A
:1036000001002168086006E000BF002084F8340053
:1036100000BF4FF002084046C6E7000070B5044600
:1036200000F01EF906462546681C10B104480078D3
:10363000054400BF00F014F9801BA842FAD370BD06
:103640005C050020F8B502460B460025002400204A
:103650000021E6E0012606FA01F51E6806EA0504E7
:10366000AC4273D15E68012E08D05E68022E05D090
:103670005E68112E02D05E68122E13D190684F0042
:103680000326BE40B0434F00DE68BE40304390602A
:10369000506801268E40B0431E79C6F300168E4056
:1036A00030435060D0684F000326BE40B0434F0007
:1036B0009E68BE403043D0605E68022E02D05E68D5
:1036C000122E13D1CF0802F1200656F827004E071C
:1036D000F70E0F26BE40B0434F07FF0E1E69BE40D7
:1036E0003043CF0802F1200646F8270010684F004B
:1036F0000326BE40B0431E7906F003064F00BE40CD
:10370000304310605E6806F08056B6F1805FA8D145
:1037100000BF00260096454E366846F48046434F6B
:103720003E603E46366806F48046009600BF00BF05
:103730003F4E8F0856F827008E07370F0F26BE40E2
:10374000B0433C4EB24202D100262EE068E03A4E31
:10375000B24201D1012628E0384EB24201D1022600
:1037600023E0374EB24201D103261EE0354EB2426D
:1037700001D1042619E0344EB24201D1052614E0ED
:10378000324EB24201D106260FE0314EB24201D193
:1037900007260AE02F4EB24201D1082605E02E4E40
:1037A000B24201D1092600E00A268F073F0FBE4032
:1037B00030431F4E8F0846F82700284E3068A0433C
:1037C0005E6806F48036B6F5803F00D12043234E74
:1037D0003060361D3068A0435E6806F40036B6F5EA
:1037E000003F00D120431D4E361D3060361D30682D
:1037F000A0435E6806F48016B6F5801F00D1204312
:10380000164E08363060361D3068A0435E6806F4F8
:103810000016B6F5001F00D12043104E0C36306064
:10382000491C1029FFF416AFF8BD000044380240CF
:103830000838014000000240000402400008024035
:10384000000C024000100240001402400018024028
:10385000001C02400020024000240240003C0140C5
:10386000014800687047000054050020024692F8A5
:103870003D0020281ED1242082F83D0010680068F9
:1038800020F00100136818601068406A20F01000F2
:10389000136858621068406A0843136858621068D9
:1038A000006840F0010013681860202082F83D0095
:1038B000002070470220FCE710B502460B460021AD
:1038C00092F83D0020281DD1242082F83D00106888
:1038D000006820F00100146820601068406A81B21E
:1038E00021F00F0141EA030081B2106841621068C3
:1038F000006840F0010014682060202082F83D003C
:10390000002010BD0220FCE7704770472DE9F0470A
:1039100005464FF0000828684668D5F82C9095F8C1
:103920003E7095F83DA0102F01D0402F7FD1286820
:10393000D0F818802868446904F0010060B9B9F52E
:103940002A0F02D0B9F12A4F01D1012000E0002056
:10395000012801D1BDE8F08704F0010048B1C6F3A9
:10396000402030B1284601F027FC284602F082F8BA
:10397000B4E0C4F3C00030B1C6F3402018B128460B
:1039800001F02FFFAAE0C4F3400030B1C6F340209D
:1039900018B1284601F03AFFA0E0C8F3800028B330
:1039A0002868406800F40060B0F5006FE0D0C4F310
:1039B000C01048B1C6F3802030B1C4F3800018B9FC
:1039C000284601F0A2FE89E0C4F380000028CFD091
:1039D000C6F340200028CBD0102F03D1284601F099
:1039E0004FFE7BE0284602F094F877E028684068B4
:1039F00000F40060B0F5006F70D0C4F3801050B1D7
:103A0000C6F3802038B1C4F3800020B9284601F005
:103A1000C6FD63E00BE0C4F3800000285ED0C6F36F
:103A2000402000285AD0284601F026FD56E0286C98
:103A300010B12868446904E02868D0F81880286824
:103A40004469C4F3400060B1C6F3402048B1286C1B
:103A500010B12868D0F818804146284602F015F9C0
:103A60003CE0C4F3001030B1C6F3402018B1284642
:103A700002F03EF932E0BAF1210F02D0BAF1290F7B
:103A800016D1C4F3C01048B1C6F3802030B1C4F3DE
:103A9000800018B9284602F0D5F81FE0C4F3800072
:103AA000E0B1C6F34020C8B1284602F0BEF815E0E8
:103AB000C4F3801048B1C6F3802030B1C4F3800055
:103AC00018B9284602F08EF808E0C4F3800028B147
:103AD000C6F3402010B1284602F077F800BF39E75E
:103AE0007047000070B504460CB9012070BD94F811
:103AF0003D0028B9002084F83C00204600F0E0F8A2
:103B0000242084F83D002068006820F0010021682E
:103B100008602068006840F4004021680860206860
:103B2000006820F400402168086000F043FB05466F
:103B30005C496068884206D85B48854201D2012012
:103B400007E0002005E05948854201D2012000E04D
:103B50000020012800D1C9E75548B5FBF0F62068E0
:103B6000406820F03F003043216848604D4960685C
:103B7000884201D8701C07E04FF4967070434FF4F0
:103B80007A71B0FBF1F0401C2168096A21F03F0115
:103B900008432168086243496068884214D8681E57
:103BA00061684900B0FBF1F0401CC0F30B00042831
:103BB00001D204203DE0681E61684900B0FBF1F0CD
:103BC000401CC0F30B0034E0A06838B9681E61687F
:103BD00001EB4101B0FBF1F0401C0AE0681E616896
:103BE00001EBC10202EB0111B0FBF1F0401C40F40B
:103BF0008040C0F30B0008B901201AE0A06848B962
:103C0000681E616801EB4101B0FBF1F0401CC0F39C
:103C10000B000CE0681E616801EBC10202EB0111B0
:103C2000B0FBF1F0401CC0F30B0040F4804040F4C6
:103C300000402168C9694CF6FF729143084321682E
:103C4000C861D4E9070108432168096821F0C0016F
:103C5000084321680860D4E9031008432168896893
:103C600048F2FF329143084321688860D4E9050196
:103C700008432168C96821F0FF0108432168C86032
:103C80002068006840F0010021680860002020647E
:103C9000202084F83D000020206384F83E0000BF0F
:103CA00024E70000A086010080841E0000093D007A
:103CB00040420F00704770477047704770470000E0
:103CC00010B586B00446142101A8FCF737FB1F4944
:103CD0002068884237D100BF002000901C4800684F
:103CE00040F020001A4908600846006800F02000F3
:103CF000009000BF00BF032001901220029001201D
:103D00000390032004900420059001A91148FFF7B7
:103D100099FC00BF002000900D481030006840F46E
:103D200080000B49103108600846006800F48000EC
:103D3000009000BF00BF00220521212000F0B8F84C
:103D4000212000F0A5F806B010BD0000005800408A
:103D50003038024000140240704770470348006842
:103D60000349097808440149086070475405002058
:103D70005C05002010B50D48006840F400700B4948
:103D800008600846006840F48060086008460068E3
:103D900040F480700860032000F0C8F8002000F0B4
:103DA00007F800F04BF8002010BD0000003C024076
:103DB00070B588B004460025002600222146362032
:103DC00000F076F8362000F063F800BF0020019084
:103DD0001648006840F01000144908600846006862
:103DE00000F01000019000BF00BF02A903A800F07E
:103DF000B9F900F0DFF945000D48B5FBF0F0461EBB
:103E00000C480D49086040F2E7310B48C16046603C
:103E100000210161816000F08BFC20B9064800F0B0
:103E2000A2FC08B070BD0120FBE700004038024052
:103E300040420F0000100040A408002008B500BF59
:103E4000002000901148006840F480400F4908604D
:103E50000846006800F48040009000BF00BF00BF2B
:103E600000200090081F006840F08050091F086083
:103E70000846006800F08050009000BF00BF00229C
:103E80000F21901E00F014F808BD000044380240D5
:103E900001460846002809DB00F01F0301229A4072
:103EA00043099B0003F1E023C3F8002100BF7047E2
:103EB0002DE9F05F80460D461646002704F096F87F
:103EC000074639462A46334601F00700C0F1070A83
:103ED000BAF1040F02D94FF0040A01E0C0F1070A59
:103EE000D14600F1040ABAF1070F02D24FF0000ADE
:103EF00001E0A0F1030AD4464FF0010A0AFA09FAD8
:103F0000AAF1010A0AEA020A0AFA0CFA4FF0010BB6
:103F10000BFA0CFBABF1010B0BEA030B4AEA0B04A7
:103F20002146404604F06AF8BDE8F09F00BF00F06B
:103F30000702064B19684FF6FF031940044B0B4369
:103F400043EA0221014B196000BF70470CED00E00D
:103F50000000FA0538B5002400BF002000901D487D
:103F6000006840F080501B4908600846006800F077
:103F70008050009000BF00BF012017490864FFF780
:103F80006FFC044607E0FFF76BFC001BB0F57A7F7F
:103F900001D9032038BD1148406800F48030B0F5E5
:103FA000803FF0D101200C494864FFF759FC0446DA
:103FB00007E0FFF755FC001BB0F57A7F01D903201D
:103FC000E8E70648406800F40030B0F5003FF0D163
:103FD0000020DFE74038024000000E420070004041
:103FE00070B504460D460CB9012070BD58480068F4
:103FF00000F00F00A84209D255490D70084600682C
:1040000000F00F00A84201D00120EEE7207800F078
:10401000020002281DD1207800F00400042805D1F8
:104020004C48006840F4E0504A490860207800F0AD
:104030000800082805D14748006840F46040454919
:1040400008604448006820F0F000A1680843414936
:104050000860207800F00100A8B36068012807D14B
:104060003C4808380068C0F34040B8B90120BCE7BC
:104070006068022802D06068032807D135480838F4
:104080000068C0F3406048B90120AEE73148083805
:104090000068C0F3400008B90120A6E72D48006879
:1040A00020F00300616808432A490860FFF7D8FB45
:1040B000064609E0FFF7D4FB801B41F288318842B5
:1040C00002D9032091E707E02248006800F00C00C5
:1040D0006168B0EB810FEDD11D48006800F00F0062
:1040E000A84209D91A490D700846006800F00F006F
:1040F000A84201D0012078E7207800F004000428CD
:1041000007D11448006820F4E050E16808431149E1
:104110000860207800F00800082808D10D480068E1
:1041200020F46040216940EAC1000A49086000F0BB
:1041300061F808490968C1F30311074A515CC84096
:104140000649086006480068FFF732FE00204CE789
:10415000003C02400838024010B50008600500200D
:10416000580500200F2202600D4A126802F0030277
:1041700042600B4A126802F0F0028260084A12683C
:1041800002F4E052C260064A126802F46042D208A9
:104190000261044A126802F00F020A6070470000D0
:1041A00008380240003C02400148006870470000A7
:1041B0006005002000B5FFF7F7FF04490968C1F367
:1041C0008221034A515CC84000BD0000083802400B
:1041D00020B5000800B5FFF7E7FF04490968C1F3FF
:1041E0004231034A515CC84000BD0000083802401B
:1041F00020B500082DE9F047002400250026A1463F
:104200002548006800F00C0020B1042805D00828DB
:104210003AD105E0DFF8849039E0DFF8849036E0A9
:104220001D48001F006800F03F041B48001F006885
:1042300000F4800078B11A481749091F0968C1F3D2
:104240008811A0FB01700146224600233846FCF786
:104250002BF805460EE011480F49091F0968C1F304
:104260008811A0FB01700146224600233846FCF766
:104270001BF805460848001F0068C0F30140401CB9
:104280004600B5FBF6F902E0DFF8109000BF00BF72
:104290004846BDE8F0870000083802400024F400DA
:1042A000001BB700F8B504460CB90120F8BD207812
:1042B00000F00100002874D0F948006800F00C00FC
:1042C00004280DD0F648006800F00C00082813D12F
:1042D000F348001F006800F48000B0F5800F0BD198
:1042E000EF4808380068C0F34040002859D06068A3
:1042F000002856D10120D9E700BF6068B0F5803FA3
:1043000008D1E7480838006840F48030E4490839AB
:1043100008601EE06068B0F5A02F0DD1E0480838B5
:10432000006840F48020DE490839086008460068CB
:1043300040F4803008600CE0D9480838006820F468
:104340008030D749083908600846006820F480208A
:10435000086000BF606890B1FFF782FA054606E08A
:10436000FFF77EFA401B642801D903209EE7CC4862
:1043700008380068C0F340400028F1D011E0FFF792
:104380006FFA054606E0FFF76BFA401B642801D977
:1043900003208BE7C24808380068C0F3404000287B
:1043A000F1D1207800F0020002285FD1BC480068FB
:1043B00000F00C0058B1BA48006800F00C00082862
:1043C0001CD1B748001F006800F48000B0B9B448A1
:1043D00008380068C0F3400020B1E068012801D02F
:1043E000012063E7AE480838006820F0F800216932
:1043F00040EAC100AA490839086037E0E06800B324
:104400000120A8490860FFF72BFA054606E0FFF7F0
:1044100027FA401B022801D9032047E7A0480838A3
:104420000068C0F340000028F1D09D4808380068BB
:1044300020F0F800216940EAC10099490839086074
:1044400014E0002097490860FFF70AFA054606E0E5
:10445000FFF706FA401B022801D9032026E79048FF
:1044600008380068C0F340000028F1D1207800F03F
:10447000080008282CD16069A8B101208A49086089
:10448000FFF7EEF9054606E0FFF7EAF9401B0228C0
:1044900001D903200AE782486C300068C0F340006D
:1044A0000028F1D014E000207F490860FFF7D8F918
:1044B000054606E0FFF7D4F9401B022801D9032086
:1044C000F4E677486C300068C0F340000028F1D172
:1044D000207800F00400042870D10027704838309C
:1044E000006800F0805090B900BF002000906C4838
:1044F0003830006840F0805069493831086008461B
:10450000006800F08050009000BF00BF012767489E
:10451000006800F48070B0B96448006840F48070AE
:1045200062490860FFF79CF9054606E0FFF798F935
:10453000401B022801D90320B8E65C48006800F45B
:1045400080700028F2D000BFA068012808D154482C
:104550006830006840F001005149683108601DE092
:10456000A06805280DD14E486830006840F004006E
:104570004B49683108600846006840F00100086057
:104580000CE047486830006820F001004449683179
:1045900008600846006820F00400086000BFA068BA
:1045A000A8B1FFF75DF9054609E0FFF759F9401B8F
:1045B00041F28831884202D9032077E626E0384864
:1045C00068300068C0F340000028EED013E0FFF729
:1045D00047F9054608E0FFF743F9401B41F28831EF
:1045E000884201D9032061E62D4868300068C0F395
:1045F00040000028EFD1012F07D12948383000684A
:1046000020F0805026493831086000BFA06900289A
:1046100045D02348006800F00C0008285DD0A06950
:10462000022845D100201F490866FFF719F9054601
:1046300006E0FFF715F9401B022801D9032035E6F3
:10464000174808380068C0F340600028F1D1D4E969
:1046500007010843616A40EA81110122A06AC2EBA6
:10466000500041EA00412C20005D41EA00600C4905
:10467000091F086001200B490866FFF7F1F805469D
:1046800006E0FFF7EDF8401B022801D903200DE6F4
:10469000034808380068C0F340600028F1D03FE0CC
:1046A0000838024000004742800E47420070004038
:1046B00000201C490866FFF7D3F8054606E0FFF71F
:1046C000CFF8401B022801D90320EFE51648006807
:1046D000C0F340600028F2D122E0A069012800D197
:1046E000E4E51148001D066806F48001E069814296
:1046F00014D106F03F01206A81420FD147F6C07005
:104700003040616A884209D106F44031A06A814292
:1047100004D106F07061E06A814201D00120C5E554
:104720000020C3E500004742003802407047704750
:1047300010B504460CB9012010BD94F83D0028B90D
:10474000002084F83C00204600F00CF8022084F899
:104750003D00211D206802F079FE012084F83D0013
:104760000020E9E7704701460868C06840F0010092
:104770000B68D8600868806800F00702062A05D038
:104780000868006840F001000B681860002070475E
:10479000704710B5044620680069C0F34000D8B1E6
:1047A0002068C068C0F34000B0B16FF0020021681B
:1047B0000861012020772068806900F0030018B1AB
:1047C0002046FFF7E5FF05E0204600F0ADF8204663
:1047D00000F0ABF80020207720680069C0F380006B
:1047E000D8B12068C068C0F38000B0B16FF0040099
:1047F00021680861022020772068806900F44070F9
:1048000018B12046FFF7C4FF05E0204600F08CF801
:10481000204600F08AF80020207720680069C0F365
:10482000C000D8B12068C068C0F3C000B0B16FF05C
:10483000080021680861042020772068C06900F022
:10484000030018B12046FFF7A3FF05E0204600F063
:104850006BF8204600F069F8002020772068006996
:10486000C0F30010D8B12068C068C0F30010B0B128
:104870006FF0100021680861082020772068C06967
:1048800000F4407018B12046FFF782FF05E0204693
:1048900000F04AF8204600F048F800202077206811
:1048A000006900F0010058B12068C06800F0010004
:1048B00030B16FF0010021680861204600F036F841
:1048C00020680069C0F3C01058B12068C068C0F308
:1048D000C01030B16FF08000216808612046FFF7FA
:1048E00025FF20680069C0F3801058B12068C068B7
:1048F000C0F3801030B16FF040002168086120469D
:1049000000F020F820680069C0F3401058B120681A
:10491000C068C0F3401030B16FF02000216808611A
:104920002046FFF704FF10BD7047704710B50446DE
:1049300003492068884201D1FFF710FA10BD00003A
:1049400000100040704770B504460025206840699B
:10495000C0F3C01594F8390021280ED16DB120683C
:10496000406920F0800021684861206B10B1206B05
:10497000FEF707FC204602F0E7FF20684069C0F31D
:10498000801594F83A0022280ED16DB12068406954
:1049900020F0400021684861606B10B1606BFEF749
:1049A000F0FB204602F0B0FF002070BD7047000011
:1049B0002DE9F0470446206805682068C66820682D
:1049C00047694FF00008C14605F00F08B8F1000F25
:1049D0000AD105F0200038B106F0200020B12046B1
:1049E00002F0BCFFBDE8F087B8F1000F72D007F00D
:1049F000010018B906F4907000286BD005F0010092
:104A000030B106F4807018B1E06B40F00100E06353
:104A100005F0040030B107F0010018B1E06B40F080
:104A20000200E06305F0020030B107F0010018B1A8
:104A3000E06B40F00400E06305F0080048B106F0C8
:104A4000200010B907F0010018B1E06B40F0080039
:104A5000E063E06B70B305F0200028B106F02000A1
:104A600010B1204602F07AFF20684069C0F3801937
:104A7000E06B00F0080010B9B9F1000F23D0204618
:104A800002F042FF2068406900F04000402816D143
:104A90002068406920F0400021684861606B50B197
:104AA0001748616B0865606BFEF7C0FB10B1606B67
:104AB000016D88470CE02046FFF778FF08E02046AC
:104AC000FFF774FF04E02046FFF770FF0020E0636B
:104AD00088E7FFE705F0800030B106F0800018B1EC
:104AE000204603F083F97DE705F0400030B106F081
:104AF000400018B1204602F017FF73E700BF71E7CE
:104B00000D78000810B504460CB9012010BDA0694D
:104B100000B100E000BF94F8390028B9002084F803
:104B20003800204600F028F8242084F83900206856
:104B3000C06820F400502168C860204602F062FF7F
:104B40002068006920F4904021680861206840696D
:104B500020F02A00216848612068C06840F40050B5
:104B60002168C8600020E063202084F8390084F8C0
:104B70003A000020CAE7000010B586B004461421B0
:104B800001A8FBF7DBFB80492068884239D100BFD0
:104B9000002000907D48006840F080407B4908601C
:104BA0000846006800F08040009000BF00BF00BFD2
:104BB0000020009075481038006840F010007349DC
:104BC000103908600846006800F01000009000BF2F
:104BD00000BF4FF4C07001900220029001200390AA
:104BE000032004900820059001A96948FEF72AFDDA
:104BF000002205215220FFF75BF95220FFF748F908
:104C0000C0E064492068884250D100BF0020009075
:104C10005E48001D006840F010005C49091D0860F6
:104C20000846006800F01000009000BF00BF00BF01
:104C30000020009055481038006840F002005349A9
:104C4000103908600846006800F00200009000BFBC
:104C500000BF00BF002000900846006840F001003F
:104C600008600846006800F00100009000BF00BF27
:104C700080200190022002900020039003200490E5
:104C80000720059001A94448FEF7DCFC4FF40070B2
:104C9000019002200290002003900320049007203E
:104CA000059001A93D48FEF7CDFC6BE03C4920682A
:104CB000884233D100BF002000903448001D0068B6
:104CC00040F020003149091D08600846006800F0E6
:104CD0002000009000BF00BF00BF002000902B48C4
:104CE0001038006840F04000284910390860084634
:104CF000006800F04000009000BF00BF4FF4844007
:104D000001900220029000200390032004900820CC
:104D1000059001A92348FEF795FC33E0224920685D
:104D200088422FD100BF002000901848006840F052
:104D30000040164908600846006800F000400090F6
:104D400000BF00BF00BF002000901048103800686E
:104D500040F010000D49103908600846006800F066
:104D60001000009000BF00BF0320019002200290BD
:104D700000200390032004900820059001A9044816
:104D8000FEF760FC06B010BD0078004040380240DD
:104D900000100240001001400004024000000240E8
:104DA0000014014000180240007C00402DE9F84347
:104DB00004460D4616461F464FF0000994F83A0087
:104DC000202861D105B116B90120BDE8F88300BFE4
:104DD00094F83800012801D10220F6E7012084F878
:104DE000380000BF0020E063222084F83A00FEF77C
:104DF00037FD8146A685E68500BF002084F838008F
:104E000000BF39E0E08D401EE085A068B0F5805F0E
:104E10001BD14B46002220212046009703F01AF8B0
:104E200008B10320D1E7A846206938B92068406856
:104E3000C0F30800A8F80000AD1C1DE02068406821
:104E4000C0B2A8F800006D1C16E04B4600222021DD
:104E50002046009702F0FEFF08B10320B5E7206965
:104E600020B92068406805F8010B05E0206840681B
:104E700000F07F0005F8010BE08D0028C2D1202052
:104E800084F83A000020A0E702209EE777B581B0C1
:104E90000446154694F83A00202850D1029800B1F3
:104EA00015B9012004B070BD00BF94F83800012886
:104EB00001D10220F6E7012084F8380000BF0298F3
:104EC000A062A5850020E063222084F83A001D48F6
:104ED000616BC8631C48616B08641C48616BC864E3
:104EE0000020616B086502AE32682368191D2B46ED
:104EF000606BFEF749FB00BF00200090206800684F
:104F0000009020684068009000BF00BF00BF0020F4
:104F100084F8380000BF2068C06840F480702168C1
:104F2000C8602068406940F001002168486120683D
:104F3000406940F04000216848610020B2E702204B
:104F4000B0E7000071780008B77800082178000801
:104F500010B5034693F83A0020282FD101B10AB9C1
:104F6000012010BD00BF93F83800012801D10220B4
:104F7000F7E7012083F8380000BF99629A85DA8547
:104F80000020D863222083F83A0000BF002083F875
:104F9000380000BF1868C06840F480701C68E0608A
:104FA0001868406940F001001C6860611868C068BA
:104FB00040F020001C68E0600020D2E70220D0E72B
:104FC00010B504461248844207D1FFF7BCFC1222F8
:104FD00010490F48FFF75AFF19E00F48844209D1E2
:104FE00001210E48FDF70AFB01220C492046FFF77C
:104FF000AFFF0CE00A48844209D1FFF7A4FC09483E
:10500000FCF7A6FE0B2207490548FFF73FFF10BD3E
:10501000C4060020EF0800208406002025000020A0
:1050200004070020E408002070472DE9F8430446F7
:105030000D4616461F464FF0000994F83900202807
:105040005DD105B116B90120BDE8F88300BF94F821
:105050003800012801D10220F6E7012084F8380049
:1050600000BF0020E063212084F83900FEF7F8FB40
:105070008146A684E68400BF002084F8380000BF83
:105080002BE0E08C401EE084A068B0F5805F16D174
:105090004B46002280212046009702F0DBFE08B13B
:1050A0000320D1E7A846B8F80000C0F30800216843
:1050B0004860206908B9AD1C0FE06D1C0DE04B463F
:1050C000002280212046009702F0C4FE08B1032090
:1050D000BAE715F8010B21684860E08C0028D0D1B0
:1050E0004B46002240212046009702F0B3FE08B153
:1050F0000320A9E7202084F839000020A4E702203B
:10510000A2E70000F7B50446154694F839002028B8
:105110003DD1019800B10DB90120FEBD00BF94F84A
:105120003800012801D10220F7E7012084F8380077
:1051300000BF01982062A584E5840020E06321205F
:1051400084F839001348216BC8631348216B086445
:105150001248216BC8640020216B086501AE2368EA
:105160001A1D31682B46206BFEF70EFA6FF04000D7
:105170002168086000BF002084F8380000BF206864
:10518000406940F08000216848610020C5E70220A6
:10519000C3E70000C5780008FB7800082178000804
:1051A0007047704700BFFEE710B50248FEF7AEFB40
:1051B00010BD000030060020C16AB1F52A0F02D1EF
:1051C0000121C16205E0C16AB1F12A4F01D1082174
:1051D000C1627047F8B5054600200090AC6B94F8AA
:1051E0003D60394800681921B0FBF1F04FF47A7145
:1051F000B0FBF1F0C0EBC00000EB8000009000BFFE
:10520000009820B9206C40F02000206409E000984C
:10521000401E00902068006800F40070B0F5007F28
:10522000EED000BF606B10B10020616BC863A06B53
:1052300010B10020A16BC8632068006820F4806072
:105240002168086000206085606B10B10020616BF0
:105250000865A06B10B10020A16B0865206800688C
:1052600020F001002168086094F83D0060280AD110
:10527000202084F83D00002084F83E002064204671
:10528000FEF742FB1EE006F02800282811D1206816
:10529000006840F00100216808602068006840F460
:1052A00080602168086000202063282084F83D0089
:1052B00005E0202084F83D00002084F83E002046D0
:1052C000FEF70EFCF8BD0000600500202DE9F0415E
:1052D000044694F83D6094F83E70102F01D0402FA2
:1052E00007D1222E05D12068006820F400602168D3
:1052F000086006F02800282805D100202063282017
:1053000084F83D0010E02068406800F40060B0F5CB
:10531000006F07D0602E05D0202084F83D000020CB
:1053200084F83E00002020632068406800F400609C
:10533000B0F5006F40D12068406820F4006021681B
:105340004860606B90F83500012814D04848616BC4
:105350000865606BFDF76AFF00285BD02068006875
:1053600020F0010021680860202084F83D00606B77
:10537000016D88474EE03E48A16B0865A06BFDF7C4
:1053800055FF002846D020684069C0F3801030B136
:1053900020680069616A0870606A401C6062206869
:1053A000006820F0010021680860202084F83D009A
:1053B000A06B016D88472DE094F83D0060281AD15C
:1053C000202084F83D000020206420684069C0F35C
:1053D000801030B120680069616A0870606A401C02
:1053E00060622068006820F00100216808602046A3
:1053F000FEF78AFA0EE020684069C0F3801030B1F1
:1054000020680069616A0870606A401C606220461A
:10541000FEF766FB256C05F0010058B905F00200A7
:10542000022807D005F00400042803D005F0080086
:10543000082805D12068406820F4E06021684860B1
:1054400094F83D60206C00F0040004280ED1282E52
:105450000CD10848E06200202063202084F83D0041
:10546000002084F83E002046FEF724FCBDE8F081D1
:10547000D55100080000FFFF70B50446E56A608D55
:10548000042810D12068406820F4806021684860BA
:1054900020680069616A0870606A401C6062608D03
:1054A000401E60857AE0608D03281AD1206840682C
:1054B00020F4806021684860042D07D0022D05D0BB
:1054C0002068006820F48060216808602068006916
:1054D000616A0870606A401C6062608D401E608571
:1054E0005CE0608D02284FD1012D01D0102D06D136
:1054F0002068006820F480602168086012E0042DB4
:1055000001D0022D06D12068006840F48060216837
:10551000086007E0102D05D02068006840F4007096
:105520002168086020680069616A0870606A401C30
:105530006062608D401E608520680069616A087045
:10554000606A401C6062608D401E60852068406813
:1055500020F4407021684860202084F83D0094F8D1
:105560003E00402807D1002084F83E0020632046FA
:10557000FEF7A3FB12E0002084F83E001220206317
:105580002046FEF798FB09E020680069616A087010
:10559000606A401C6062608D401E608570BD70B5A1
:1055A000044694F83D00222869D1658D032D13D956
:1055B00020680069616A0870606A401C6062608DE2
:1055C000401E6085608D032858D12068406820F413
:1055D00080602168486051E0E06A02284ED0012DC9
:1055E00001D0002D4AD1204600F048FC68BB20685D
:1055F000006820F48060216808602068406820F41A
:10560000E0602168486020680069616A0870606A2B
:10561000401C6062608D401E6085202084F83D0043
:1056200094F83E00402807D1002084F83E00206313
:105630002046FEF742FB21E0002084F83E001220C5
:1056400020632046FEF737FB18E02068406820F40E
:10565000E0602168486020680069616A0870606ADB
:10566000401C6062608D401E6085202084F83D00F3
:10567000002084F83E002046FEF732FA00BF70BDDD
:1056800070B50446E56A94F83D0021283CD1608D50
:1056900050B1606A007821680861606A401C6062ED
:1056A000608D401E60852FE0082D16D0202D14D06F
:1056B00015F5803F11D02068406820F4E060216833
:1056C000486011202063002084F83E00202084F8E8
:1056D0003D002046FEF7F0FA16E02068406820F40E
:1056E000E060216848602068006840F4007021682C
:1056F000086000202063202084F83D00002084F80A
:105700003E002046FEF7D8FA70BD2DE9F041044670
:1057100094F83D5094F83E70E66A208DB0BB212D80
:105720003CD1082E16D0202E14D016F5803F11D073
:105730002068406820F4E060216848601120206300
:10574000002084F83E00202084F83D002046FEF72B
:10575000B3FA44E02068406820F4E06021684860C3
:105760002068006840F40070216808600020206311
:10577000202084F83D0094F83E00402807D1002006
:1057800084F83E002046FEF799FA28E006E0002063
:1057900084F83E002046FEF78FFA20E0212D03D04A
:1057A000402F1CD1222D1AD1608D30B9206840685D
:1057B00020F480602168486011E094F83E004028A1
:1057C00003D1204600F0A5F909E0606A007821685D
:1057D0000861606A401C6062608D401E6085BDE8A3
:1057E000F081416CC9B202681161416B09B9816BEA
:1057F00059B1416BC96B11B9816BC96B29B1016892
:10580000496841F4006102685160704738B590F80A
:105810003E20C16A036B90F83D40222C73D1046D89
:1058200064B9402A0AD100BF002400940468646966
:1058300000940468A469009400BF1AE1046DC4B91F
:105840000469B4F5404F14D100BF002400940468EB
:10585000646900940468A469009400BF00BF0468F0
:10586000246844F4807405682C60046D641C04652D
:10587000FFE0448D8CB900BF002400940468646983
:1058800000940468A469009400BF00BF0468246801
:1058900044F4007405682C60DDE0448D012C72D165
:1058A00011F5803F30D10468246824F480640568D1
:1058B0002C600468646804F40064B4F5006F10D1CF
:1058C0000468246824F4806405682C6000BF002408
:1058D00000940468646900940468A469009400BF9B
:1058E000B9E000BF0024009404686469009404686F
:1058F000A469009400BF00BF0468246844F40074E5
:1059000005682C60A7E0A9E0082923D0202921D030
:10591000122B01D101291DD104290AD0022908D056
:10592000102906D00468246824F4806405682C607B
:1059300005E00468246844F4806405682C6000BFB6
:10594000002400940468646900940468A4690094C5
:1059500000BF80E00468246824F4806405682C603B
:1059600000BF002400940468646900940468A4697A
:10597000009400BF00BF0468246844F40074056804
:105980002C6068E0FFE7448D022C3BD1042910D045
:1059900002290ED010290CD00468246824F48064F5
:1059A00005682C600468246844F4006405682C6071
:1059B00005E00468246844F4806405682C60046889
:1059C000646804F40064B4F5006F10D111F5803FF1
:1059D00007D0012905D0082903D0102901D020299A
:1059E00005D10468646844F4805405686C6000BFA5
:1059F000002400940468646900940468A469009415
:105A000000BF28E00468246844F4806405682C60C2
:105A10000468646804F40064B4F5006F10D111F5F3
:105A2000803F07D0012905D0082903D0102901D0D3
:105A3000202905D10468646844F4805405686C60CA
:105A400000BF002400940468646900940468A46999
:105A5000009400BF00BF002404650AE000BF0024DA
:105A600000940468646900940468A469009400BF09
:105A700000BF38BD90F83E1040290ED1016D29B904
:105A8000416C01F0FE010268116141E0416CC9B254
:105A900041F00101026811613AE00169B1F5804FFE
:105AA00020D190F83D10212905D1416C01F0FE0173
:105AB0000268116105E0416CC9B241F00101026860
:105AC0001161416B11B1416BC96B21B9816BF9B1A6
:105AD000816BC96BE1B10168496841F400610268FA
