:020000040800F2
:10000000F86200202D03000801360008A92D000821
:1000100091310008ED060008FD4B000800000000CB
:100020000000000000000000000000006D02000859
:10003000FD0B000800000000C90200088939000813
:100040004703000847030008470300084703000868
:100050004703000847030008470300084703000858
:100060004703000847030008470300084703000848
:100070004703000847030008470300084703000838
:100080004703000847030008470300084703000828
:10009000F10600084703000847030008470300086B
:1000A0004703000847030008470300084703000808
:1000B0004703000847030008593A000847030008AF
:1000C00047030008470300084703000847030008E8
:1000D000470300088D4A000847030008470300084B
:1000E00047030008470300084703000847030008C8
:1000F00047030008470300084703000847030008B8
:1001000047030008470300084703000847030008A7
:100110004703000847030008470300084703000897
:10012000470300085D0B0008470300084703000869
:100130004703000847030008470300084703000877
:100140008D0700084703000847030008470300081D
:10015000690B0008750B000847030008A14A000856
:100160004703000847030008470300084703000847
:100170004703000847030008470300080000000089
:100180004703000847030008470300084703000827
:100190004703000847030008470300084703000817
:1001A00000000000000000004703000800F002F813
:1001B00000F04CF80AA090E8000C82448344AAF1B5
:1001C0000107DA4501D100F041F8AFF2090EBAE8B3
:1001D0000F0013F0010F18BFFB1A43F0010318477B
:1001E00098720000B87200000A4410F8014B14F035
:1001F0000F0508BF10F8015B240908BF10F8014B78
:100200006D1E05D010F8013B6D1E01F8013BF9D1C0
:10021000641E03D0641E01F8015BFBD19142E4D35C
:10022000704700000023002400250026103A28BF54
:1002300078C1FBD8520728BF30C148BF0B60704758
:100240001FB506F085FD1FBD10B510BD00F0C8F943
:100250001146FFF7F5FF05F07DFA00F0E6F903B46B
:10026000FFF7F2FF03BC00F0EDF900002C4B19681A
:100270000868B0E8F04F80F30988BFF36F8F4FF044
:10028000000080F3118870470000000008480068F3
:10029000006880F308884FF0000080F3148862B68D
:1002A00061B6BFF34F8FBFF36F8F00DF00BF00BF9A
:1002B00008ED00E0DFF80C00016841F47001016016
:1002C000704700BF88ED00E0EFF30980BFF36F8F48
:1002D000134B1A681EF0100F08BF20ED108A20E99A
:1002E000F04F106009B44FF0500080F31188BFF355
:1002F0004F8FBFF36F8F06F09BFA4FF0000080F333
:10030000118809BC19680868B0E8F04F1EF0100F9A
:1003100008BFB0EC108A80F30988BFF36F8F704775
:1003200020000020EFF30580704700000948804757
:1003300009480047FEE7FEE7FEE7FEE7FEE7FEE7C7
:10034000FEE7FEE7FEE7FEE704480549054A064BDF
:1003500070470000493A0008AD010008F85C002031
:10036000F8620020F85E0020F85E002053EA020CDC
:1003700000F069802DE9F04B4FF00006002B1FBF05
:10038000B3FA83F503FA05F424FA05F65E4012BFCA
:100390001643B2FA82F502FA05F4C5F120051EBF34
:1003A00022FA05FC44EA0C04203556EA044C4FEAD4
:1003B000144418BF641C4FF000084FF0000990422D
:1003C00071EB030C39D3002919BFB1FA81F701FA97
:1003D00007F6B0FA80F700FA07F6C7F120071EBF4C
:1003E00020FA07FC46EA0C062037B6FBF4FCA7EB24
:1003F0000507103F07F01F0BCBF120060CFA0BFB93
:100400002CFA06F644BFB3460026202FA4BF5E4652
:100410004FF0000B5BEA060C08BF4FF0010B19EB25
:100420000B09ABFB027C48EB0608C01B06FB02CCA9
:100430000BFB03CC71EB0C01C1E70B4602464146B6
:100440004846BDE8F08B13B54FF000004FF00001B7
:10045000AFF30080BDE81C407047032A40F23080B3
:1004600010F0030C00F0158011F8013BBCF1020FF5
:10047000624498BF11F801CB00F8013B38BF11F876
:10048000013BA2F1040298BF00F801CB38BF00F88D
:10049000013B11F0030300F02580083AC0F008800A
:1004A00051F8043B083A51F804CBA0E80810F5E7EE
:1004B000121D5CBF51F8043B40F8043BAFF30080D1
:1004C000D20724BF11F8013B11F801CB48BF11F846
:1004D000012B24BF00F8013B00F801CB48BF00F816
:1004E000012B704710B5203AC0F00B80B1E81850CE
:1004F000203AA0E81850B1E81850A0E81850BFF40E
:10050000F5AF5FEA027C24BFB1E81850A0E81850AC
:1005100044BF18C918C0BDE810405FEA827C24BF00
:1005200051F8043B40F8043B08BF7047D20728BF8E
:1005300031F8023B48BF11F8012B28BF20F8023BDD
:1005400048BF00F8012B70474FF000020429C0F0AB
:10055000128010F0030C00F01B80CCF1040CBCF1F5
:10056000020F18BF00F8012BA8BF20F8022BA1EB47
:100570000C0100F00DB85FEAC17C24BF00F8012B2C
:1005800000F8012B48BF00F8012B70474FF0000224
:1005900000B5134694469646203922BFA0E80C5079
:1005A000A0E80C50B1F12001BFF4F7AF090728BF54
:1005B000A0E80C5048BF0CC05DF804EB890028BFD0
:1005C00040F8042B08BF704748BF20F8022B11F0F9
:1005D000804F18BF00F8012B704770477047704775
:1005E000754600F02BF8AE4605006946534620F0EC
:1005F0000700854618B020B5FFF7A6FEBDE82040ED
:100600004FF000064FF000074FF000084FF0000BCE
:1006100021F00701AC46ACE8C009ACE8C009ACE881
:10062000C009ACE8C0098D46704710B50446AFF369
:1006300000802046BDE81040FFF711BE004870471B
:10064000945C002001491820ABBEFEE726000200A2
:1006500070472DE9F04F0CACDDE90A9694E820488C
:100660000024DDF83CA0099F06E0C4F10208641CE8
:1006700000F808C0032C04DA11F804C0BCF1000F24
:10068000F3D110F8031F21F03801203162F3020189
:100690000170018863F389110180417867F3850156
:1006A0004170828869F309028280B0F8051066F310
:1006B0008C01A0F80510C18865F34F11C180B0F816
:1006C00001206BF38E12A0F8012042886EF3CF1246
:1006D0004280B0F809206AF38C02A0F80920428910
:1006E000109961F34F124281BDE8F08FFEE70000E0
:1006F000014800F082BC0000B403002038B50E4C65
:100700004FF4007525600025A560E560082525618A
:100710000A4C050A25706070080AA070E170100A82
:1007200020716271180AA071E3716B46224602497A
:10073000034800F0E3FA38BDEC4300208A000020B3
:10074000B403002038B50E4C40F2FF15256000259B
:10075000A560E560082525610A4C050A25706070D2
:10076000080AA070E170100A20716271180AA07165
:10077000E3716B4622460249034800F0BFFA38BDD8
:10078000EC4300208A000020B4030020014800F060
:1007900034BC0000DC03002038B50E4C4FF400756B
:1007A00025600025A560E560082525610A4C050A3D
:1007B00025706070080AA070E170100A20716271E3
:1007C000180AA071E3716B4622460249034800F003
:1007D00095FA38BDEC4300208A000020DC0300209D
:1007E00038B50E4C40F2FF1525600025A560E56088
:1007F000082525610A4C050A25706070080AA0705A
:10080000E170100A20716271180AA071E3716B46E1
:1008100022460249034800F071FA38BDEC4300203B
:100820008A000020DC0300202DE9F04F09ACDDE94F
:100830000E6594E8004CDDE90C79002407E000BF68
:10084000C4F10208641C00F808C0032C04DA11F893
:1008500004C0BCF1000FF3D1C17841F0380162F35C
:100860000201C170B0F8031063F38911A0F80310FE
:1008700002796AF385020271B0F807206BF309026E
:10088000A0F80720018967F38C010181B0F80920E5
:1008900069F34F12A0F8092082886EF38E128280CD
:1008A000B0F8051066F3CF11A0F80510002104E0A0
:1008B000431815F8012BDA73491CB142F8D3BDE88F
:1008C000F08F00000FB44FF6FF7030B591B03022BA
:1008D000ADF8000014A905A8FFF704FEA5208DF8C7
:1008E0000400364C3320ADF80500207901AD8DF8B9
:1008F0000700FF220421284600F0E0F98DF80800E7
:1009000040F20130ADF809004FF48870ADF80C00EA
:100910002089ADF80E006089ADF81000BDF8002008
:100920000721284600F0B4F9ADF80000024603A8FC
:10093000062100F0ADF9ADF80000024605A82D2112
:1009400000F0A6F9ADF800001D4801AB002100BF82
:10095000E28813F8015B491C8554521CE280072988
:10096000F6D303A95FF00002E38811F8015B521C83
:10097000C5545B1CE380062AF6D305A95FF000028C
:100980009BB211F8015BC5545B1C521CE3802D2AFD
:10099000F6D36A465FF00003E18812F8015B5B1C46
:1009A0004554491CE180022BF6D32079401C20716C
:1009B00011B0002030BC5DF814FB00001C010020C9
:1009C0000C5600209FED1A1A9FED1A0A1A480021B2
:1009D00001EBC10202EB411200EB8202491CD2ED95
:1009E0000D0AC9B20429F0EEE00A30EE800AEFD316
:1009F000B4EEC10AF1EE10FA19DDC1EE000A90ED75
:100A00000D0A20EE200A80ED0D0A90ED360A20EE48
:100A1000200A80ED360A90ED5F0A20EE200A80ED74
:100A20005F0A90ED880A20EE200A80ED880A704760
:100A300000007A4700000000044400200FB418486A
:100A40009DED020ADDEC020A71EE601A71EE801A69
:100A5000FDEEE11A11EE901A70EE811A818071EEAE
:100A6000801AFDEEE11A11EE901A70EEC11AF1EE45
:100A7000600AA0F8A81070EEC10A71EE801A30EE7C
:100A8000800AFDEEE11A11EE901ABDEEC00AA0F840
:100A90004C1110EE101AA0F8F01104B070470000CD
:100AA000044400202DE9F0470024DDE90A95DDE942
:100AB0000876DDF830A006E0C4F10208641C00F8F6
:100AC00008C0032C04DA11F804C0BCF1000FF3D104
:100AD00010F8031F21F03801103162F30201017098
:100AE000018863F389110180417867F385014170C2
:100AF000818866F309018180B0F8052069F38C02D2
:100B0000A0F80520C18865F34F11C18002896AF3FE
:100B100009020281BDE8F0870FB40E4808B56B46A4
:100B20000C99016000218160C160082101610A48BF
:100B3000FF210246017041708170C17001714171E5
:100B40008171FD21C171034902A800F0D7F801B0FD
:100B50005DF814FBE058002035010020014800F04A
:100B6000BDBD000034050020014800F0B7BD000005
:100B7000D4040020014800F0B1BD0000940500201D
:100B800001681823CAB2103AB2FBF3F2054B6FF3B7
:100B90000901032A9B5CC36500D9091D81650846CC
:100BA00070470000CC6D000810B5014600208B692D
:100BB0008A6A4FF0C07453B1B3F5005F15D072B1BB
:100BC000012A0CD0022A0AD0032A09D104E01AB162
:100BD000012A06D0022A03D1C96AC90100D5012021
:100BE00010BDC96AA142FAD010BD002AF7D0012A6F
:100BF000F2D0022AF3D0032AF3D010BD704772B6A8
:100C0000FEE7000010B50B4601461C4AB3F8010090
:100C100002EB411240BA5060D9781C79090141EACF
:100C2000141191601C79597904F00F0441EA0421F0
:100C3000D160197811701021F0EE090AB8EE090A96
:100C400005F028FC82ED050A0C21DFED0D0A9FED71
:100C50000D0A906805F01EFC82ED060A0C21DFEDFE
:100C60000A0A9FED0A0AD06805F014FC82ED070A13
:100C700098791074D879507410BD0000F85800208D
:100C800000003442000034C200005842000058C244
:100C900010B558B1084C491E0BD310F8013B534016
:100CA000DBB234F8133083EA1222F4E74FF6FF7018
:100CB00010BD104610BD0000406F000810B5054C77
:100CC00004E000BF10F8013B5340E25C491EF9D23A
:100CD000104610BD406E000890F82020012A07D071
:100CE000022A05D0416A41F4802141620120704707
:100CF000006842690A43426100207047F0B590F8ED
:100D000020500468A468012D05D0022D03D0416A4B
:100D100041F480215DE014F0406F01D1E50055D52C
:100D2000C4F30164022C03D9416A41F4000150E08C
:100D30000125A5401D608D684FF4C0739DB1CE683C
:100D400035434E6845EAC605066803EB0417F551BE
:100D50004FF4C275076805EB04150E697E51097DD5
:100D6000012905D009E00E88CD6845EA4655EBE734
:100D700001684E5946F480764E511179D5795679ED
:100D800041EA056195792D0445EA062529434FF48A
:100D9000C676056806EB0416A9511178D57841EAA4
:100DA0000561957852782D0445EA022211434FF4EB
:100DB000C475026805EB04155151006803EB04117A
:100DC000425842F0010242500020F0BD416A41F415
:100DD000001141620120F0BD10B590F82020012AD9
:100DE00007D0022A05D0416A41F4802141620120E6
:100DF00010BD3B48D0F8002242F00102C0F80022AA
:100E0000D0F8002222F47C52C0F80022D0F8002250
:100E10004B6A42EA0322C0F800220A7D02F01F0357
:100E200001229A40D0F81C329343C0F81C32CB699F
:100E3000B3B9D0F80C329343C0F80C328C894B68AC
:100E400064F31F434C6900EBC404C4F840320C89BE
:100E50000B6864F31F434C6900EBC404C4F84432CC
:100E6000CB69012B16D1D0F80C321343C0F80C32E9
:100E70000C884B6864F31F434C6900EBC404C4F84E
:100E800040320C89CB6864F31F434C6900EBC40407
:100E9000C4F844328B69002BD0F804320ED01343CF
:100EA000C0F804320B69002BD0F8143208D0134379
:100EB000C0F81432096A012904D008E09343EFE72F
:100EC0009343F5E7D0F81C121143C0F81C12D0F878
:100ED000001221F00101C0F80012002010BD000036
:100EE00000640040704730B590F82040012C05D0D8
:100EF000022C03D0416A41F480215DE0046800299E
:100F000055D02469A40754D04FF4D874056804EB75
:100F100001142D5915F00405956005682D594ED022
:100F2000ED08556005682C5904F00204D4604FF4B4
:100F3000DA74056804EB01142D5905F00F051561ED
:100F400005682D59C5F30725956105682C59240CB2
:100F500054614FF4DC72046802EB0112A4581C7057
:100F60000468A458240A5C700468A458240C9C707B
:100F70000468A258120EDA704FF4DE72046802EBB5
:100F80000112A4581C710468A458240A5C710468F6
:100F9000A458240C9C710468A258120EDA710068DF
:100FA00081B1016941F020010161002030BDE46898
:100FB000A8E7416A41F400114162012030BD6D0D86
:100FC0001560AFE7C16841F02001C160EDE702465E
:100FD000002092F82010012901D002290CD11168BB
:100FE0008A68520100D501208A68120100D5401C90
:100FF0008968C90000D5401C70472DE9F05F05469F
:10100000006800244669D0F804908768D0F80CB0D6
:10101000D0F810A0D0F81880F10748D0F90714D004
:1010200001218160B80703D5284600F0F6FA0CE0EC
:10103000780702D54FF4006407E0380702D54FF473
:10104000805402E0284600F0E7FAF80516D5296832
:101050004FF480708860B80503D5284600F0DFFAA9
:101060000CE0780502D544F4005407E0380502D5B9
:1010700044F4804402E0284600F0D0FAF80316D584
:1010800029684FF480308860B80303D5284600F003
:10109000C8FA0CE0780302D544F4004407E03803B2
:1010A00002D544F4803402E0284600F0B9FA300753
:1010B00007D55FEACB6004D52968102044F400749A
:1010C000C86070074FF0080707D55FEA0B7004D5BA
:1010D0002868C760284600F099F9B00706D5286847
:1010E000C068800702D0284600F092F9700607D544
:1010F0005FEACA6004D52968102044F4806408615E
:10110000B00607D55FEA0A7004D52868076128464B
:1011100000F052FAF00606D528680069800702D070
:10112000284600F04AFAB00308D55FEAC96005D541
:10113000296810204860284600F040FAF00307D5DF
:101140005FEA097004D528684760284600F06AFA0B
:10115000300446D55FEA497040D5F00504D55FEA12
:10116000C87001D044F00104B00504D55FEA88706E
:1011700001D544F00204700504D55FEA487001D53A
:1011800044F00404300529D518F0700F26D008F07B
:101190007000402815D006DC102809D020280AD07D
:1011A000302816D10AE050280ED0602811D10EE068
:1011B00044F008040DE044F010040AE044F0200478
:1011C00007E044F0400404E044F0800401E044F40B
:1011D00080742868816921F0700181612968042088
:1011E0004860002C05D0686A204368622846FFF7F3
:1011F00079FEBDE8F09F70B5040003D094F820009C
:1012000010B104E0012070BD204600F081F8206894
:10121000016841F00101016000F0BAFC05460526B5
:1012200004E000F0B5FC401B0A2811D82068406893
:10123000C007F6D02068016821F00201016000F0CB
:10124000A7FC05460BE000F0A3FC401B0A2806D9CA
:10125000606A40F40030606284F82060D2E7206861
:1012600040688007EFD4207E0128206801683DD0C7
:1012700021F080010160607E01282068016838D07B
:1012800021F040010160A07E01282068016833D070
:1012900021F020010160E07E0128206801682ED045
:1012A00041F010010160207F01282068016829D0E9
:1012B00021F008010160607F01282068016824D0C6
:1012C00021F004010160D4E902010843D4E90412C9
:1012D000114308436168491E08432168C861002022
:1012E0006062012084F82000002070BD41F0800180
:1012F000C0E741F04001C5E741F02001CAE721F015
:101300001001CFE741F00801D4E741F00401D9E72B
:10131000F0B587B0044614216846FFF737F9364B1D
:101320003648DFF8D0E01968D4F800C0334A032506
:101330000226092710300024491CF44522D11960E7
:10134000012907D1016841F000710160006800F0D7
:1013500000700590106840F0080010601068CDE93A
:10136000005600F00800CDE9047069462448CDE934
:10137000024500F0EDFA00220521142000F0A6FC41
:10138000142033E0DFF87CE0F44531D1D0F800C020
:101390004CF0806CC0F800C0D0F800C001290CF0FF
:1013A000806CCDF814C0196007D1016841F000715C
:1013B0000160006800F000700590106840F00200C5
:1013C0001060106802AB00F0020005904FF440502E
:1013D000CDE9000683E8B00069460B4800F0B8FA92
:1013E00000220521402000F071FC402000F060FC4C
:1013F00007B0F0BD006400400C000020303802400F
:10140000000C0240006800400004024070470000E9
:101410002DE9F04F06460068614C8DB0A0420BD11B
:1014200004AB06AA00213046FFF75DFD06980728A9
:1014300002D804A9FFF7E6FB5A4F3068B8420BD137
:1014400004AB06AA00213046FFF74DFD069805289B
:1014500002D804A9FFF7D6FB3068534D4FF4805BE8
:1014600047F230584EF661294FF0000AA04253D19E
:1014700004AB06AA00213046FFF735FD0698A0F21E
:101480000120072848D8C1B2484C01EB410229701D
:1014900004EB820034F822300381BDF810305BBACF
:1014A00024F82230BDF812305BBA4380BDF8143006
:1014B0005BBA83809DF81630837134F82220B0F92E
:1014C0000830D21A5A4502DD4289521E04E012F554
:1014D000805F02DA4289521C4281B0F90A304344EB
:1014E0004B4501D3A0F80AA0032903D8491CC8B270
:1014F00003F0D6FBB4F93A0034F8301FC0EB4030AB
:1015000008442B490860B4F92200218BC0EB40301D
:1015100008442849404208603068B8423CD104ABD6
:1015200006AA00213046FFF7DEFC0698A0F2012053
:10153000072831D8C0B21D49687000EB4002603105
:1015400001EB820031F822300381BDF810305BBA24
:1015500021F82230BDF812305BBA4380BDF8143058
:101560005BBA83809DF81630837131F82210B0F990
:101570000820891A594502DD4189491E04E011F508
:10158000805F02DA4189491C4181B0F90A20424456
:101590004A4501D3A0F80AA00DB0BDE8F08F0000C5
:1015A0000064004000680040880000202C430020B8
:1015B0002C01002030010020704770477047000068
:1015C00070B5044690F82000012804D0606A40F409
:1015D0000020606218E0022084F820002068016882
:1015E00021F00101016000F0D3FA05460EE000BFD2
:1015F00000F0CEFA401B0A2808D9606A40F4003097
:101600006062052084F82000012070BD20684068D9
:10161000C007EDD1606270BD70477047704770477A
:101620007047704770472DE9F0410446876D00F020
:10163000AFFA064694F835000025022806D080202F
:10164000606584F834500120BDE8F08120680168AD
:1016500021F0160101602068416921F0800141619B
:10166000206C08B9A06C20B12068016821F0080145
:1016700001602068016821F0010101600CE000F0C8
:1016800087FA801B052807D920206065032084F88D
:10169000350084F83450D7E720680068C007EED1E1
:1016A00094F85C103F208840B860012084F8350031
:1016B00084F834500020C7E790F83510022903D091
:1016C0008021416501207047052180F835100068B0
:1016D000016821F001010160002070472DE9F84305
:1016E00004464FF00009CDF8009063484FF41651BE
:1016F000A56D0068B0FBF1F72E6894F85C10082027
:1017000000FA01F131420FD021680A6852070BD567
:101710000A6822F004020A6094F85C108840A8600D
:10172000606D40F00100606594F85C104FF00108B6
:1017300008FA01F0304208D021684969090604D549
:10174000A860606D40F00200606594F85C100420B1
:101750008840304208D021680968890704D5A8600C
:10176000606D40F00400606594F85C1010208840C3
:10177000304218D021680968090714D5A86020688C
:101780000168490304D50068000308D5A16C07E08F
:101790000168C90503D4016821F008010160216CCA
:1017A00009B12046884794F85C10202088403042D8
:1017B00031D021680968C9062DD5A86094F8350094
:1017C00005282068016806D0490347D50068000352
:1017D0001DD4616C1CE021F0160101602068416994
:1017E00021F080014161206C08B9A06C20B1206813
:1017F000016821F00801016094F85C103F208840E6
:10180000A86084F8358084F83490216D1FE0E16B86
:1018100009B120468847606D00282BD0606DC00755
:1018200014D0052084F835002068016821F00101FA
:1018300001600098401C0090B84203D820680068FE
:10184000C007F6D184F8358084F83490E16C002923
:1018500010D001B02046BDE8F04308470168C90533
:10186000D5D4016821F01001016084F8358084F836
:101870003490CCE7BDE8F8831C0000202DE9F0414E
:10188000044600F085F906465CB1022084F8350074
:10189000002584F834502068016821F001010160BE
:1018A0000DE00120BDE8F08100F072F9801B0528F1
:1018B00005D920206065032084F83500F2E7206810
:1018C0000068C007F0D12268116820480140D4E9BF
:1018D00001031843D4E903363343184363691843BB
:1018E000A3691843E3691843236A18430843616AEC
:1018F000042903D1D4E90B1319430843106020686D
:101900004069666A20F0070130460E43012704282B
:101910000CD1A06A0643E06A40B12046FFF744F9C3
:1019200020B14020606584F83570BAE720684661D0
:101930002046FFF725F994F85C203F219140816013
:10194000656584F835700020ACE700003F8010F03A
:101950002DE9F84FDFF8F8A10022012403254FF00C
:101960000F090AF1040BAAF1040E00BF0B6804FA78
:1019700002F63340B34270D10F7907F00307012F0D
:1019800001D0022F16D187684FEA420805FA08FCF9
:1019900027EA0C07D1F80CC00CFA08FC4CEA070C3B
:1019A000C0F808C04768B7430E79C6F300169640E2
:1019B0003E4346600E79F643B6070AD0C7684FEA41
:1019C000420C05FA0CF6B7438E6806FA0CF63E4355
:1019D000C6600E7906F00306022E10D1D60800EB81
:1019E0008608D8F8206057074FEAD76C09FA0CF739
:1019F000BE430F6907FA0CF73743C8F82070066832
:101A00004FEA420C05FA0CF7BE430F7907F00307C3
:101A100007FA0CF7374307604E6816F4403F1CD0B6
:101A20004C4E376847F480473760366822F003072A
:101A300006F480460096484E07EB060CDCF8086872
:101A400097073F0F09FA07F826EA0806DFF80C8126
:101A5000404503D14FF0000841E072E0DFF800811B
:101A6000404502D14FF0010839E0DFF8F8804045E9
:101A700002D14FF0020832E0DFF8EC80404502D19D
:101A80004FF003082BE0DFF8E480404502D14FF02F
:101A9000040824E0DFF8D880404502D14FF0050863
:101AA0001DE0DFF8D080404502D14FF0060816E077
:101AB000DFF8C480404502D14FF007080FE0DFF89F
:101AC000BC80404502D14FF0080808E0DFF8B08044
:101AD000404502D14FF0090801E04FF00A0808FA2A
:101AE00007F848EA0608CCF80888DAF80060574694
:101AF000D1F804C09E435FEACC2C00D51E433E6063
:101B0000DBF800605F46D1F804C09E435FEA8C2C8E
:101B100000D51E433E60DEF800607746D1F804C071
:101B20009E435FEA8C3C00D51E433E60084F083F51
:101B30003E68D1F804C09E435FEACC3C00D51E430A
:101B40003E60521C102AFFF411AFBDE8F88F000070
:101B5000083C01404438024000300140000002408F
:101B60000004024000080240000C02400010024045
:101B70000014024000180240001C024000200240F5
:101B8000002402400AB1816170470904FBE70000AC
:101B900001488068704700001000002002488168FA
:101BA0000278114481607047100000200B4810B586
:101BB000016841F400710160016841F480610160D5
:101BC000016841F480710160032000F09FF80F204C
:101BD00000F006F800F050F8002010BD003C024074
:101BE00030B505461F4887B00024016841F0040164
:101BF0000160006806A900F00400009001A800F050
:101C000031F90498A8B100F04DF940001649174A7F
:101C1000B0FBF1F11648491E026040F2E732C0E91C
:101C20000324C0E90114846100F08EFB040003D09A
:101C300015E000F037F9E9E70D4800F001FC040079
:101C40000DD11E2000F034F8102D07D200222946B5
:101C50001E2000F03BF80748056000E0012407B0B3
:101C6000204630BD4038024040420F00000800408E
:101C7000F4050020140000200C4882B0016841F4F3
:101C800080410160006800F4804000900748001F18
:101C9000016841F0805101600068002200F080502E
:101CA00000900F21901E02B000F010B8443802409E
:101CB000002809DB00F01F0201219140400980004B
:101CC00000F1E020C0F8001170470000F0B40E4BA6
:101CD0001B680C46C3F30223C3F10705042D00D98A
:101CE0000425191D072901D2002300E0DB1E01266F
:101CF00006FA05F1491E214099409E40761E164085
:101D00003143F0BC02F07BBF0CED00E0064900F06F
:101D1000070208684FF6FF03184040EA0220034A12
:101D200010430860704700000CED00E00000FA0569
:101D30002DE9F0470E46050065D0DFF81481D8F88C
:101D40000000F7B200F00F00B04207D288F8007030
:101D5000D8F8000000F00F00B04254D128683D4C84
:101D6000810712D5400703D5206840F4E050206079
:101D70002878000703D5206840F460402060206880
:101D8000A96820F0F000084320602878C0072DD013
:101D9000304968680839012812D0022813D0032876
:101DA00011D00968890700292DDA216821F0030183
:101DB00001432160FFF7ECFE814641F2883A0EE0D4
:101DC00009688903EFE709688901ECE7FFF7E0FE9E
:101DD000A0EB0901514502D90320BDE8F087206836
:101DE000696800F00C00B0EB810FEFD1D8F800105B
:101DF000404601F00F01B14207D90770006800F0BA
:101E00000F00B04201D00120E7E72878400705D550
:101E10002068E96820F4E050084320602878000733
:101E200006D52068296920F4604040EAC10020609E
:101E300000F058F82168084AC1F30311515CC8400A
:101E40000649086006480068FFF7CAFE0020C4E79C
:101E5000003C024008380240D46D00081C000020FD
:101E6000140000200F2202600C4A136803F00303E1
:101E70004360136803F0F0038360136803F4E053D6
:101E8000C36012684FF4E05303EAD20202610448CF
:101E9000006800F00F00086070470000083802403A
:101EA000003C02400448054900680968044AC1F33F
:101EB0008221515CC84070471C0000200838024055
:101EC000E46D00080448054900680968044AC1F344
:101ED0004231515CC84070471C0000200838024065
:101EE000E46D0008154810B5006810F00C021448A5
:101EF00013D01449042A0FD0082A0ED10F4C241FE6
:101F00002268236802F03F025B0207D52068C0F315
:101F10008810A0FB010106E0084610BD2168C1F34E
:101F20008811A1FB00010023FEF720FA2168C1F30C
:101F30000141491C4900B0FBF1F010BD08380240D6
:101F40000024F400001BB7002DE9F84F04006ED008
:101F50002078DFF84C93C007A9F104054AD009F1B5
:101F600004000168C1F38101012908D00068C0F3B1
:101F7000810002280AD1D9F80000400206D528685D
:101F8000800337D560680028E1D033E06068B0F5A1
:101F9000803F10D0B0F5A02F286810D020F48030FA
:101FA0002860286820F4802028606068A8B1FFF7C6
:101FB000EFFD06460DE0286840F48030F4E740F479
:101FC00080202860F7E700BFFFF7E2FD801B642850
:101FD00073D828688003F7D50CE0FFF7D9FD0646D3
:101FE00005E000BFFFF7D4FD801B6428F0D8286807
:101FF0008003F7D42078DFF8AC8280074FF0000A26
:102000003ED5A748001D016811F00C0F08D00068EC
:10201000C0F3810002280BD1D9F80000400207D498
:102020002868800716D5E068012800D112E033E166
:10203000E068B8B10120C8F80000FFF7A9FD064626
:1020400005E000BFFFF7A4FD801B0228C0D8286868
:102050008007F7D52868216920F0F80040EAC10020
:1020600028600DE0C8F800A0FFF792FD064604E0E6
:10207000FFF78EFD801B02281FD828688007F7D441
:102080002078000722D5864F87486169703771B183
:1020900001210160FFF77CFD064604E0FFF778FDB3
:1020A000801B022809D838688007F7D50EE0C0F8F1
:1020B00000A0FFF76DFD064605E082E0FFF768FD32
:1020C000801B02287DD838688007F7D42078400725
:1020D00068D5DFF8CCB100270BF13C0BDBF8000032
:1020E000C0000BD4DBF8001041F08051CBF8001099
:1020F000DBF80000012700F0805000906B4E306844
:10210000C00510D4306840F480703060FFF740FDA7
:10211000009005E0FFF73CFD0099401A022850D8D6
:102120003068C005F6D55E4EA0686C3601280FD029
:102130000528306810D020F001003060306820F0B1
:1021400004003060A068B8B1FFF722FD00900FE0F6
:10215000306840F00100F4E740F004003060F7E739
:10216000FFF716FD0099411A41F28830814266D886
:1021700030688007F4D50EE0FFF70AFD009007E015
:10218000FFF706FD0099411A41F28830814256D886
:1021900030688007F4D42FB1DBF8001021F08051B3
:1021A000CBF80010A069C8B33D49091D0968C1F307
:1021B000810102294AD00228504607D0C8F86000A1
:1021C00000E03CE0FFF7E4FC04463BE04746C8F88B
:1021D0006000FFF7DDFC064605E000BFFFF7D8FC16
:1021E000801B02282BD828688001F7D4D4E9070186
:1021F0000843A16A2E4A490802EB0141626A41EA9A
:102200008211084394F82C1040EA0161C9F80010CB
:1022100001203866FFF7BCFC044606E03EE000BF44
:10222000FFF7B6FC001B022809D828688001F7D503
:1022300034E000BFFFF7ACFC001B022802D90320EA
:10224000BDE8F88F28688001F4D427E00128F7D092
:10225000D9F80000E26900F4800191421CD1226AA1
:1022600000F03F01914217D147F6C071626A014008
:10227000B1EB821F10D1A26A4FF0FF3300F440315E
:1022800003EB5202B1EB024F06D194F82C1000F090
:102290007060B0EB016F01D00120D1E70020CFE7E3
:1022A0000438024000004742800E47420070004060
:1022B0000000FFFF7047704770B590F83C20012A7E
:1022C00032D0012480F83C40022280F83D2003688F
:1022D0005A689D6822F070060A6832435A60134BB0
:1022E00002689A4214D0B2F1804F11D0104B9A423A
:1022F0000ED0104B9A420BD00F4B9A4208D00F4B86
:102300009A4205D00E4B9A4202D00E4B9A4204D10B
:10231000496825F080031943916080F83D40002111
:1023200080F83C10084670BD022070BD00000140DE
:102330000004004000080040000C00400004014080
:10234000004001400018004010B5040003D094F88C
:102350003D0010B107E0012010BD002084F83C00D2
:10236000204600F01FF8022084F83D00211D20685F
:1023700001F078FB012084F8460084F83E0084F8E0
:102380003F0084F8400084F8410084F8420084F85B
:10239000430084F8440084F8450084F83D000020A0
:1023A00010BD000008B50068B0F1804F08D10548A5
:1023B000016841F001010160006800F00100009037
:1023C00008BD00004038024090F83D10012901D0BE
:1023D00001207047022180F83D10006811498842B1
:1023E00014D0B0F1804F11D00F4988420ED00F4960
:1023F00088420BD00E49884208D00E49884205D049
:102400000D49884202D00D49884204D1816801F00B
:102410000701062903D0016841F001010160002095
:102420007047000000000140000400400008004028
:10243000000C004000040140004001400018004032
:1024400090F83D10012901D001207047022180F849
:102450003D100168CA6842F00102CA600068114973
:10246000884214D0B0F1804F11D00F4988420ED06D
:102470000E4988420BD00E49884208D00D49884247
:1024800005D00D49884202D00C49884204D18168A8
:1024900001F00701062903D0016841F00101016044
:1024A0000020704700000140000400400008004088
:1024B000000C0040000401400040014000180040B2
:1024C00070B5044690F83C000025012817D001267D
:1024D00084F83C60022084F83D002068826822F085
:1024E000770222F47F4282600868502838D00DDCE1
:1024F00020284FD005DC90B3102811D14AE00220EB
:1025000070BD302846D040280AD13BE060282FD04B
:1025100070280DD0B0F5805F03D0B0F5005F12D009
:10252000012584F83D60002084F83C00284670BDF9
:10253000CB68D1E90121206801F005FB20688168A2
:1025400041F0770109E0CB68D1E90121206801F071
:10255000FAFA2068816841F480418160E1E719E07E
:10256000CA684968206801F0C3FB5021206806E072
:10257000CA684968206801F0CCFB6021206801F03E
:10258000ECFACEE7CA684968206801F0B1FB402147
:102590002068F4E7226801461046F0E7704770B5FE
:1025A0000446006801694FF00005C943890715D446
:1025B000C168C943890711D4E91E01610120207750
:1025C000206880698007204602D0FFF7E7FF04E01B
:1025D00000F0C0F8204600F052F925772068016924
:1025E000C943490717D4C168C943490713D46FF0D9
:1025F00004010161022020772068806910F4407F87
:10260000204602D0FFF7CAFF04E000F0A3F82046FE
:1026100000F035F9257720680169C943090716D408
:10262000C168C943090712D46FF008010161042091
:1026300020772068C0698007204602D0FFF7AEFFF0
:1026400004E000F087F8204600F019F925772068AB
:102650000169C943C90617D4C168C943C90613D45F
:102660006FF010010161082020772068C06910F424
:10267000407F204602D0FFF791FF04E000F06AF8A7
:10268000204600F0FCF8257720680169C943C90796
:1026900008D1C168C943C90704D1891E0161204618
:1026A00000F052F920680169C943090609D4C168DC
:1026B000C943090605D46FF0800101612046FFF788
:1026C000F9FD20680169C943490609D4C168C943B5
:1026D000490605D46FF040010161204600F03EF943
:1026E00020680169C94389060BD4C168C9438906BA
:1026F00007D46FF0200101612046BDE87040FFF76C
:10270000DABD70BD10B586B0044614216846FDF7E9
:102710003DFF2068B0F1804F15D10C4800210268C0
:1027200042F001020260006800F001000590032001
:1027300000900220CDE901010120CDE90310694696
:102740000348FFF705F906B010BD0000303802401D
:1027500000000240704770B5044690F83C00002627
:102760000D4601280FD0012084F83C006AB1042AEC
:102770001DD0082A2FD00C2A3FD00126002084F833
:102780003C00304670BD022070BD206801F0EEF9BB
:102790002068816941F0080181612068816921F028
:1027A00004018161206881692A69114311E0206870
:1027B00001F00CFA2068816941F4006181612068B0
:1027C000816921F480618161206881692A6941EA17
:1027D00002218161D2E7206801F02EFA2068C169E8
:1027E00041F00801C1612068C16921F00401C161A3
:1027F0002068C1692A69114311E0206801F050FA8C
:102800002068C16941F40061C1612068C16921F497
:102810008061C1612068C1692A6941EA0221C16100
:10282000ACE710B5040003D094F83D0010B107E008
:10283000012010BD002084F83C00204600F01EF866
:10284000022084F83D00211D206801F00BF90120D1
:1028500084F8460084F83E0084F83F0084F8400085
:1028600084F8410084F8420084F8430084F844006E
:1028700084F8450084F83D00002010BD7047704783
:1028800010B50446022249B104290ED0082913D0FC
:1028900094F84100012816D0012010BD94F83E00A4
:1028A0000128F9D184F83E200FE094F83F00012878
:1028B000F2D184F83F2008E094F840000128EBD1E1
:1028C00084F8402001E084F841200122206801F0D2
:1028D0002DF916492068164A884201D0904203D14A
:1028E000436C43F4004343642068884213D0B0F142
:1028F000804F10D00F4988420DD00F4988420AD02E
:102900000E49884207D0904205D00D49884202D036
:102910000C49884204D1816801F00701062903D0DF
:10292000016841F001010160002010BD000001407C
:10293000000401400004004000080040000C00407A
:10294000004001400018004000680349884201D15E
:10295000FFF724B970470000000800407047704737
:1029600070470000F8B5016804460868CA684B69FA
:1029700010F00F0F4FF0000559D003F0010602F4DC
:102980009077374365D0C10705D0D10503D5216CB9
:1029900041F001012164410705D5D90703D0216C1D
:1029A00041F002012164810705D5D90703D0216CCC
:1029B00041F004012164010707D502F020013143F1
:1029C00003D0216C41F008012164216C00293AD028
:1029D000800604D5900602D5204601F0DBF9206878
:1029E0004069216CC0F38010090700D460B3204611
:1029F00001F0A9F920684069400621D5206814300B
:102A000050E8001F21F0400140E80012002AF5D1F3
:102A1000A06BA8B16C490165A06BFEF74DFE0028C4
:102A200011D0A06B016D01B0BDE8F04008478306EE
:102A30000FD593060DD52046BDE8F84001F0AAB9A0
:102A40002046FFF78DFFF8BD2046FFF789FF25647C
:102A5000F8BD266B2023012E79D1C60677D5D60680
:102A600075D50868486800904869400640D5A16B54
:102A7000086840680004000CEAD0A28D8242E7D9C1
:102A8000E085C869B0F5807F2DD020680C3050E813
:102A9000001F21F4807140E80012002AF5D120685F
:102AA000143050E8001F21F0010140E80012002A14
:102AB000F5D12068143050E8001F21F0400140E8B3
:102AC0000012002AF5D184F83E30256320680C30CE
:102AD00050E8001F21F0100140E80012002AF5D153
:102AE000A06BFEF7A0FDA08DE18D401A81B229E018
:102AF000A08DE18D401A81B2E08D0028A8D0002978
:102B0000A6D020680C3050E8002F22F4907240E8E4
:102B10000026002EF5D12068143050E8002F22F056
:102B2000010240E80026002EF5D184F83E302563EE
:102B300020680C3050E8002F22F0100240E80023FB
:102B4000002BF5D12046FFF70AFFF8BDFFE7050689
:102B50002BD5150629D594F83D002128F5D1A0687C
:102B6000B0F5805F01D12069B0B1206A411C2162BB
:102B7000216800784860E08C401E0004000CE0846E
:102B8000E3D12068C16821F08001C1602068C1687C
:102B900041F04001C160D8E7206A0088C0F3080016
:102BA0004860206A801C2062E5E74006CDD55006CB
:102BB000CBD5CA68204622F04002CA6084F83D3076
:102BC00000F0F1F8C1E70000373D000870B50400DF
:102BD00004D094F83D00002510B106E0012070BD3E
:102BE00084F83C50204600F023F8242084F83D006F
:102BF0002068C16821F40051C160204601F02AF923
:102C00002068016921F4904101612068416921F047
:102C10002A0141612068C16841F40051C160256406
:102C2000202084F83D0084F83E00002070BD0000A4
:102C30002DE9F04387B0064614216846FDF7A6FC4F
:102C40005248DFF844C11438356850490222032342
:102C5000002407154FF48079654537D10D6845F09C
:102C600010050D60096801F010010591016841F03F
:102C7000020101600068694600F002000590C02072
:102C80008DE815000720CDE903304148FEF760FECE
:102C9000414D404828607804C5E90104C5E903476F
:102CA0006C61C5E906494FF44030C5E9080428467F
:102CB000FEF7E4FD08B1FDF7A2FFB5630022052190
:102CC0002520AE63FFF702F8252058E0DFF8CCC0DE
:102CD000654556D10D6845F020050D60096801F085
:102CE00020010591016841F04001016000686946DA
:102CF00000F0400005904FF48440CDE9000201202F
:102D0000CDE90203082004902548FEF721FE224D5C
:102D100020486035603828604FF02068C5E901849C
:102D2000C5E903476C61C5E906494FF40030C5E9C0
:102D300008042846FEF7A2FD08B1FDF760FFB56361
:102D4000AE63154D1348C0351830E5E80208402041
:102D500091C5800245F81449AC61C5E907400E48A9
:102D60006C62C030FEF78AFD08B1FDF748FF75635D
:102D7000002205214720AE63FEF7A8FF4720FEF79B
:102D800097FF07B0BDE8F0830010014044380240CF
:102D90000004024088640240D40400200014014072
:102DA0000018024070477047FEE700002DE9F04F21
:102DB00009ACDDE90C6594E880060024DDF838B044
:102DC00007E000BFC4F10208641C00F808C0032C2F
:102DD00004DA11F804C0BCF1000FF3D110F8031F9E
:102DE00062F302010170018863F389110180417867
:102DF00067F385014170828869F309028280B0F827
:102E000005206AF38C02A0F80520C18866F34F11F3
:102E1000C180B0F8091065F38C01A0F8091042894F
:102E20006BF34F124281BDE8F08F00000F4810B5E0
:102E30000D4901600321416000214FF4102281609F
:102E4000C0E903124FF400124261017641768176A7
:102E5000C17601774177FEF7CEF9002803D0BDE8AF
:102E60001040FDF7CCBE10BD00640040B40300204C
:102E70000F4810B50D4901600321416000214FF456
:102E800010228160C0E903124FF400124261017602
:102E900041768176C17601774177FEF7ACF900285B
:102EA00003D0BDE81040FDF7AABE10BD0068004089
:102EB000DC030020114808B5016841F4800101607D
:102EC0000068002200F48000009005213920FEF700
:102ED000FDFE3920FEF7ECFE002205214420FEF71E
:102EE000F5FE4420FEF7E4FE002205214520FEF712
:102EF000EDFEBDE808404520FEF7DABE303802405E
:102F000010B59CB01C2216496846FDF7EBFA00216B
:102F1000684602F0DDFC134C11491C2220601C3174
:102F200007A8FDF7DFFA002107A802F0D1FC0C4941
:102F300060601C2238310EA8FDF7D4FA00210EA8DB
:102F400002F0C6FC0649A0601C22543115A8FDF70A
:102F5000C9FA002115A802F0BBFC20601CB010BD0E
:102F60005C6D0008000000202DE9F04786B01421B8
:102F70006846FDF70BFB3A480024016841F0400128
:102F80000160016801F040010591016841F0010113
:102F90000160016801F001010591016841F0020141
:102FA0000160016801F002010591016841F008012A
:102FB0000160016801F008010591016841F080019C
:102FC0000160016801F080010591016841F0100184
:102FD0000160016801F010010591016841F02001D4
:102FE00001600068DFF87C8000F02000059001227D
:102FF0000C214046FEF7C6FD002230214046FEF778
:10300000C1FDDFF864904FF4006600223146484667
:10301000FEF7B8FDDFF854A0F7000022394650460D
:10302000FEF7B0FD01253C20CDE90005CDE90254B5
:1030300069464046FEF78CFC0096CDE9015469468E
:1030400048460394FEF784FC0097CDE90154694695
:1030500050460394FEF77CFC06B0BDE8F087000004
:1030600030380240001C02400010024000140240B0
:1030700010B58EB000240794089409940A940B9418
:103080001C2168460C94FDF781FA22484FF08041DC
:1030900001605321C0E9011444F61F61C0E9031423
:1030A0008461FFF751F908B1FDF7A9FD4FF4805095
:1030B000079007A91748FFF703FA08B1FDF79FFD2E
:1030C0001448FFF7AEFB08B1FDF799FD0B940BA96F
:1030D00010480C94FFF7F0F808B1FDF790FD602060
:1030E000CDE900040294002269460A480494FFF7DF
:1030F00032FB08B1FDF783FD042269460548FFF75E
:103100002AFB08B1FDF77BFD0248FFF7FBFA0EB082
:1031100010BD0000040400200D4810B50B490160EB
:103120000C49416000214FF480628160C0E90312C4
:103130000C22C0E90521C161FFF748FD002803D03A
:10314000BDE81040FDF75BBD10BD00000010014060
:103150004C040020A08601000C4810B50A4901600B
:103160004FF4E1314160002181600C22C160C0E96F
:1031700004128161C161FFF729FD002803D0BDE879
:103180001040FDF73CBD10BD00140140900400202C
:10319000FEE70000F0B53E4F00242DED068B81B018
:1031A000A7F11806394D9FED3BAADFED3BAADFEDF5
:1031B0003B9ADFED3B8A9FED3B8A9FED3B9A04E013
:1031C000042C02D3A01F022811D204EBC400304B00
:1031D00000EB441005EB8000F0EE691AB0EE681ABF
:1031E000F0EE480AB0EE490A243B009610E004EBEA
:1031F000C400274B00EB441005EB8000F0EE691A89
:10320000B0EE4A1AF0EE480AB0EE6A0A0C3B00979C
:103210000122214601F05CFE641CE4B2082CCFD3ED
:103220000024224D20E0032C1ED3042C1CD004EBE0
:10323000C400174B00EB441005EB8000F0EE691A58
:10324000B0EE681AF0EE480AB0EE490A243B009648
:103250000222214601F03CFE641CE4B2072CE2D3BA
:1032600001B0BDEC068BF0BD04EBC400084B00EBD5
:10327000441005EB8000F0EE691AB0EE4A1AF0EE49
:10328000480AB0EE6A0A0C3B0097E1E704440020CC
:10329000B800002000803B4500401C460000C843A9
:1032A0000080BB440000FA4400008046244900200E
:1032B0002DED028B92B0FFF76DFF41F2883002F0E6
:1032C000FBFADFEDC88A9FEDC88AC84DC84EDFF80B
:1032D0002483C94F002404E0042C02D3A01F022839
:1032E00008D204EBC40000EB441005EB8000B0EE04
:1032F000480A07E004EBC40000EB441005EB800033
:10330000B0EE680A002100F05FFA641CE4B2082CF9
:10331000E2D3002457E0032C55D3042C53D004EB04
:10332000C40000EB441006EB8000B0EE480A002118
:1033300000F04AFA641CE4B2072CECD3FDF742FB20
:10334000AE48807A022847D0AA48FDF740FE002800
:10335000FAD02C46B5F9FC31B5F95821B5F9B410BD
:10336000B5F91000FDF7CAF9A248FDF730FE0028B4
:10337000FAD0B4F98C34B4F9E823B4F94413B4F9AD
:10338000A002FDF7DFF99C48FDF721FE0028FAD0E6
:103390003446B6F9FC31B6F95821B6F9B410B6F98D
:1033A0001000FDF7F9F99448FDF711FE0028FAD056
:1033B000B4F98C34B4F9E823B4F94413B4F9A00295
:1033C000FDF70EFA0AE104EBC40000EB441006EB33
:1033D0008000B0EE680AAAE78648FDF7F8FD0028ED
:1033E000FAD02022834907A8FDF77CF898F820003E
:1033F00044468DF83C00D8F8240010900020069038
:1034000018220BA96846FDF76DF80DF11C0C9CE81D
:103410000F00FDF781FB012003F0A6F97548FDF7C9
:10342000D6FD0028FAD02022724907A8FDF75AF8E5
:1034300094F820008DF83C00606A109001200690FE
:1034400018220BA96846FDF74DF80DF11C0C9CE8FD
:103450000F00FDF761FB012003F086F96548FDF7D9
:10346000B6FD0028FAD02022624907A8FDF73AF8F5
:1034700094F820008DF83C00606A109006200690B9
:1034800018220BA96846FDF72DF80DF11C0C9CE8DD
:103490000F00FDF741FB012003F066F95548FDF7E9
:1034A00096FD0028FAD02022524907A8FDF71AF805
:1034B00094F820008DF83C00606A10900720069078
:1034C00018220BA96846FDF70DF80DF11C0C9CE8BD
:1034D0000F00FDF721FB012003F046F94648FDF7F8
:1034E00076FD0028FAD02022434907A8FCF7FAFF0E
:1034F00097F820008DF83C00786A10900220069022
:1035000018220BA96846FCF7EDFF0DF11C0C9CE896
:103510000F00FDF701FB012003F026F93648FDF707
:1035200056FD0028FAD02022334907A8FCF7DAFF1D
:1035300097F820008DF83C00786A109003200690E0
:1035400018220BA96846FCF7CDFF0DF11C0C9CE876
:103550000F00FDF7E1FA012003F006F92648FDF718
:1035600036FD0028FAD02022234907A8FCF7BAFF2D
:1035700097F820008DF83C00786A1090042006909F
:1035800018220BA96846FCF7ADFF0DF11C0C9CE856
:103590000F00FDF7C1FA012003F0E6F81648FDF729
:1035A00016FD0028FAD02022134907A8FCF79AFF3D
:1035B00097F820008DF83C00786A1090052006905E
:1035C00018220BA96846FCF78DFF0DF11C0C9CE836
:1035D0000F00FDF7A1FA012003F0C6F80A2002F05F
:1035E0006BF977E658BEB2370256293804440020FA
:1035F00024490020B4030020DC030020444E0020B6
:10360000FEE70000A0B1D0ED101AC0ED111A90ED48
:103610000F1A80ED101AC0ED060A80ED070A30EE91
:10362000C00A80ED0F0A017829B101293BD078E06A
:103630009FED3D0A7047D0ED010A60EE801AC0EDA3
:10364000091AD0ED0A0A90ED022A42EE000A30EE85
:10365000410AC0ED0A0A90ED0D2A80ED0E2A90ED88
:103660000C2A80ED0D2A80ED0C0A90ED031A21EE54
:10367000001A80ED0B1A90ED050AF4EEC00AF1EE87
:1036800010FA09DCB1EE400AF4EEC00AF1EE10FACD
:1036900002D390ED0A0A01E080ED0A0A31EE800AB9
:1036A00030EE010A2BE070EE410A90ED012A20EE87
:1036B000822A80ED092AD0ED020A60EE800AC0ED70
:1036C0000A0AD0ED0D2A72EE200AC0ED0E2AD0EDC6
:1036D0000C2AC0ED0D2AF0EE002A01EE620A30EE4F
:1036E000210A80ED0C0A90ED031A21EE000A80ED0C
:1036F0000B0A30EE800AD0ED080A30EE200A80ED89
:10370000080AD0ED040AB4EEE00AF1EE10FA06DC85
:10371000F1EE600AB4EEE00AF1EE10FA01D2C0ED6B
:10372000080A90ED080A704700000000002819D030
:103730009FED0D0A80ED110A80ED100A80ED0F0A51
:1037400080ED0E0A80ED0D0A80ED0C0A80ED0B0A6B
:1037500080ED0A0A80ED090A80ED080A80ED060A6C
:1037600080ED070A7047000000000000002828D004
:10377000002A26D0017092ED001A80ED011A92ED18
:10378000011A80ED021A92ED021A80ED031A80ED03
:10379000040A9FED0C0AC0ED050A80ED0E0A80EDCB
:1037A0000D0A80ED0C0A80ED080A80ED0B0A80ED11
:1037B0000A0A80ED090A80ED110A80ED100A80EDF9
:1037C0000F0A70470000000070B5044600F11405B0
:1037D000012917D0002914D1B4F9040000EE100A11
:1037E0002068F8EEC00AB0F9020000EE100A284680
:1037F000B8EEC00AFFF706FFBDEEC00A10EE100AD1
:10380000208270BD2068B0F90A100088C1EB4131F8
:10381000084400EE900A04F15C00F8EEE00A20EEA5
:10382000800A84ED030AD4ED020AFFF7EBFEBDEE39
:10383000C00A10EE100A00B2A080CFE7002801DC19
:10384000404200B27047000070B5194CB4F9000056
:10385000FFF7F4FF4FF42F75A84217DCB4F902000C
:10386000FFF7ECFFA84211DCB4F90400FFF7E6FF14
:10387000A8420BDCB4F90600FFF7E0FFA84205DC24
:10388000A07A18B1E07A08B1002070BD0020208035
:103890006080A080E08020810221A172E172A0817D
:1038A000E0812082A074E074A082012070BD00003D
:1038B000444E002030B5144B1C68656945F0400546
:1038C00065611B68DC6844F01004DC600F4B1C6809
:1038D000256825F0010525601C682568ED07F7D1EE
:1038E0001D680B4CAC601C68E060186801611868CA
:1038F00042601868016841F480210160186801681D
:1039000041F00101016030BD4C040020D4040020CE
:10391000041001400C4A10B51168CB6823F4005321
:10392000CB600A490B681C6824F001041C600B681A
:1039300058600868016841F0010101601068C168C1
:1039400041F40051C16010BD4C040020D40400209B
:103950008CB04FF4FA7001F0AFFF01F0F7FA094CA8
:1039600004F1100501F0F8FB2C2229466846FCF70B
:10397000B9FD94E80F00FDF761F80A2001F09CFF03
:10398000F0E70000F85B002010B5502080F31188AC
:10399000BFF34F8FBFF36F8F03F082F818B1044964
:1039A0004FF080500860002080F3118810BD0000A7
:1039B00004ED00E030B593B030216846FCF7E6FD39
:1039C00014210CA8FCF7E2FD1D480025016841F018
:1039D00080510160006800F0805011901948016822
:1039E00041F4404101600068022400F4404011901D
:1039F00001200090000401908001CDE906400620DE
:103A00000890A820CDE9090404200B906846FEF731
:103A10009BFA08B172B6FEE70CA90F2081E83100CD
:103A20004FF4A0500F904FF48050109005210CA837
:103A3000FEF77EF9002801D072B6FEE713B030BD64
:103A400040380240007000400248016841F47001B3
:103A50000160704788ED00E00148FEF7A0BD00005E
:103A6000F4050020F0B50268254C264D264E274F60
:103A7000274B4FF0804CA04209D0604507D0A842A8
:103A800005D0B04203D0B84201D0984204D122F010
:103A9000700E4A6842EA0E02A0421BD0604519D05F
:103AA000A84217D0B04215D0B84213D0984211D0D6
:103AB000184DA8420ED0184DA8420BD0174DA84261
:103AC00008D0174DA84205D0164DA84202D0164D79
:103AD000A84203D122F44075CA682A434D6922F0F6
:103AE00080022A4302608A68C2620A688262A04237
:103AF00001D0984201D10969016301214161F0BD02
:103B0000000001400004004000080040000C00409C
:103B100000040140004001400044014000480140D1
:103B200000180040001C00400020004010B501F0CB
:103B30001F030121046A99408C430462016A9A4080
:103B40001143016210BD10B5846842EA032224F4D7
:103B50007F440A432243826010BD826822F07002D3
:103B60000A4342F00701816070470000F0B5026A25
:103B700022F001020262036A42688469124E24F054
:103B800073050C682C4323F002058B682B430D4D05
:103B9000A84201D0B04205D123F00807CB683B43CF
:103BA00023F00403A84201D0B04205D14D6922F4AC
:103BB000407215438A692A434260846149684163BF
:103BC0000362F0BD0000014000040140F0B5026A4C
:103BD00022F010020262026A436884690D6824F4CC
:103BE000E64444EA05248D6822F0200242EA0512E8
:103BF0000F4D104EA84201D0B04206D1CF6822F03E
:103C0000800242EA071222F04002A84201D0B042EC
:103C100007D14D6923F4406343EA85038D6943EA84
:103C2000850343608461496881630262F0BD0000DE
:103C30000000014000040140F0B5026A22F48072E5
:103C40000262026A4368C46922F4007224F07305B8
:103C50000C68124E2C438D6842EA05220E4DA84294
:103C600001D0B04206D1CF6822F4006242EA0722B6
:103C700022F48062A84201D0B04207D14D6923F4FA
:103C8000405343EA05138D6943EA05134360C46159
:103C90004968C1630262F0BD0000014000040140B8
:103CA00030B5026A22F480520262046A4268C36933
:103CB0000D6823F4E64343EA05238D6824F4005499
:103CC00044EA0534084DA84202D0084DA84204D168
:103CD0004D6922F4804242EA85124260C36149681C
:103CE0000164046230BD0000000001400004014096
:103CF00010B5036A046A24F001040462846924F0A4
:103D0000F00444EA021423F00A020A4384610262C6
:103D100010BD10B5036A23F0100303628369046ABF
:103D200023F4704343EA023224F0A00343EA011172
:103D30008261016210BD10B5806B0021C185C18414
:103D4000FEF70EFE10BD01680C3151E8002F22F481
:103D5000907241E80023002BF5D10168143151E83D
:103D6000002F22F0010241E80023002BF5D1016B66
:103D7000012909D101680C3151E8002F22F010020D
:103D800041E80023002BF5D1202180F83E100021CE
:103D90000163704708B590F83E10222901D0022037
:103DA00008BD82684FF480539A4201D1016921B164
:103DB000816A9A421BD04AB10AE00268816A52685D
:103DC000C2F308020A80816A891C08E0026972B1A4
:103DD0000268526802F07F020A70816A491C81629F
:103DE000C18D491E0904090CC18503D019E0026880
:103DF0005268F1E70168CA6822F02002CA600168CF
:103E0000CA6822F48072CA6001684A6922F001021D
:103E10004A61202180F83E10016B012903D0FEF792
:103E2000C1FF002008BD0021016301680C3151E889
:103E3000002F22F0100241E80023002BF5D1016889
:103E40000A68D20602D50A6849680091818DFEF79A
:103E500086FDE6E770B5044600680169E26821F472
:103E60004051114301612169A068E2690843616919
:103E7000114308432168CA6849F20C639A4302431C
:103E8000CA6020684169A26921F44071114341610F
:103E900031492068884202D03049884202D1FEF779
:103EA00011F801E0FDF7FEFFE26900231921642506
:103EB0003226B2F5004F626828D0A0FB0101930FB3
:103EC0009200FCF753FA0146B0FBF5F06FF01802D0
:103ED000504301EB800006EB0010B0FBF5F000F062
:103EE000F002B1FBF5F002EB0012B1FBF5F06FF060
:103EF0001803584301EB800006EB0010B0FBF5F00F
:103F000000F00F0021681044886070BDA0FB010123
:103F100092185B41FCF72AFA0146B0FBF5F002016A
:103F2000B1FBF5F06FF01803584301EB800006EB8E
:103F3000C000B0FBF5F000F0F80002EB4002B1FB6E
:103F4000F5F0584301EB800006EBC000B0FBF5F044
:103F500000F00700D6E70000001001400014014007
:103F6000F0B588B007464FF6FF70ADF80000A52009
:103F70008DF80800364C0820ADF8090020790E466F
:103F800002AD8DF80B00FF2204212846FCF796FEB7
:103F90008DF80C0040F20130ADF80D004FF4807048
:103FA000ADF810002089ADF812006089ADF814005A
:103FB0008DF81C708DF81D60BDF800200721284683
:103FC000FCF766FEADF80000024604A80621FCF7E7
:103FD0005FFEADF80000024607A80221FCF758FE7C
:103FE000ADF800001B4802A9002200BFE38811F8C9
:103FF000015B521CC5545B1CE380072AF6D304AB5B
:104000005FF00001E28813F8015B491C8554521CE3
:10401000E2800629F6D307A95FF0000392B211F8F7
:10402000015B8554521C5B1CE280022BF6D36A466E
:104030005FF00003E18812F8015B5B1C4554491CEA
:10404000E180022BF6D32079401C207108B0F0BD2E
:104050001C0100200C5600200FB44FF6FF702DE914
:10406000F0418AB04B4CADF80000A5208DF80C0053
:10407000109803AEC0EB0010801DADF80D00207944
:104080008DF80F0011ADFF2204213046FCF716FE1B
:104090008DF8100040F20130ADF8110010980128A1
:1040A0000CD002280DD0052840D0072841D04FF071
:1040B000FF300AB0BDE8F0015DF814FB40F20110DA
:1040C00001E04FF48170ADF804002089ADF80600DE
:1040D0006089ADF80800BDF8002007213046FCF7E4
:1040E000D7FDADF80000024601A80621FCF7D0FD7F
:1040F000ADF80000284803A9002200BFE38811F8AA
:10410000016B521CC6545B1CE380072AF6D301A93D
:104110005FF000029BB211F8016BC6545B1C521C8D
:10412000E380062AF6D3002780461FE040F2031002
:10413000C9E74FF48270C6E7284605AE0FC886E887
:104140000F001035BDF800200F213046FCF7A0FD10
:10415000ADF8000000204246E18816F8013B401C03
:104160005354491CE1800F28F6D37F1C10988742D6
:10417000E2DB684600214346E28810F8015B491CF7
:104180009D54521CE2800229F6D32079401C2071F4
:1041900000208EE71C0100200C5600204FF4FA701E
:1041A00001F08AFB00F002F80A20F9E72DE9F04F50
:1041B000DFF804B400242DED028B9DB09BF81D1098
:1041C000FE48012908D001210170848144701DB08E
:1041D000BDEC028BBDE8F08F8189491C89B28181D9
:1041E000042903D384810121C17002E0C17801292F
:1041F000EDD18046C470F1480327092601780825CF
:1042000040784FF0500A4FF01409012902D00028DD
:104210007DD0C8E368B9EA4988F8024002200978ED
:10422000A8F8081001F58071A8F80A100021FFF71E
:1042300097FE98F80100012821D188F802400F224A
:10424000E04905A8FCF709F9DE490F220F3901A85A
:10425000FCF703F9DB480F221E388189ADF8001006
:10426000807BD8498DF802001E3909A8FCF7F5F8C3
:104270000DF1240B03209BE80E00FFF7EDFE98F8EC
:10428000010002287ED188F802404FF4CD620A2353
:104290000095CDE9013240F23931CDE90316C94824
:1042A000B34609230122C8A12D30FCF7FBFB4FF4D4
:1042B0004D7040F2BA41CDE9030105900420009011
:1042C00040F2C622CDE90192BE484E4609230122A2
:1042D000BEA13C30FEF76AFD40F2726040F2EE2271
:1042E000CDE902024FF4AF71CDE904010420CDE91C
:1042F0000006B44809230122B5A14B30FEF756FD54
:1043000040F21A2140F2BD320523009700E076E228
:10431000CDE90132CDE9031AAA4809230122ADA152
:104320005A30FCF7BFFB0A23022040F207314FF45A
:10433000CD62CDE90003CDE90221A248CDF810B04D
:1043400009230122A4A16930FCF7ACFB9D490F228F
:10435000693115A8FCF781F89A490F225A3111A842
:10436000FCF77BF897490F224B310DA8FCF775F845
:1043700094490F223C3109A8FCF76FF891490F22AC
:104380002D3100E01EE005A8FCF767F88D490F22EB
:104390001E3101A8FCF761F88A480F221E3830F858
:1043A000391FADF80010807886498DF802000F3172
:1043B00019A8FCF752F80DF1640B07209BE80E00DA
:1043C000FFF74AFE98F80100464603287DD1B470F5
:1043D000B42104912820CDE9054007904FF448719D
:1043E000CDE902A1774800950923012201957BA11F
:1043F0007830FCF72EF94FF45270A022CDE9030279
:10440000009505906F48CDE9015A0923012274A156
:104410008730FEF7CBFC8C22CDE901524FF0040A25
:1044200040F252310095CDE9031A66480923012272
:104430006CA19630FCF736FB7D22CDE9015240F2AB
:104440003E310095CDE9031A5E480923012266A199
:10445000A530FCF727FB5B490F22D23115A8FBF7EB
:10446000FCFF58490F22C33111A8FBF7F6FF55494D
:104470000F22B4310DA8FBF7F0FF52490F22A531EE
:1044800009A8FBF7EAFF4F490F22963105A8FBF771
:10449000E4FF4C490F22873101A8FBF7DEFF4948B2
:1044A0000F226230418CADF8001090F8240045498D
:1044B0008DF80200783119A8FBF7CFFF0DF16408E1
:1044C000072098E80E00FFF7C7FD7078B046042873
:1044D0006ED188F802404FF431704FF44A714FF4B6
:1044E0005076CDE90401CDE902064FF0040B3548C2
:1044F000CDE9005B082301223CA1B430FEF756FC55
:1045000040F2BC4A4FF44A71CDE904A1CDE902A6BC
:104510002C48CDE9005B0823012235A1C330FEF70A
:1045200045FC02A84FF4317180E842040596254805
:10453000CDE9005B082301222EA1D230FEF736FC24
:104540004FF44A70CDE904A04FF43172CDE9022056
:104550001C48CDE9005B0823012227A1E130FEF7CA
:1045600025FC18490F22E13109A8FBF776FF154910
:104570000F22D23105A8FBF770FF12490F22C33179
:1045800001A8FBF76AFF0F480F22623030F85E1F68
:10459000ADF8001080780B498DF80200B4310DA8F9
:1045A000FBF75BFF0DAE052096E80E00FFF754FD0C
:1045B000464698F8010021E0F85900201C0100202F
:1045C000CD4E00202A570020473600004737000014
:1045D000473800004739000047313000473131008B
:1045E000473132004731330047313400473135001D
:1045F000473136004731370047313800052825D18B
:10460000B470F8A1CDE9055140F2463240F286601F
:10461000CDF80890CDE903020421CDE9007109230A
:104620000122F2A1F248FCF7FFF8F1491D221031F6
:104630006846FBF712FF2D22ED4908A8FBF70DFF96
:104640000DF1200898E80F00FCF73CF97078B046AF
:1046500006286BD188F8024040F266604FF4AE7BCA
:104660004FF43C76CDE90206CDE9040B0420CDE9F8
:104670000050DF4808230122DEA13C38FEF796FBFC
:1046800040F27E6ACDE904AB0420CDE90050CDE9CB
:1046900002A6D74808230122D7A12D38FEF786FBB2
:1046A00002A840F2666180E8420404200596CDE944
:1046B0000050CF4808230122D0A11E38FEF776FB18
:1046C000CDE904AB0420CDE9005040F26662CDE9AB
:1046D000022BC74808230122C9A10F38FEF766FB49
:1046E000C3490F220F3909A8FBF7B7FEC0490F22B3
:1046F0001E3905A8FBF7B1FEBD490F222D3901A8CF
:10470000FBF7ABFEBA480F224A38418BADF80010D8
:10471000007FB7498DF802003C390DA8FBF79DFEDC
:104720000DAE052096E80E00FFF796FC98F8010004
:104730004646072802D0082802D02AE0B47053E089
:104740000DF10C0AB470AFA30F224FF4617140F267
:10475000AD208AE80F00282002210290CDE9001543
:10476000A34809230122ABA12D30FCF75DF8A04935
:104770001D223D316846FBF770FE9D492D222D31EB
:1047800008A8FBF76AFE0DF1200A9AE80F00FCF773
:1047900099F87078092827D1B4709FA1CDE9055107
:1047A0004FF4457240F28660CDF80890CDE90302DF
:1047B0000421CDE900718E480923012299A15A30C4
:1047C000FCF732F88A491D226A316846FBF745FE3C
:1047D00087492D225A3108A8FBF73FFE0DF1200A28
:1047E0009AE80F00FCF76EF87078401C7070B07893
:1047F000012801D1347074700120B07037E188F85D
:1048000002409FED892A9FED898A98ED040A9FED69
:10481000881AF0EE481AF0EE480AB8EEC00A00F026
:10482000D3FFDFED840A4FF44D7040F2C62130EE25
:10483000200ACDE90210BCEEC00A042109238DED47
:10484000040A0590CDE900190222AFF280216848E0
:10485000F038FEF7ABFA9FED782AF0EE481A9FED9C
:10486000771A98ED050AF0EE480AB8EEC00A00F093
:10487000ABFFDFED730A40F272604FF4AF7130EEC0
:10488000200ACDE9020104900421BCEEC00A0923EC
:1048900002228DED050ACDE90019AFF2CC21544872
:1048A000E138FEF783FA9BF81800D946012840F258
:1048B00039304FF4CD614FF00A027BD00095CDE93D
:1048C000012109230222AFF20031CDE90306484855
:1048D000FF38FCF7E7F899F80A0040F2BD324FF0D4
:1048E00005030097CDE90132012840F21A214FF06B
:1048F00009036AD05FF00102CDE9031AAFF22C314F
:104900003B48D238FCF7CEF899F804004FF4CD615B
:10491000012840F207304FF00A0258D00095CDE947
:10492000012109230222AFF25031CDE903063048BC
:10493000C338FCF7B7F82E490F22C33915A8FBF787
:104940008CFD2B490F22D23911A8FBF786FD28498F
:104950000F22E1390DA8FBF780FD25490F22F03920
:1049600009A8FBF77AFD22490F22FF3905A8FBF7BA
:1049700074FD0F22334901A8FBF76FFD31480F2268
:104980003C3830F8391FADF8001080782D498DF88B
:1049900002000F3919A8FBF760FD19AD072095E853
:1049A0000E00FFF759FB98F80110404601294BD043
:1049B0004BE0FFE7CDE902100220CDE900020496AA
:1049C00009230246AFF2004181E7032294E7CDE9D3
:1049D00002100220CDE90002049609230246AFF23C
:1049E0000841A4E7434F4E56000000005333000037
:1049F00056580020473139004732300047323100E5
:104A000047323200576861742063616E20692073F9
:104A100061793F00533600004B6579626F617264C3
:104A200000000000533700000000FA4300000000BF
:104A3000E0F86349008031440000C84370FB11492D
:104A40000000AF43485700208470491CCAB242702E
:104A50009BF804301BB9022A01D18BF81D408178E4
:104A6000012901D104704470012188F802104546E3
:104A7000B8F80610044801F07DFDEC801DB0BDECD7
:104A8000028BBDE8F08F00000C56002010B50348E3
:104A9000FDF768FFBDE8104000F00CB84C040020A2
:104AA00010B50348FDF75EFFBDE8104000F060B8A8
:104AB0009004002038B5284800680168890603D5AD
:104AC00001684068009038BD24490968C906FAD5D4
:104AD00001684068224A0090106801684FF0240382
:104AE0000C032049046824F00104046016D4106803
:104AF0004468C4F12404A4B20C80436010680168C7
:104B000041F4002101601068016841F00101016079
:104B1000122CD8D1144901F1160015E01468606810
:104B2000C0F1240080B20880636010498B6A23F4CE
:104B300000238B6211680A6842F001020A601228A1
:104B4000C1D1094901F13A0001F0CCFABDE8384081
:104B5000002000F0A5B800004C0400200010014027
:104B6000D4040020C4000020444E00200060024015
:104B70001D4818B40068C00633D51C4801680A688F
:104B800049680091816B09680A684FF40073140347
:104B9000174A0C6824F001040C60816B0C68616892
:104BA000C1F5007189B211806360826B126813686D
:104BB0000AD443F400231360806B0068026842F05B
:104BC000010202600B4809E023F400231360806BAC
:104BD0000068026842F001020260074818BC01F058
:104BE00053B918BC70470000001401409004002025
:104BF00012010020F04F0020F0510020FEE70907CD
:104C0000090E002804DB00F1E02080F80014704752
:104C100000F00F0000F1E02080F8141D7047000044
:104C200000B58BB000200121CDE90601089100906C
:104C30000190029003900590049069460C48FCF79F
:104C4000CBF80B48FCF7BCFC02210948FCF744F800
:104C50000E200990059069460648FCF7BDF8054806
:104C6000FCF7AEFC02210348FCF736F80BB000BDA0
:104C7000B4030020DC030020084800210222018048
:104C800041808180C18001818272C2728181C18133
:104C900001828174C174818270470000444E0020FB
:104CA00000EBC00110B5114800EB81042068606082
:104CB00001F0F0FE2060E17C4A0603D521F04001BE
:104CC000E174E060A06958B1804748B1E07C40F0F1
:104CD000A000E074206A002806D0BDE8104000471C
:104CE000E07C20F08000E07410BD0000F053002054
:104CF000F0B595B0044654221C496846FBF7F2FB18
:104D000000221B4B10466D4602EB420602EBC2012D
:104D100003EB810135F816C00F8A05EB46066CF3EC
:104D20000B070F82B6F802C0B1F81170521C6CF379
:104D30000F17A1F811703779CE7C886167F34406AC
:104D4000C861086246F0E106CE7448610C604C60B0
:104D50008C60D2B2CC600E2AD6D306489861064841
:104D6000D8610648186215B0F0BD0000EC6D00086F
:104D7000F0530020493800085162000861620008C1
:104D800010B578B1D1E90103984201D14A6010BD54
:104D9000101AC8601428FAD30A699042F7D9022081
:104DA000087010BDCB680020142B05D90C69A342F4
:104DB00002D201230B7000E008704A60C1E90220B2
:104DC00010BD000001F066FE3C4E7060FFF790FFE2
:104DD000392001F0C9FC3A493A4800F053FA3A4DFB
:104DE0004FF00E0836493748726800F072FA01F049
:104DF00051FE706086F8008095F80B025FF00004A9
:104E000020F0600085F80B0204EBC40005EB800085
:104E1000C17CCA074BD003687268B0F810C0D71ABB
:104E2000CCF30B0C67451DD98B0603D441F0600110
:104E3000C1748260C17CC1F34302317801EBC101CE
:104E400005EB8101C97CC1F343018A4200D934706A
:104E500095F80B1241F0600185F80B12C06930B370
:104E6000804724E0C76821F04001D21BB0F81170E0
:104E7000B2EB171F03D241F02001C17417E0C174D7
:104E80000A0602D541F0200101E021F02001C174A1
:104E900041688B420BD9591A00EE101A9FED0B1A7C
:104EA000F8EE400A81EE200A10EE101A4161641CEF
:104EB0000E2CA9DB0A2001F057FC93E71401002017
:104EC000185A0020F8590020F053002000007A44BE
:104ED00070B51E462DED048BB0EE618AF0EE418A6E
:104EE000089DB0EE609AF0EE409A0446012A26D062
:104EF000022A28D1084600F0B1F800BF20603246EF
:104F000004F11400F0EE490AB0EE690A00210646E9
:104F1000FEF72CFC04F15C00F0EE480AB0EE680AE3
:104F20002A4600210446FEF721FC3046FEF7FEFB30
:104F3000BDEC048B2046BDE87040FEF7F7BB084689
:104F400000F080F8DAE7BDEC048B70BD10B50F49B6
:104F500010482DED028B9FED0E8AB0EE480A00F04E
:104F600044F80A490B48091DB0EE480A103000F019
:104F70003CF8064907480831BDEC028B2030BDE8FB
:104F800010409FED050A00F030B8000040740008A2
:104F9000CDCC4C3D045C0020CDCCCC3D10B510EE0A
:104FA000103A03608168C26800EE101A00EE902A81
:104FB000446830EE201A00EE101AC0EE010A00EE2E
:104FC000104A20EE801A00EE101A00EE902A70EEC1
:104FD000201A00EE102AC0EE210A00EE103A00EE70
:104FE000801A11EE101A416010BD10EE102AC26036
:104FF00009688160002101604160704710B558B1B7
:10500000084C491E0BD310F8013B5340DBB234F877
:10501000133083EA1222F4E74FF6FF7010BD1046FA
:1050200010BD00004072000810B5054C04E000BF40
:1050300010F8013B5340E25C491EF9D2104610BD06
:1050400040710008082805D2034900EB400001EB3D
:1050500080007047002070472C430020082805D2AC
:10506000034900EB400001EB8000704700207047CF
:105070008C43002000487047444E002070B53348F0
:105080000024334D046044600481847205F8014BB0
:1050900020210B30FBF758FA2D480D211030046009
:1050A000001D04600A38048084702848AC81AC7309
:1050B0002B30FBF749FA254810213830FBF744FA2A
:1050C000224810214830FBF73FFA6C622C85A5F886
:1050D00007402C70EC63A5F840401D4885F842401D
:1050E000C5F82A401830EC85046018482C63AC865B
:1050F00028215830FBF728FA1548C5F836401C30EF
:105100006C87046011486C701E218030FBF71CFA1C
:105110000E480F219E30FBF717FA0C4869218030AA
:1051200040F82D4F44608460C46004618482074865
:10513000C5F84340C5F84740C330FBF705FABDE862
:10514000704022210348FBF7FFB90000A24E002067
:10515000C6000020CE4F002070B5414C2DED048BD1
:10516000207970B301F028F800F04CFB00F08AFAC7
:10517000627D3C4800214AB14FF63002A0F8382346
:10518000227B394852B14FF23C610BE0227E12B1D2
:105190004FF4FA62F2E7A0F83813F1E7227C0AB183
:1051A00040F6C411A0F89412A07A10B100F0DAFD14
:1051B00001E000F0B9FDBDEC048BBDE8704000F0EB
:1051C000B1BB2A4C9FED2A8ADFED2A8AB4F902008E
:1051D0009FED299A00EE100ADFED289AB0EE482ADA
:1051E000B8EEC00AF0EE681AB0EE491AF0EE690A9D
:1051F00000F0EAFA224DB0EE482AF0EE681A85ED8A
:10520000000AB4F90000B0EE491A00EE100AF0EE00
:10521000690AB8EEC00A00F0D7FA85ED010AB4F9C0
:105220000400B0EE482A00EE100AF0EE681AB0EE64
:10523000491AB8EEC00AF0EE690A00F0C5FA85ED29
:10524000020AE07A012805D0BDEC048BBDE870406D
:1052500000F06ABDBDEC048BBDE8704000F082BD7B
:10526000F85900200444002024490020444E002026
:105270000000FA440000FAC400002544000025C4E0
:10528000F85B002070B50C460546FFF7F3FE28607A
:105290000A2020616062A063E06420666067FA21F2
:1052A000C4F89C10C4F8C410C4F8B010C4F8D810E6
:1052B000C4F88800C4F87801C4F88C01C4F8A001CF
:1052C000C4F8B401C4F8EC10C4F8DC11C4F8C80187
:1052D00070BD70B5040016460D467ED02068807CF7
:1052E00000B10120FFF74CFD2068C07C00B1012017
:1052F000324605F11401FFF743FD2068324605F1FF
:105300002801007DC0F38010FFF73AFD2068324687
:1053100005F13C01007D00F00100FFF731FD206840
:10532000324605F15001007DC0F34000FFF728FD33
:105330002068324605F16401007DC0F38000FFF76C
:105340001FFD2068324605F17801007DC0F3C000E2
:10535000FFF716FD2068324605F18C01808AC00BEC
:10536000FFF70EFD2068324605F1A001808AC0F3E8
:105370008020FFF705FD2068324605F1B401808AE0
:10538000C0F30030FFF7FCFC2068324605F5B4712D
:10539000007DC0F3C010FFF7F3FC2068324605F52E
:1053A000BE71808AC0F30020FFF7EAFC2068324615
:1053B00005F5C871808AC0F34020FFF7E1FC206842
:1053C000324605F5D271808AC0F3C020FFF7D8FCC1
:1053D0002068808AC0F3403000E06AE0324605F57C
:1053E000DC71FFF7CDFC2068324605F5E671808A56
:1053F000C0F38030FFF7C4FC2068324605F1C801D5
:10540000007DC0F34010FFF7BBFC2068324605F179
:10541000DC01007DC0F30010FFF7B2FC2068C07A09
:10542000012800D00020324605F1F001FFF7A8FC6A
:105430002068C07A03283DD00020324605F58271ED
:10544000FFF79EFC2068C07A022835D00020324643
:1054500005F58C71FFF794FC2068807A012800D054
:105460000020324605F59671FFF78AFC2068807AA5
:10547000032823D00020324605F5A071FFF780FCF9
:105480002068807A02281BD00020324605F5AA71D8
:10549000FFF776FC2946204600F014F8207938B151
:1054A000E07B002805D11021601DFBF74DF801209D
:1054B000E07370BD0120C0E70120C8E70120DAE7F2
:1054C0000120E2E710B50C7801220023012C01D065
:1054D00014B102E0427300E043730C78022C01D057
:1054E00014B102E0827300E0837391F82840012C2C
:1054F00027D0022C25D0037391F83C40012C22D0F8
:10550000022C20D080F8053091F85040012C1CD09E
:10551000022C1AD080F8063091F86440012C16D085
:10552000022C14D080F8073091F87840012C10D06C
:10553000022C0ED080F8083091F8DC40012C0AD003
:105540000DE00273D8E74271DEE78271E4E7C271D1
:10555000EAE70272F0E7C47A5CB10024C47291F801
:10556000DC40022C07D0C37591F88C40012C04D08C
:105570000CE00124F2E7C275F6E704795CB100247F
:1055800004713F4C42776387A4F8523091F8A040F1
:10559000012C02D005E00124F2E7047F34B100249D
:1055A000047791F8B440012C02D005E00124F7E71C
:1055B000847A34B10024847291F8C840012C02D05E
:1055C00005E00124F7E7447ACCB30024447291F853
:1055D000C840022C36D0437691F86841012C33D074
:1055E000022C31D080F8103091F87C41022C2DD063
:1055F000012C2BD080F8113091F89041012C27D04C
:10560000022C25D080F8123091F8A441012C21D031
:10561000022C1FD080F8133091F8B841012C1BD018
:10562000022C19D080F8143091F8CC41022C15D0FE
:1056300080F8153091F8CC41012C11D014E0FFE72F
:105640000124C3E74276C7E70274CDE74274D3E78B
:105650008274D9E7C274DFE70275E5E74275E9E7CE
:10566000047E44B100240476097D012905D0022975
:1056700003D0837510BD0124F5E7827510BD0000CD
:105680002C4300202DE9F0412C4F2D4E2D4CF87D60
:105690000025B0B1A4F8DC53A4F88054A6F8385320
:1056A000A6F8DC5301F0C4FA797C274809B10178E7
:1056B00089B3B97C09B1407870B3A4F89452BDE8BD
:1056C000F081A4F8945200F063FE204A204897F835
:1056D00011C053424142BCF1000F08D0DFF868C04E
:1056E0000CF1040C9CF802C0BCF1000F0AD0BF7C86
:1056F0009FB1A4F8DC33A4F88024A6F83813A6F8E8
:10570000DC03DCE7A4F8DC23A4F88034A6F8380333
:10571000A6F8DC13D3E709E00BE0A4F8DC53A4F807
:105720008054A6F83853A6F8DC53C8E74FF2484037
:1057300001E040F6B830A4F89402C0E7F859002020
:10574000244900200444002040010020C0F9FFFF4C
:10575000C9FDFFFFFCF72AFAFEF72CF9FDF704FC60
:10576000FDF7A8FBFDF762FBFDF782FBFDF7D4FC1C
:10577000FDF7F2FCFDF77CFC012291030D48FCF7DC
:1057800001FA00F0A7FCFFF74BFAFFF777FC00F0F7
:1057900097FC0948FCF718FE00210748FDF770F850
:1057A00004210548FDF76CF8FDF7AAFB00F08BF823
:1057B000FEE700000014024004040020014600201F
:1057C000842900D0C81C7047B4EEE00AF1EE10FA4C
:1057D00002D8B0EE610A7047B4EEC10AF1EE10FAD9
:1057E00002DDB0EE420A704730EE600A32EE612A06
:1057F00031EE601A20EE020AC0EE010A30EEA10A74
:105800007047000070B5244D244C2DED048B04F13D
:105810000C0069799FED228A9FED229ADFED228AA2
:1058200011B1B0EE680A03E0A97941B1B0EE490ABE
:10583000FFF7B4FB94ED040A84ED000A01E084ED67
:10584000008A1648E9791C3011B1B0EE490A03E02C
:10585000297A41B1B0EE680AFFF7A0FB94ED080A7F
:1058600084ED010A01E084ED018A1048B0EE682A57
:10587000F0EE491AB0F90C009FED0D1A00EE100A77
:10588000DFED0C0AB8EEC00AFFF79EFF84ED020AB6
:10589000BDEC048B70BD0000F8590020F85B0020BF
:1058A0000000000000409CC500409C45444E002084
:1058B00000007A4400007AC410B500B9012000F05D
:1058C00053FF002010BD10B500F074FF002010BD84
:1058D0007FB50D4604464169B0F9080081B1A16960
:1058E00071B1FFF76BFFD4E905128DE80700D4E929
:1058F00000102B46226901F0A2F8039004B070BD9D
:10590000FFF75CFF03A9CDE90001208A2B4682B294
:10591000D4E9001001F066F8012801D00020EDE77D
:105920000398EBE72DE9F041284D40F2DC57284C75
:10593000687EC7F100080026B8B1A4F84C61A4F84D
:10594000F06100F095FC2348AB7B234A41420BB148
:10595000937843B3AB7D0BB1D27842B3E87C40B3CC
:10596000A780A4F8A870BDE8F081A680A4F8A8607C
:10597000A87B10B14FF60C6003E0A87D20B14FF476
:10598000FA70A4F8F00101E0A4F8F061E87C10B12D
:10599000A4F84C71E7E7287D10B1A4F84C81E2E748
:1059A000A4F84C61DFE7A080A4F8A810DBE7A18091
:1059B00004E0287D28B14046A4F80480A4F8A8009B
:1059C000D1E7A680A4F8A860CDE70000F859002030
:1059D0002449002030F8FFFF400100202DE9F0416C
:1059E000184C0F460546E6682068001D00F0F4FDDF
:1059F00038B9206890F82C10012088402169814333
:105A00002161681C07D137B12168BDE8F0410E481B
:105A1000091D00F025BE20683544B5424560216867
:105A200005D2A06BBDE8F041091D00F001BE606B1E
:105A3000091D00F0FDFDA06A854200D2A562BDE807
:105A4000F081000020000020180700202DE9F0411F
:105A5000054600F011FE2E4CA068401CA060206896
:105A60002C4F10B1606940B32DE02560A06801287B
:105A700029D1002606EB860007EB800000F0CAFD66
:105A8000761C072EF6D323488C3000F0C3FD214846
:105A9000A03000F0BFFD1F48B43000F0BBFD1D4832
:105AA000C83000F0B7FD1B48DC3000F0B3FD1948EA
:105AB0008C3060631430A06305E02068E96AC06A36
:105AC000884200D82560606A401C6062E96A012053
:105AD000226988401043206101EB810007EB8000C0
